{
  "contractName": "EMaxCoin2",
  "abi": [
    {
      "anonymous": false,
      "inputs": [
        {
          "indexed": true,
          "internalType": "address",
          "name": "owner",
          "type": "address"
        },
        {
          "indexed": true,
          "internalType": "address",
          "name": "spender",
          "type": "address"
        },
        {
          "indexed": false,
          "internalType": "uint256",
          "name": "value",
          "type": "uint256"
        }
      ],
      "name": "Approval",
      "type": "event"
    },
    {
      "anonymous": false,
      "inputs": [
        {
          "indexed": true,
          "internalType": "address",
          "name": "previousOwner",
          "type": "address"
        },
        {
          "indexed": true,
          "internalType": "address",
          "name": "newOwner",
          "type": "address"
        }
      ],
      "name": "OwnershipTransferred",
      "type": "event"
    },
    {
      "anonymous": false,
      "inputs": [
        {
          "indexed": true,
          "internalType": "address",
          "name": "from",
          "type": "address"
        },
        {
          "indexed": true,
          "internalType": "address",
          "name": "to",
          "type": "address"
        },
        {
          "indexed": false,
          "internalType": "uint256",
          "name": "value",
          "type": "uint256"
        }
      ],
      "name": "Transfer",
      "type": "event"
    },
    {
      "inputs": [
        {
          "internalType": "address",
          "name": "owner",
          "type": "address"
        },
        {
          "internalType": "address",
          "name": "spender",
          "type": "address"
        }
      ],
      "name": "allowance",
      "outputs": [
        {
          "internalType": "uint256",
          "name": "",
          "type": "uint256"
        }
      ],
      "stateMutability": "view",
      "type": "function",
      "constant": true
    },
    {
      "inputs": [
        {
          "internalType": "address",
          "name": "spender",
          "type": "address"
        },
        {
          "internalType": "uint256",
          "name": "amount",
          "type": "uint256"
        }
      ],
      "name": "approve",
      "outputs": [
        {
          "internalType": "bool",
          "name": "",
          "type": "bool"
        }
      ],
      "stateMutability": "nonpayable",
      "type": "function"
    },
    {
      "inputs": [
        {
          "internalType": "address",
          "name": "account",
          "type": "address"
        }
      ],
      "name": "balanceOf",
      "outputs": [
        {
          "internalType": "uint256",
          "name": "",
          "type": "uint256"
        }
      ],
      "stateMutability": "view",
      "type": "function",
      "constant": true
    },
    {
      "inputs": [],
      "name": "decimals",
      "outputs": [
        {
          "internalType": "uint8",
          "name": "",
          "type": "uint8"
        }
      ],
      "stateMutability": "view",
      "type": "function",
      "constant": true
    },
    {
      "inputs": [
        {
          "internalType": "address",
          "name": "spender",
          "type": "address"
        },
        {
          "internalType": "uint256",
          "name": "subtractedValue",
          "type": "uint256"
        }
      ],
      "name": "decreaseAllowance",
      "outputs": [
        {
          "internalType": "bool",
          "name": "",
          "type": "bool"
        }
      ],
      "stateMutability": "nonpayable",
      "type": "function"
    },
    {
      "inputs": [
        {
          "internalType": "address",
          "name": "account",
          "type": "address"
        }
      ],
      "name": "excludeAccount",
      "outputs": [],
      "stateMutability": "nonpayable",
      "type": "function"
    },
    {
      "inputs": [
        {
          "internalType": "address",
          "name": "account",
          "type": "address"
        }
      ],
      "name": "includeAccount",
      "outputs": [],
      "stateMutability": "nonpayable",
      "type": "function"
    },
    {
      "inputs": [
        {
          "internalType": "address",
          "name": "spender",
          "type": "address"
        },
        {
          "internalType": "uint256",
          "name": "addedValue",
          "type": "uint256"
        }
      ],
      "name": "increaseAllowance",
      "outputs": [
        {
          "internalType": "bool",
          "name": "",
          "type": "bool"
        }
      ],
      "stateMutability": "nonpayable",
      "type": "function"
    },
    {
      "inputs": [],
      "name": "initialize",
      "outputs": [],
      "stateMutability": "nonpayable",
      "type": "function"
    },
    {
      "inputs": [
        {
          "internalType": "address",
          "name": "account",
          "type": "address"
        }
      ],
      "name": "isExcluded",
      "outputs": [
        {
          "internalType": "bool",
          "name": "",
          "type": "bool"
        }
      ],
      "stateMutability": "view",
      "type": "function",
      "constant": true
    },
    {
      "inputs": [],
      "name": "name",
      "outputs": [
        {
          "internalType": "string",
          "name": "",
          "type": "string"
        }
      ],
      "stateMutability": "view",
      "type": "function",
      "constant": true
    },
    {
      "inputs": [],
      "name": "owner",
      "outputs": [
        {
          "internalType": "address",
          "name": "",
          "type": "address"
        }
      ],
      "stateMutability": "view",
      "type": "function",
      "constant": true
    },
    {
      "inputs": [],
      "name": "ownerInitialize",
      "outputs": [],
      "stateMutability": "nonpayable",
      "type": "function"
    },
    {
      "inputs": [
        {
          "internalType": "uint256",
          "name": "tAmount",
          "type": "uint256"
        }
      ],
      "name": "reflect",
      "outputs": [],
      "stateMutability": "nonpayable",
      "type": "function"
    },
    {
      "inputs": [
        {
          "internalType": "uint256",
          "name": "tAmount",
          "type": "uint256"
        },
        {
          "internalType": "bool",
          "name": "deductTransferFee",
          "type": "bool"
        }
      ],
      "name": "reflectionFromToken",
      "outputs": [
        {
          "internalType": "uint256",
          "name": "",
          "type": "uint256"
        }
      ],
      "stateMutability": "view",
      "type": "function",
      "constant": true
    },
    {
      "inputs": [],
      "name": "renounceOwnership",
      "outputs": [],
      "stateMutability": "nonpayable",
      "type": "function"
    },
    {
      "inputs": [],
      "name": "symbol",
      "outputs": [
        {
          "internalType": "string",
          "name": "",
          "type": "string"
        }
      ],
      "stateMutability": "view",
      "type": "function",
      "constant": true
    },
    {
      "inputs": [
        {
          "internalType": "uint256",
          "name": "rAmount",
          "type": "uint256"
        }
      ],
      "name": "tokenFromReflection",
      "outputs": [
        {
          "internalType": "uint256",
          "name": "",
          "type": "uint256"
        }
      ],
      "stateMutability": "view",
      "type": "function",
      "constant": true
    },
    {
      "inputs": [],
      "name": "totalFees",
      "outputs": [
        {
          "internalType": "uint256",
          "name": "",
          "type": "uint256"
        }
      ],
      "stateMutability": "view",
      "type": "function",
      "constant": true
    },
    {
      "inputs": [],
      "name": "totalSupply",
      "outputs": [
        {
          "internalType": "uint256",
          "name": "",
          "type": "uint256"
        }
      ],
      "stateMutability": "pure",
      "type": "function",
      "constant": true
    },
    {
      "inputs": [
        {
          "internalType": "address",
          "name": "recipient",
          "type": "address"
        },
        {
          "internalType": "uint256",
          "name": "amount",
          "type": "uint256"
        }
      ],
      "name": "transfer",
      "outputs": [
        {
          "internalType": "bool",
          "name": "",
          "type": "bool"
        }
      ],
      "stateMutability": "nonpayable",
      "type": "function"
    },
    {
      "inputs": [
        {
          "internalType": "address",
          "name": "sender",
          "type": "address"
        },
        {
          "internalType": "address",
          "name": "recipient",
          "type": "address"
        },
        {
          "internalType": "uint256",
          "name": "amount",
          "type": "uint256"
        }
      ],
      "name": "transferFrom",
      "outputs": [
        {
          "internalType": "bool",
          "name": "",
          "type": "bool"
        }
      ],
      "stateMutability": "nonpayable",
      "type": "function"
    },
    {
      "inputs": [
        {
          "internalType": "address",
          "name": "newOwner",
          "type": "address"
        }
      ],
      "name": "transferOwnership",
      "outputs": [],
      "stateMutability": "nonpayable",
      "type": "function"
    }
  ],
  "bytecode": "0x608060405234801561001057600080fd5b50613c60806100206000396000f3fe608060405234801561001057600080fd5b506004361061014d5760003560e01c806370a08231116100c3578063a9059cbb1161007c578063a9059cbb14610390578063cba0e996146103c0578063dd62ed3e146103f0578063f2cc0c1814610420578063f2fde38b1461043c578063f84354f1146104585761014d565b806370a08231146102e0578063715018a6146103105780638129fc1c1461031a5780638da5cb5b1461032457806395d89b4114610342578063a457c2d7146103605761014d565b80631b4e8cc2116101155780631b4e8cc2146101f857806323b872dd146102025780632d83811914610232578063313ce5671461026257806339509351146102805780634549b039146102b05761014d565b8063053ab1821461015257806306fdde031461016e578063095ea7b31461018c57806313114a9d146101bc57806318160ddd146101da575b600080fd5b61016c600480360381019061016791906130c7565b610474565b005b6101766105ee565b604051610183919061337b565b60405180910390f35b6101a660048036038101906101a1919061308b565b610680565b6040516101b39190613360565b60405180910390f35b6101c461069e565b6040516101d1919061351d565b60405180910390f35b6101e26106a8565b6040516101ef919061351d565b60405180910390f35b6102006106be565b005b61021c6004803603810190610217919061303c565b610840565b6040516102299190613360565b60405180910390f35b61024c600480360381019061024791906130c7565b610919565b604051610259919061351d565b60405180910390f35b61026a610987565b6040516102779190613538565b60405180910390f35b61029a6004803603810190610295919061308b565b61099e565b6040516102a79190613360565b60405180910390f35b6102ca60048036038101906102c591906130f0565b610a51565b6040516102d7919061351d565b60405180910390f35b6102fa60048036038101906102f59190612fd7565b610adf565b604051610307919061351d565b60405180910390f35b610318610bca565b005b610322610d06565b005b61032c610f92565b6040516103399190613345565b60405180910390f35b61034a610fbb565b604051610357919061337b565b60405180910390f35b61037a6004803603810190610375919061308b565b61104d565b6040516103879190613360565b60405180910390f35b6103aa60048036038101906103a5919061308b565b61111a565b6040516103b79190613360565b60405180910390f35b6103da60048036038101906103d59190612fd7565b611138565b6040516103e79190613360565b60405180910390f35b61040a60048036038101906104059190613000565b61118e565b604051610417919061351d565b60405180910390f35b61043a60048036038101906104359190612fd7565b611215565b005b61045660048036038101906104519190612fd7565b6114b0565b005b610472600480360381019061046d9190612fd7565b61165c565b005b600061047e611a2a565b9050600460008273ffffffffffffffffffffffffffffffffffffffff1673ffffffffffffffffffffffffffffffffffffffff16815260200190815260200160002060009054906101000a900460ff161561050d576040517f08c379a0000000000000000000000000000000000000000000000000000000008152600401610504906134fd565b60405180910390fd5b600061051883611a32565b50505050905061057081600160008573ffffffffffffffffffffffffffffffffffffffff1673ffffffffffffffffffffffffffffffffffffffff16815260200190815260200160002054611a8a90919063ffffffff16565b600160008473ffffffffffffffffffffffffffffffffffffffff1673ffffffffffffffffffffffffffffffffffffffff168152602001908152602001600020819055506105c881600654611a8a90919063ffffffff16565b6006819055506105e383600754611aa090919063ffffffff16565b600781905550505050565b6060600880546105fd9061370c565b80601f01602080910402602001604051908101604052809291908181526020018280546106299061370c565b80156106765780601f1061064b57610100808354040283529160200191610676565b820191906000526020600020905b81548152906001019060200180831161065957829003601f168201915b5050505050905090565b600061069461068d611a2a565b8484611ab6565b6001905092915050565b6000600754905090565b60006d629b8c891b267182b61400000000905090565b600060019054906101000a900460ff16806106e4575060008054906101000a900460ff16155b610723576040517f08c379a000000000000000000000000000000000000000000000000000000000815260040161071a9061345d565b60405180910390fd5b60008060019054906101000a900460ff161590508015610773576001600060016101000a81548160ff02191690831515021790555060016000806101000a81548160ff0219169083151502179055505b600061077d611a2a565b905080600060026101000a81548173ffffffffffffffffffffffffffffffffffffffff021916908373ffffffffffffffffffffffffffffffffffffffff1602179055508073ffffffffffffffffffffffffffffffffffffffff16600073ffffffffffffffffffffffffffffffffffffffff167f8be0079c531659141344cd1fd0a4f28419497f9722a3daafe3b4186f6b6457e060405160405180910390a350801561083d5760008060016101000a81548160ff0219169083151502179055505b50565b600061084d848484611c81565b61090e84610859611a2a565b61090985604051806060016040528060288152602001613bde60289139600360008b73ffffffffffffffffffffffffffffffffffffffff1673ffffffffffffffffffffffffffffffffffffffff16815260200190815260200160002060006108bf611a2a565b73ffffffffffffffffffffffffffffffffffffffff1673ffffffffffffffffffffffffffffffffffffffff168152602001908152602001600020546120989092919063ffffffff16565b611ab6565b600190509392505050565b6000600654821115610960576040517f08c379a0000000000000000000000000000000000000000000000000000000008152600401610957906133bd565b60405180910390fd5b600061096a6120ed565b905061097f818461211890919063ffffffff16565b915050919050565b6000600a60009054906101000a900460ff16905090565b6000610a476109ab611a2a565b84610a4285600360006109bc611a2a565b73ffffffffffffffffffffffffffffffffffffffff1673ffffffffffffffffffffffffffffffffffffffff16815260200190815260200160002060008973ffffffffffffffffffffffffffffffffffffffff1673ffffffffffffffffffffffffffffffffffffffff16815260200190815260200160002054611aa090919063ffffffff16565b611ab6565b6001905092915050565b60006d629b8c891b267182b61400000000831115610aa4576040517f08c379a0000000000000000000000000000000000000000000000000000000008152600401610a9b9061343d565b60405180910390fd5b81610ac3576000610ab484611a32565b50505050905080915050610ad9565b6000610ace84611a32565b505050915050809150505b92915050565b6000600460008373ffffffffffffffffffffffffffffffffffffffff1673ffffffffffffffffffffffffffffffffffffffff16815260200190815260200160002060009054906101000a900460ff1615610b7a57600260008373ffffffffffffffffffffffffffffffffffffffff1673ffffffffffffffffffffffffffffffffffffffff168152602001908152602001600020549050610bc5565b610bc2600160008473ffffffffffffffffffffffffffffffffffffffff1673ffffffffffffffffffffffffffffffffffffffff16815260200190815260200160002054610919565b90505b919050565b610bd2611a2a565b73ffffffffffffffffffffffffffffffffffffffff16610bf0610f92565b73ffffffffffffffffffffffffffffffffffffffff1614610c46576040517f08c379a0000000000000000000000000000000000000000000000000000000008152600401610c3d9061347d565b60405180910390fd5b600073ffffffffffffffffffffffffffffffffffffffff16600060029054906101000a900473ffffffffffffffffffffffffffffffffffffffff1673ffffffffffffffffffffffffffffffffffffffff167f8be0079c531659141344cd1fd0a4f28419497f9722a3daafe3b4186f6b6457e060405160405180910390a360008060026101000a81548173ffffffffffffffffffffffffffffffffffffffff021916908373ffffffffffffffffffffffffffffffffffffffff160217905550565b600060019054906101000a900460ff1680610d2c575060008054906101000a900460ff16155b610d6b576040517f08c379a0000000000000000000000000000000000000000000000000000000008152600401610d629061345d565b60405180910390fd5b60008060019054906101000a900460ff161590508015610dbb576001600060016101000a81548160ff02191690831515021790555060016000806101000a81548160ff0219169083151502179055505b610dc36106be565b6d629b8c891b267182b61400000000600019610ddf9190613787565b600019610dec9190613650565b6006819055506040518060400160405280600b81526020017f457468657265756d4d617800000000000000000000000000000000000000000081525060089080519060200190610e3d929190612ef5565b506040518060400160405280600481526020017f654d61780000000000000000000000000000000000000000000000000000000081525060099080519060200190610e89929190612ef5565b506012600a60006101000a81548160ff021916908360ff16021790555060065460016000610eb5611a2a565b73ffffffffffffffffffffffffffffffffffffffff1673ffffffffffffffffffffffffffffffffffffffff16815260200190815260200160002081905550610efb611a2a565b73ffffffffffffffffffffffffffffffffffffffff16600073ffffffffffffffffffffffffffffffffffffffff167fddf252ad1be2c89b69c2b068fc378daa952ba7f163c4a11628f55a4df523b3ef6d629b8c891b267182b61400000000604051610f66919061351d565b60405180910390a38015610f8f5760008060016101000a81548160ff0219169083151502179055505b50565b60008060029054906101000a900473ffffffffffffffffffffffffffffffffffffffff16905090565b606060098054610fca9061370c565b80601f0160208091040260200160405190810160405280929190818152602001828054610ff69061370c565b80156110435780601f1061101857610100808354040283529160200191611043565b820191906000526020600020905b81548152906001019060200180831161102657829003601f168201915b5050505050905090565b600061111061105a611a2a565b8461110b85604051806060016040528060258152602001613c066025913960036000611084611a2a565b73ffffffffffffffffffffffffffffffffffffffff1673ffffffffffffffffffffffffffffffffffffffff16815260200190815260200160002060008a73ffffffffffffffffffffffffffffffffffffffff1673ffffffffffffffffffffffffffffffffffffffff168152602001908152602001600020546120989092919063ffffffff16565b611ab6565b6001905092915050565b600061112e611127611a2a565b8484611c81565b6001905092915050565b6000600460008373ffffffffffffffffffffffffffffffffffffffff1673ffffffffffffffffffffffffffffffffffffffff16815260200190815260200160002060009054906101000a900460ff169050919050565b6000600360008473ffffffffffffffffffffffffffffffffffffffff1673ffffffffffffffffffffffffffffffffffffffff16815260200190815260200160002060008373ffffffffffffffffffffffffffffffffffffffff1673ffffffffffffffffffffffffffffffffffffffff16815260200190815260200160002054905092915050565b61121d611a2a565b73ffffffffffffffffffffffffffffffffffffffff1661123b610f92565b73ffffffffffffffffffffffffffffffffffffffff1614611291576040517f08c379a00000000000000000000000000000000000000000000000000000000081526004016112889061347d565b60405180910390fd5b600460008273ffffffffffffffffffffffffffffffffffffffff1673ffffffffffffffffffffffffffffffffffffffff16815260200190815260200160002060009054906101000a900460ff161561131e576040517f08c379a00000000000000000000000000000000000000000000000000000000081526004016113159061341d565b60405180910390fd5b6000600160008373ffffffffffffffffffffffffffffffffffffffff1673ffffffffffffffffffffffffffffffffffffffff1681526020019081526020016000205411156113f2576113ae600160008373ffffffffffffffffffffffffffffffffffffffff1673ffffffffffffffffffffffffffffffffffffffff16815260200190815260200160002054610919565b600260008373ffffffffffffffffffffffffffffffffffffffff1673ffffffffffffffffffffffffffffffffffffffff168152602001908152602001600020819055505b6001600460008373ffffffffffffffffffffffffffffffffffffffff1673ffffffffffffffffffffffffffffffffffffffff16815260200190815260200160002060006101000a81548160ff0219169083151502179055506005819080600181540180825580915050600190039060005260206000200160009091909190916101000a81548173ffffffffffffffffffffffffffffffffffffffff021916908373ffffffffffffffffffffffffffffffffffffffff16021790555050565b6114b8611a2a565b73ffffffffffffffffffffffffffffffffffffffff166114d6610f92565b73ffffffffffffffffffffffffffffffffffffffff161461152c576040517f08c379a00000000000000000000000000000000000000000000000000000000081526004016115239061347d565b60405180910390fd5b600073ffffffffffffffffffffffffffffffffffffffff168173ffffffffffffffffffffffffffffffffffffffff16141561159c576040517f08c379a0000000000000000000000000000000000000000000000000000000008152600401611593906133dd565b60405180910390fd5b8073ffffffffffffffffffffffffffffffffffffffff16600060029054906101000a900473ffffffffffffffffffffffffffffffffffffffff1673ffffffffffffffffffffffffffffffffffffffff167f8be0079c531659141344cd1fd0a4f28419497f9722a3daafe3b4186f6b6457e060405160405180910390a380600060026101000a81548173ffffffffffffffffffffffffffffffffffffffff021916908373ffffffffffffffffffffffffffffffffffffffff16021790555050565b611664611a2a565b73ffffffffffffffffffffffffffffffffffffffff16611682610f92565b73ffffffffffffffffffffffffffffffffffffffff16146116d8576040517f08c379a00000000000000000000000000000000000000000000000000000000081526004016116cf9061347d565b60405180910390fd5b600460008273ffffffffffffffffffffffffffffffffffffffff1673ffffffffffffffffffffffffffffffffffffffff16815260200190815260200160002060009054906101000a900460ff16611764576040517f08c379a000000000000000000000000000000000000000000000000000000000815260040161175b9061341d565b60405180910390fd5b60005b600580549050811015611a26578173ffffffffffffffffffffffffffffffffffffffff16600582815481106117c5577f4e487b7100000000000000000000000000000000000000000000000000000000600052603260045260246000fd5b9060005260206000200160009054906101000a900473ffffffffffffffffffffffffffffffffffffffff1673ffffffffffffffffffffffffffffffffffffffff161415611a1357600560016005805490506118209190613650565b81548110611857577f4e487b7100000000000000000000000000000000000000000000000000000000600052603260045260246000fd5b9060005260206000200160009054906101000a900473ffffffffffffffffffffffffffffffffffffffff16600582815481106118bc577f4e487b7100000000000000000000000000000000000000000000000000000000600052603260045260246000fd5b9060005260206000200160006101000a81548173ffffffffffffffffffffffffffffffffffffffff021916908373ffffffffffffffffffffffffffffffffffffffff1602179055506000600260008473ffffffffffffffffffffffffffffffffffffffff1673ffffffffffffffffffffffffffffffffffffffff168152602001908152602001600020819055506000600460008473ffffffffffffffffffffffffffffffffffffffff1673ffffffffffffffffffffffffffffffffffffffff16815260200190815260200160002060006101000a81548160ff02191690831515021790555060058054806119d9577f4e487b7100000000000000000000000000000000000000000000000000000000600052603160045260246000fd5b6001900381819060005260206000200160006101000a81549073ffffffffffffffffffffffffffffffffffffffff02191690559055611a26565b8080611a1e9061373e565b915050611767565b5050565b600033905090565b6000806000806000806000611a468861212e565b915091506000611a546120ed565b90506000806000611a668c8686612180565b92509250925082828288889a509a509a509a509a5050505050505091939590929450565b60008183611a989190613650565b905092915050565b60008183611aae919061356f565b905092915050565b600073ffffffffffffffffffffffffffffffffffffffff168373ffffffffffffffffffffffffffffffffffffffff161415611b26576040517f08c379a0000000000000000000000000000000000000000000000000000000008152600401611b1d906134dd565b60405180910390fd5b600073ffffffffffffffffffffffffffffffffffffffff168273ffffffffffffffffffffffffffffffffffffffff161415611b96576040517f08c379a0000000000000000000000000000000000000000000000000000000008152600401611b8d906133fd565b60405180910390fd5b80600360008573ffffffffffffffffffffffffffffffffffffffff1673ffffffffffffffffffffffffffffffffffffffff16815260200190815260200160002060008473ffffffffffffffffffffffffffffffffffffffff1673ffffffffffffffffffffffffffffffffffffffff168152602001908152602001600020819055508173ffffffffffffffffffffffffffffffffffffffff168373ffffffffffffffffffffffffffffffffffffffff167f8c5be1e5ebec7d5bd14f71427d1e84f3dd0314c0f7b2291e5b200ac8c7c3b92583604051611c74919061351d565b60405180910390a3505050565b600073ffffffffffffffffffffffffffffffffffffffff168373ffffffffffffffffffffffffffffffffffffffff161415611cf1576040517f08c379a0000000000000000000000000000000000000000000000000000000008152600401611ce8906134bd565b60405180910390fd5b600073ffffffffffffffffffffffffffffffffffffffff168273ffffffffffffffffffffffffffffffffffffffff161415611d61576040517f08c379a0000000000000000000000000000000000000000000000000000000008152600401611d589061339d565b60405180910390fd5b60008111611da4576040517f08c379a0000000000000000000000000000000000000000000000000000000008152600401611d9b9061349d565b60405180910390fd5b600460008473ffffffffffffffffffffffffffffffffffffffff1673ffffffffffffffffffffffffffffffffffffffff16815260200190815260200160002060009054906101000a900460ff168015611e475750600460008373ffffffffffffffffffffffffffffffffffffffff1673ffffffffffffffffffffffffffffffffffffffff16815260200190815260200160002060009054906101000a900460ff16155b15611e5c57611e578383836121de565b612093565b600460008473ffffffffffffffffffffffffffffffffffffffff1673ffffffffffffffffffffffffffffffffffffffff16815260200190815260200160002060009054906101000a900460ff16158015611eff5750600460008373ffffffffffffffffffffffffffffffffffffffff1673ffffffffffffffffffffffffffffffffffffffff16815260200190815260200160002060009054906101000a900460ff165b15611f1457611f0f838383612431565b612092565b600460008473ffffffffffffffffffffffffffffffffffffffff1673ffffffffffffffffffffffffffffffffffffffff16815260200190815260200160002060009054906101000a900460ff16158015611fb85750600460008373ffffffffffffffffffffffffffffffffffffffff1673ffffffffffffffffffffffffffffffffffffffff16815260200190815260200160002060009054906101000a900460ff16155b15611fcd57611fc8838383612684565b612091565b600460008473ffffffffffffffffffffffffffffffffffffffff1673ffffffffffffffffffffffffffffffffffffffff16815260200190815260200160002060009054906101000a900460ff16801561206f5750600460008373ffffffffffffffffffffffffffffffffffffffff1673ffffffffffffffffffffffffffffffffffffffff16815260200190815260200160002060009054906101000a900460ff165b156120845761207f838383612842565b612090565b61208f838383612684565b5b5b5b5b505050565b60008383111582906120e0576040517f08c379a00000000000000000000000000000000000000000000000000000000081526004016120d7919061337b565b60405180910390fd5b5082840390509392505050565b60008060006120fa612b2a565b91509150612111818361211890919063ffffffff16565b9250505090565b6000818361212691906135c5565b905092915050565b600080600061215a600661214c60648761211890919063ffffffff16565b612ea590919063ffffffff16565b905060006121718286611a8a90919063ffffffff16565b90508082935093505050915091565b6000806000806121998588612ea590919063ffffffff16565b905060006121b08688612ea590919063ffffffff16565b905060006121c78284611a8a90919063ffffffff16565b905082818395509550955050505093509350939050565b60008060008060006121ef86611a32565b9450945094509450945061224b86600260008b73ffffffffffffffffffffffffffffffffffffffff1673ffffffffffffffffffffffffffffffffffffffff16815260200190815260200160002054611a8a90919063ffffffff16565b600260008a73ffffffffffffffffffffffffffffffffffffffff1673ffffffffffffffffffffffffffffffffffffffff168152602001908152602001600020819055506122e085600160008b73ffffffffffffffffffffffffffffffffffffffff1673ffffffffffffffffffffffffffffffffffffffff16815260200190815260200160002054611a8a90919063ffffffff16565b600160008a73ffffffffffffffffffffffffffffffffffffffff1673ffffffffffffffffffffffffffffffffffffffff1681526020019081526020016000208190555061237584600160008a73ffffffffffffffffffffffffffffffffffffffff1673ffffffffffffffffffffffffffffffffffffffff16815260200190815260200160002054611aa090919063ffffffff16565b600160008973ffffffffffffffffffffffffffffffffffffffff1673ffffffffffffffffffffffffffffffffffffffff168152602001908152602001600020819055506123c28382612ebb565b8673ffffffffffffffffffffffffffffffffffffffff168873ffffffffffffffffffffffffffffffffffffffff167fddf252ad1be2c89b69c2b068fc378daa952ba7f163c4a11628f55a4df523b3ef8460405161241f919061351d565b60405180910390a35050505050505050565b600080600080600061244286611a32565b9450945094509450945061249e85600160008b73ffffffffffffffffffffffffffffffffffffffff1673ffffffffffffffffffffffffffffffffffffffff16815260200190815260200160002054611a8a90919063ffffffff16565b600160008a73ffffffffffffffffffffffffffffffffffffffff1673ffffffffffffffffffffffffffffffffffffffff1681526020019081526020016000208190555061253382600260008a73ffffffffffffffffffffffffffffffffffffffff1673ffffffffffffffffffffffffffffffffffffffff16815260200190815260200160002054611aa090919063ffffffff16565b600260008973ffffffffffffffffffffffffffffffffffffffff1673ffffffffffffffffffffffffffffffffffffffff168152602001908152602001600020819055506125c884600160008a73ffffffffffffffffffffffffffffffffffffffff1673ffffffffffffffffffffffffffffffffffffffff16815260200190815260200160002054611aa090919063ffffffff16565b600160008973ffffffffffffffffffffffffffffffffffffffff1673ffffffffffffffffffffffffffffffffffffffff168152602001908152602001600020819055506126158382612ebb565b8673ffffffffffffffffffffffffffffffffffffffff168873ffffffffffffffffffffffffffffffffffffffff167fddf252ad1be2c89b69c2b068fc378daa952ba7f163c4a11628f55a4df523b3ef84604051612672919061351d565b60405180910390a35050505050505050565b600080600080600061269586611a32565b945094509450945094506126f185600160008b73ffffffffffffffffffffffffffffffffffffffff1673ffffffffffffffffffffffffffffffffffffffff16815260200190815260200160002054611a8a90919063ffffffff16565b600160008a73ffffffffffffffffffffffffffffffffffffffff1673ffffffffffffffffffffffffffffffffffffffff1681526020019081526020016000208190555061278684600160008a73ffffffffffffffffffffffffffffffffffffffff1673ffffffffffffffffffffffffffffffffffffffff16815260200190815260200160002054611aa090919063ffffffff16565b600160008973ffffffffffffffffffffffffffffffffffffffff1673ffffffffffffffffffffffffffffffffffffffff168152602001908152602001600020819055506127d38382612ebb565b8673ffffffffffffffffffffffffffffffffffffffff168873ffffffffffffffffffffffffffffffffffffffff167fddf252ad1be2c89b69c2b068fc378daa952ba7f163c4a11628f55a4df523b3ef84604051612830919061351d565b60405180910390a35050505050505050565b600080600080600061285386611a32565b945094509450945094506128af86600260008b73ffffffffffffffffffffffffffffffffffffffff1673ffffffffffffffffffffffffffffffffffffffff16815260200190815260200160002054611a8a90919063ffffffff16565b600260008a73ffffffffffffffffffffffffffffffffffffffff1673ffffffffffffffffffffffffffffffffffffffff1681526020019081526020016000208190555061294485600160008b73ffffffffffffffffffffffffffffffffffffffff1673ffffffffffffffffffffffffffffffffffffffff16815260200190815260200160002054611a8a90919063ffffffff16565b600160008a73ffffffffffffffffffffffffffffffffffffffff1673ffffffffffffffffffffffffffffffffffffffff168152602001908152602001600020819055506129d982600260008a73ffffffffffffffffffffffffffffffffffffffff1673ffffffffffffffffffffffffffffffffffffffff16815260200190815260200160002054611aa090919063ffffffff16565b600260008973ffffffffffffffffffffffffffffffffffffffff1673ffffffffffffffffffffffffffffffffffffffff16815260200190815260200160002081905550612a6e84600160008a73ffffffffffffffffffffffffffffffffffffffff1673ffffffffffffffffffffffffffffffffffffffff16815260200190815260200160002054611aa090919063ffffffff16565b600160008973ffffffffffffffffffffffffffffffffffffffff1673ffffffffffffffffffffffffffffffffffffffff16815260200190815260200160002081905550612abb8382612ebb565b8673ffffffffffffffffffffffffffffffffffffffff168873ffffffffffffffffffffffffffffffffffffffff167fddf252ad1be2c89b69c2b068fc378daa952ba7f163c4a11628f55a4df523b3ef84604051612b18919061351d565b60405180910390a35050505050505050565b6000806000600654905060006d629b8c891b267182b61400000000905060005b600580549050811015612e5057826001600060058481548110612b96577f4e487b7100000000000000000000000000000000000000000000000000000000600052603260045260246000fd5b9060005260206000200160009054906101000a900473ffffffffffffffffffffffffffffffffffffffff1673ffffffffffffffffffffffffffffffffffffffff1673ffffffffffffffffffffffffffffffffffffffff168152602001908152602001600020541180612caa5750816002600060058481548110612c42577f4e487b7100000000000000000000000000000000000000000000000000000000600052603260045260246000fd5b9060005260206000200160009054906101000a900473ffffffffffffffffffffffffffffffffffffffff1673ffffffffffffffffffffffffffffffffffffffff1673ffffffffffffffffffffffffffffffffffffffff16815260200190815260200160002054115b15612ccd576006546d629b8c891b267182b6140000000094509450505050612ea1565b612d836001600060058481548110612d0e577f4e487b7100000000000000000000000000000000000000000000000000000000600052603260045260246000fd5b9060005260206000200160009054906101000a900473ffffffffffffffffffffffffffffffffffffffff1673ffffffffffffffffffffffffffffffffffffffff1673ffffffffffffffffffffffffffffffffffffffff1681526020019081526020016000205484611a8a90919063ffffffff16565b9250612e3b6002600060058481548110612dc6577f4e487b7100000000000000000000000000000000000000000000000000000000600052603260045260246000fd5b9060005260206000200160009054906101000a900473ffffffffffffffffffffffffffffffffffffffff1673ffffffffffffffffffffffffffffffffffffffff1673ffffffffffffffffffffffffffffffffffffffff1681526020019081526020016000205483611a8a90919063ffffffff16565b91508080612e489061373e565b915050612b4a565b50612e746d629b8c891b267182b6140000000060065461211890919063ffffffff16565b821015612e98576006546d629b8c891b267182b61400000000935093505050612ea1565b81819350935050505b9091565b60008183612eb391906135f6565b905092915050565b612ed082600654611a8a90919063ffffffff16565b600681905550612eeb81600754611aa090919063ffffffff16565b6007819055505050565b828054612f019061370c565b90600052602060002090601f016020900481019282612f235760008555612f6a565b82601f10612f3c57805160ff1916838001178555612f6a565b82800160010185558215612f6a579182015b82811115612f69578251825591602001919060010190612f4e565b5b509050612f779190612f7b565b5090565b5b80821115612f94576000816000905550600101612f7c565b5090565b600081359050612fa781613b98565b92915050565b600081359050612fbc81613baf565b92915050565b600081359050612fd181613bc6565b92915050565b600060208284031215612fe957600080fd5b6000612ff784828501612f98565b91505092915050565b6000806040838503121561301357600080fd5b600061302185828601612f98565b925050602061303285828601612f98565b9150509250929050565b60008060006060848603121561305157600080fd5b600061305f86828701612f98565b935050602061307086828701612f98565b925050604061308186828701612fc2565b9150509250925092565b6000806040838503121561309e57600080fd5b60006130ac85828601612f98565b92505060206130bd85828601612fc2565b9150509250929050565b6000602082840312156130d957600080fd5b60006130e784828501612fc2565b91505092915050565b6000806040838503121561310357600080fd5b600061311185828601612fc2565b925050602061312285828601612fad565b9150509250929050565b61313581613684565b82525050565b61314481613696565b82525050565b600061315582613553565b61315f818561355e565b935061316f8185602086016136d9565b61317881613845565b840191505092915050565b600061319060238361355e565b915061319b82613856565b604082019050919050565b60006131b3602a8361355e565b91506131be826138a5565b604082019050919050565b60006131d660268361355e565b91506131e1826138f4565b604082019050919050565b60006131f960228361355e565b915061320482613943565b604082019050919050565b600061321c601b8361355e565b915061322782613992565b602082019050919050565b600061323f601f8361355e565b915061324a826139bb565b602082019050919050565b6000613262602e8361355e565b915061326d826139e4565b604082019050919050565b600061328560208361355e565b915061329082613a33565b602082019050919050565b60006132a860298361355e565b91506132b382613a5c565b604082019050919050565b60006132cb60258361355e565b91506132d682613aab565b604082019050919050565b60006132ee60248361355e565b91506132f982613afa565b604082019050919050565b6000613311602c8361355e565b915061331c82613b49565b604082019050919050565b613330816136c2565b82525050565b61333f816136cc565b82525050565b600060208201905061335a600083018461312c565b92915050565b6000602082019050613375600083018461313b565b92915050565b60006020820190508181036000830152613395818461314a565b905092915050565b600060208201905081810360008301526133b681613183565b9050919050565b600060208201905081810360008301526133d6816131a6565b9050919050565b600060208201905081810360008301526133f6816131c9565b9050919050565b60006020820190508181036000830152613416816131ec565b9050919050565b600060208201905081810360008301526134368161320f565b9050919050565b6000602082019050818103600083015261345681613232565b9050919050565b6000602082019050818103600083015261347681613255565b9050919050565b6000602082019050818103600083015261349681613278565b9050919050565b600060208201905081810360008301526134b68161329b565b9050919050565b600060208201905081810360008301526134d6816132be565b9050919050565b600060208201905081810360008301526134f6816132e1565b9050919050565b6000602082019050818103600083015261351681613304565b9050919050565b60006020820190506135326000830184613327565b92915050565b600060208201905061354d6000830184613336565b92915050565b600081519050919050565b600082825260208201905092915050565b600061357a826136c2565b9150613585836136c2565b9250827fffffffffffffffffffffffffffffffffffffffffffffffffffffffffffffffff038211156135ba576135b96137b8565b5b828201905092915050565b60006135d0826136c2565b91506135db836136c2565b9250826135eb576135ea6137e7565b5b828204905092915050565b6000613601826136c2565b915061360c836136c2565b9250817fffffffffffffffffffffffffffffffffffffffffffffffffffffffffffffffff0483118215151615613645576136446137b8565b5b828202905092915050565b600061365b826136c2565b9150613666836136c2565b925082821015613679576136786137b8565b5b828203905092915050565b600061368f826136a2565b9050919050565b60008115159050919050565b600073ffffffffffffffffffffffffffffffffffffffff82169050919050565b6000819050919050565b600060ff82169050919050565b60005b838110156136f75780820151818401526020810190506136dc565b83811115613706576000848401525b50505050565b6000600282049050600182168061372457607f821691505b6020821081141561373857613737613816565b5b50919050565b6000613749826136c2565b91507fffffffffffffffffffffffffffffffffffffffffffffffffffffffffffffffff82141561377c5761377b6137b8565b5b600182019050919050565b6000613792826136c2565b915061379d836136c2565b9250826137ad576137ac6137e7565b5b828206905092915050565b7f4e487b7100000000000000000000000000000000000000000000000000000000600052601160045260246000fd5b7f4e487b7100000000000000000000000000000000000000000000000000000000600052601260045260246000fd5b7f4e487b7100000000000000000000000000000000000000000000000000000000600052602260045260246000fd5b6000601f19601f8301169050919050565b7f45524332303a207472616e7366657220746f20746865207a65726f206164647260008201527f6573730000000000000000000000000000000000000000000000000000000000602082015250565b7f416d6f756e74206d757374206265206c657373207468616e20746f74616c207260008201527f65666c656374696f6e7300000000000000000000000000000000000000000000602082015250565b7f4f776e61626c653a206e6577206f776e657220697320746865207a65726f206160008201527f6464726573730000000000000000000000000000000000000000000000000000602082015250565b7f45524332303a20617070726f766520746f20746865207a65726f20616464726560008201527f7373000000000000000000000000000000000000000000000000000000000000602082015250565b7f4163636f756e7420697320616c7265616479206578636c756465640000000000600082015250565b7f416d6f756e74206d757374206265206c657373207468616e20737570706c7900600082015250565b7f496e697469616c697a61626c653a20636f6e747261637420697320616c72656160008201527f647920696e697469616c697a6564000000000000000000000000000000000000602082015250565b7f4f776e61626c653a2063616c6c6572206973206e6f7420746865206f776e6572600082015250565b7f5472616e7366657220616d6f756e74206d75737420626520677265617465722060008201527f7468616e207a65726f0000000000000000000000000000000000000000000000602082015250565b7f45524332303a207472616e736665722066726f6d20746865207a65726f20616460008201527f6472657373000000000000000000000000000000000000000000000000000000602082015250565b7f45524332303a20617070726f76652066726f6d20746865207a65726f2061646460008201527f7265737300000000000000000000000000000000000000000000000000000000602082015250565b7f4578636c75646564206164647265737365732063616e6e6f742063616c6c207460008201527f6869732066756e6374696f6e0000000000000000000000000000000000000000602082015250565b613ba181613684565b8114613bac57600080fd5b50565b613bb881613696565b8114613bc357600080fd5b50565b613bcf816136c2565b8114613bda57600080fd5b5056fe45524332303a207472616e7366657220616d6f756e74206578636565647320616c6c6f77616e636545524332303a2064656372656173656420616c6c6f77616e63652062656c6f77207a65726fa264697066735822122074dd5f059030aa228e8df6c0a1a6168c97af181716953cf034ab52f226af40d764736f6c63430008040033",
  "immutableReferences": {},
  "source": "// SPDX-License-Identifier: MIT\r\npragma solidity ^0.8.0;\r\n\r\n\r\nimport \"./REFLECT2.sol\";\r\n\r\ncontract EMaxCoin2 is REFLECT2 {\r\n    \r\n\r\n}\r\n",
  "sourcePath": "C:\\Users\\epowl\\EMAX-Contracts\\contracts\\EMaxCoin2.sol",
  "compiler": {
    "name": "solc",
    "version": "0.8.4+commit.c7e474f2.Emscripten.clang"
  },
  "schemaVersion": "3.4.3",
  "updatedAt": "2021-11-15T21:32:51.292Z",
  "networkType": "ethereum",
  "devdoc": {
    "kind": "dev",
    "methods": {
      "allowance(address,address)": {
        "details": "Returns the remaining number of tokens that `spender` will be allowed to spend on behalf of `owner` through {transferFrom}. This is zero by default. This value changes when {approve} or {transferFrom} are called."
      },
      "approve(address,uint256)": {
        "details": "Sets `amount` as the allowance of `spender` over the caller's tokens. Returns a boolean value indicating whether the operation succeeded. IMPORTANT: Beware that changing an allowance with this method brings the risk that someone may use both the old and the new allowance by unfortunate transaction ordering. One possible solution to mitigate this race condition is to first reduce the spender's allowance to 0 and set the desired value afterwards: https://github.com/ethereum/EIPs/issues/20#issuecomment-263524729 Emits an {Approval} event."
      },
      "balanceOf(address)": {
        "details": "Returns the amount of tokens owned by `account`."
      },
      "owner()": {
        "details": "Returns the address of the current owner."
      },
      "ownerInitialize()": {
        "details": "Initializes the contract setting the deployer as the initial owner."
      },
      "renounceOwnership()": {
        "details": "Leaves the contract without owner. It will not be possible to call `onlyOwner` functions anymore. Can only be called by the current owner. NOTE: Renouncing ownership will leave the contract without an owner, thereby removing any functionality that is only available to the owner."
      },
      "totalSupply()": {
        "details": "Returns the amount of tokens in existence."
      },
      "transfer(address,uint256)": {
        "details": "Moves `amount` tokens from the caller's account to `recipient`. Returns a boolean value indicating whether the operation succeeded. Emits a {Transfer} event."
      },
      "transferFrom(address,address,uint256)": {
        "details": "Moves `amount` tokens from `sender` to `recipient` using the allowance mechanism. `amount` is then deducted from the caller's allowance. Returns a boolean value indicating whether the operation succeeded. Emits a {Transfer} event."
      },
      "transferOwnership(address)": {
        "details": "Transfers ownership of the contract to a new account (`newOwner`). Can only be called by the current owner."
      }
    },
    "version": 1
  },
  "userdoc": {
    "kind": "user",
    "methods": {},
    "version": 1
  }
}