{
  "contractName": "EMaxCoin4",
  "abi": [
    {
      "anonymous": false,
      "inputs": [
        {
          "indexed": true,
          "internalType": "address",
          "name": "owner",
          "type": "address"
        },
        {
          "indexed": true,
          "internalType": "address",
          "name": "spender",
          "type": "address"
        },
        {
          "indexed": false,
          "internalType": "uint256",
          "name": "value",
          "type": "uint256"
        }
      ],
      "name": "Approval",
      "type": "event"
    },
    {
      "anonymous": false,
      "inputs": [
        {
          "indexed": true,
          "internalType": "address",
          "name": "previousOwner",
          "type": "address"
        },
        {
          "indexed": true,
          "internalType": "address",
          "name": "newOwner",
          "type": "address"
        }
      ],
      "name": "OwnershipTransferred",
      "type": "event"
    },
    {
      "anonymous": false,
      "inputs": [
        {
          "indexed": true,
          "internalType": "address",
          "name": "from",
          "type": "address"
        },
        {
          "indexed": true,
          "internalType": "address",
          "name": "to",
          "type": "address"
        },
        {
          "indexed": false,
          "internalType": "uint256",
          "name": "value",
          "type": "uint256"
        }
      ],
      "name": "Transfer",
      "type": "event"
    },
    {
      "inputs": [],
      "name": "EMAXEvents",
      "outputs": [
        {
          "internalType": "address",
          "name": "",
          "type": "address"
        }
      ],
      "stateMutability": "view",
      "type": "function",
      "constant": true
    },
    {
      "inputs": [],
      "name": "EMAXExpense",
      "outputs": [
        {
          "internalType": "address",
          "name": "",
          "type": "address"
        }
      ],
      "stateMutability": "view",
      "type": "function",
      "constant": true
    },
    {
      "inputs": [],
      "name": "EMAXExpenseOld",
      "outputs": [
        {
          "internalType": "address",
          "name": "",
          "type": "address"
        }
      ],
      "stateMutability": "view",
      "type": "function",
      "constant": true
    },
    {
      "inputs": [],
      "name": "EMAXTreasury",
      "outputs": [
        {
          "internalType": "address",
          "name": "",
          "type": "address"
        }
      ],
      "stateMutability": "view",
      "type": "function",
      "constant": true
    },
    {
      "inputs": [
        {
          "internalType": "address",
          "name": "owner",
          "type": "address"
        },
        {
          "internalType": "address",
          "name": "spender",
          "type": "address"
        }
      ],
      "name": "allowance",
      "outputs": [
        {
          "internalType": "uint256",
          "name": "",
          "type": "uint256"
        }
      ],
      "stateMutability": "view",
      "type": "function",
      "constant": true
    },
    {
      "inputs": [
        {
          "internalType": "address",
          "name": "spender",
          "type": "address"
        },
        {
          "internalType": "uint256",
          "name": "amount",
          "type": "uint256"
        }
      ],
      "name": "approve",
      "outputs": [
        {
          "internalType": "bool",
          "name": "",
          "type": "bool"
        }
      ],
      "stateMutability": "nonpayable",
      "type": "function"
    },
    {
      "inputs": [
        {
          "internalType": "address",
          "name": "account",
          "type": "address"
        }
      ],
      "name": "balanceOf",
      "outputs": [
        {
          "internalType": "uint256",
          "name": "",
          "type": "uint256"
        }
      ],
      "stateMutability": "view",
      "type": "function",
      "constant": true
    },
    {
      "inputs": [],
      "name": "bitforex",
      "outputs": [
        {
          "internalType": "address",
          "name": "",
          "type": "address"
        }
      ],
      "stateMutability": "view",
      "type": "function",
      "constant": true
    },
    {
      "inputs": [],
      "name": "decimals",
      "outputs": [
        {
          "internalType": "uint8",
          "name": "",
          "type": "uint8"
        }
      ],
      "stateMutability": "view",
      "type": "function",
      "constant": true
    },
    {
      "inputs": [
        {
          "internalType": "address",
          "name": "spender",
          "type": "address"
        },
        {
          "internalType": "uint256",
          "name": "subtractedValue",
          "type": "uint256"
        }
      ],
      "name": "decreaseAllowance",
      "outputs": [
        {
          "internalType": "bool",
          "name": "",
          "type": "bool"
        }
      ],
      "stateMutability": "nonpayable",
      "type": "function"
    },
    {
      "inputs": [
        {
          "internalType": "address",
          "name": "account",
          "type": "address"
        }
      ],
      "name": "excludeAccount",
      "outputs": [],
      "stateMutability": "nonpayable",
      "type": "function"
    },
    {
      "inputs": [
        {
          "internalType": "address",
          "name": "account",
          "type": "address"
        }
      ],
      "name": "includeAccount",
      "outputs": [],
      "stateMutability": "nonpayable",
      "type": "function"
    },
    {
      "inputs": [
        {
          "internalType": "address",
          "name": "spender",
          "type": "address"
        },
        {
          "internalType": "uint256",
          "name": "addedValue",
          "type": "uint256"
        }
      ],
      "name": "increaseAllowance",
      "outputs": [
        {
          "internalType": "bool",
          "name": "",
          "type": "bool"
        }
      ],
      "stateMutability": "nonpayable",
      "type": "function"
    },
    {
      "inputs": [],
      "name": "initialize",
      "outputs": [],
      "stateMutability": "nonpayable",
      "type": "function"
    },
    {
      "inputs": [
        {
          "internalType": "address",
          "name": "account",
          "type": "address"
        }
      ],
      "name": "isExcluded",
      "outputs": [
        {
          "internalType": "bool",
          "name": "",
          "type": "bool"
        }
      ],
      "stateMutability": "view",
      "type": "function",
      "constant": true
    },
    {
      "inputs": [],
      "name": "name",
      "outputs": [
        {
          "internalType": "string",
          "name": "",
          "type": "string"
        }
      ],
      "stateMutability": "view",
      "type": "function",
      "constant": true
    },
    {
      "inputs": [],
      "name": "owner",
      "outputs": [
        {
          "internalType": "address",
          "name": "",
          "type": "address"
        }
      ],
      "stateMutability": "view",
      "type": "function",
      "constant": true
    },
    {
      "inputs": [],
      "name": "ownerInitialize",
      "outputs": [],
      "stateMutability": "nonpayable",
      "type": "function"
    },
    {
      "inputs": [
        {
          "internalType": "uint256",
          "name": "tAmount",
          "type": "uint256"
        }
      ],
      "name": "reflect",
      "outputs": [],
      "stateMutability": "nonpayable",
      "type": "function"
    },
    {
      "inputs": [
        {
          "internalType": "uint256",
          "name": "tAmount",
          "type": "uint256"
        },
        {
          "internalType": "bool",
          "name": "deductTransferFee",
          "type": "bool"
        }
      ],
      "name": "reflectionFromToken",
      "outputs": [
        {
          "internalType": "uint256",
          "name": "",
          "type": "uint256"
        }
      ],
      "stateMutability": "view",
      "type": "function",
      "constant": true
    },
    {
      "inputs": [],
      "name": "renounceOwnership",
      "outputs": [],
      "stateMutability": "nonpayable",
      "type": "function"
    },
    {
      "inputs": [],
      "name": "symbol",
      "outputs": [
        {
          "internalType": "string",
          "name": "",
          "type": "string"
        }
      ],
      "stateMutability": "view",
      "type": "function",
      "constant": true
    },
    {
      "inputs": [
        {
          "internalType": "uint256",
          "name": "rAmount",
          "type": "uint256"
        }
      ],
      "name": "tokenFromReflection",
      "outputs": [
        {
          "internalType": "uint256",
          "name": "",
          "type": "uint256"
        }
      ],
      "stateMutability": "view",
      "type": "function",
      "constant": true
    },
    {
      "inputs": [],
      "name": "totalFees",
      "outputs": [
        {
          "internalType": "uint256",
          "name": "",
          "type": "uint256"
        }
      ],
      "stateMutability": "view",
      "type": "function",
      "constant": true
    },
    {
      "inputs": [],
      "name": "totalSupply",
      "outputs": [
        {
          "internalType": "uint256",
          "name": "",
          "type": "uint256"
        }
      ],
      "stateMutability": "pure",
      "type": "function",
      "constant": true
    },
    {
      "inputs": [
        {
          "internalType": "address",
          "name": "recipient",
          "type": "address"
        },
        {
          "internalType": "uint256",
          "name": "amount",
          "type": "uint256"
        }
      ],
      "name": "transfer",
      "outputs": [
        {
          "internalType": "bool",
          "name": "",
          "type": "bool"
        }
      ],
      "stateMutability": "nonpayable",
      "type": "function"
    },
    {
      "inputs": [
        {
          "internalType": "address",
          "name": "sender",
          "type": "address"
        },
        {
          "internalType": "address",
          "name": "recipient",
          "type": "address"
        },
        {
          "internalType": "uint256",
          "name": "amount",
          "type": "uint256"
        }
      ],
      "name": "transferFrom",
      "outputs": [
        {
          "internalType": "bool",
          "name": "",
          "type": "bool"
        }
      ],
      "stateMutability": "nonpayable",
      "type": "function"
    },
    {
      "inputs": [
        {
          "internalType": "address",
          "name": "newOwner",
          "type": "address"
        }
      ],
      "name": "transferOwnership",
      "outputs": [],
      "stateMutability": "nonpayable",
      "type": "function"
    },
    {
      "inputs": [
        {
          "internalType": "address",
          "name": "",
          "type": "address"
        }
      ],
      "name": "whitelist",
      "outputs": [
        {
          "internalType": "bool",
          "name": "",
          "type": "bool"
        }
      ],
      "stateMutability": "view",
      "type": "function",
      "constant": true
    }
  ],
  "bytecode": "0x608060405234801561001057600080fd5b50613ae9806100206000396000f3fe608060405234801561001057600080fd5b50600436106101cf5760003560e01c8063715018a611610104578063a457c2d7116100a2578063dd62ed3e11610071578063dd62ed3e14610538578063f2cc0c1814610568578063f2fde38b14610584578063f84354f1146105a0576101cf565b8063a457c2d71461048a578063a9059cbb146104ba578063cba0e996146104ea578063dab506ba1461051a576101cf565b80638da5cb5b116100de5780638da5cb5b1461040057806395b12b2c1461041e57806395d89b411461043c5780639b19251a1461045a576101cf565b8063715018a6146103ce5780638129fc1c146103d85780638a389689146103e2576101cf565b80632d83811911610171578063395093511161014b57806339509351146103205780634549b039146103505780635e18d9721461038057806370a082311461039e576101cf565b80632d838119146102b4578063313ce567146102e45780633513eada14610302576101cf565b806313114a9d116101ad57806313114a9d1461023e57806318160ddd1461025c5780631b4e8cc21461027a57806323b872dd14610284576101cf565b8063053ab182146101d457806306fdde03146101f0578063095ea7b31461020e575b600080fd5b6101ee60048036038101906101e99190612f50565b6105bc565b005b6101f8610737565b6040516102059190613204565b60405180910390f35b61022860048036038101906102239190612f14565b6107c9565b60405161023591906131e9565b60405180910390f35b6102466107e7565b60405161025391906133a6565b60405180910390f35b6102646107f1565b60405161027191906133a6565b60405180910390f35b610282610807565b005b61029e60048036038101906102999190612ec5565b610989565b6040516102ab91906131e9565b60405180910390f35b6102ce60048036038101906102c99190612f50565b610a62565b6040516102db91906133a6565b60405180910390f35b6102ec610ad0565b6040516102f991906133c1565b60405180910390f35b61030a610ae7565b60405161031791906131ce565b60405180910390f35b61033a60048036038101906103359190612f14565b610aff565b60405161034791906131e9565b60405180910390f35b61036a60048036038101906103659190612f79565b610bb2565b60405161037791906133a6565b60405180910390f35b610388610c42565b60405161039591906131ce565b60405180910390f35b6103b860048036038101906103b39190612e60565b610c5a565b6040516103c591906133a6565b60405180910390f35b6103d6610d45565b005b6103e0610e81565b005b6103ea61110d565b6040516103f791906131ce565b60405180910390f35b610408611125565b60405161041591906131ce565b60405180910390f35b61042661114e565b60405161043391906131ce565b60405180910390f35b610444611166565b6040516104519190613204565b60405180910390f35b610474600480360381019061046f9190612e60565b6111f8565b60405161048191906131e9565b60405180910390f35b6104a4600480360381019061049f9190612f14565b611218565b6040516104b191906131e9565b60405180910390f35b6104d460048036038101906104cf9190612f14565b6112e5565b6040516104e191906131e9565b60405180910390f35b61050460048036038101906104ff9190612e60565b611303565b60405161051191906131e9565b60405180910390f35b610522611359565b60405161052f91906131ce565b60405180910390f35b610552600480360381019061054d9190612e89565b611371565b60405161055f91906133a6565b60405180910390f35b610582600480360381019061057d9190612e60565b6113f8565b005b61059e60048036038101906105999190612e60565b611693565b005b6105ba60048036038101906105b59190612e60565b61183f565b005b60006105c6611c0d565b9050600460008273ffffffffffffffffffffffffffffffffffffffff1673ffffffffffffffffffffffffffffffffffffffff16815260200190815260200160002060009054906101000a900460ff1615610655576040517f08c379a000000000000000000000000000000000000000000000000000000000815260040161064c90613386565b60405180910390fd5b6000610662836006611c15565b50505090506106b981600160008573ffffffffffffffffffffffffffffffffffffffff1673ffffffffffffffffffffffffffffffffffffffff16815260200190815260200160002054611cc890919063ffffffff16565b600160008473ffffffffffffffffffffffffffffffffffffffff1673ffffffffffffffffffffffffffffffffffffffff1681526020019081526020016000208190555061071181600654611cc890919063ffffffff16565b60068190555061072c83600754611cde90919063ffffffff16565b600781905550505050565b60606008805461074690613595565b80601f016020809104026020016040519081016040528092919081815260200182805461077290613595565b80156107bf5780601f10610794576101008083540402835291602001916107bf565b820191906000526020600020905b8154815290600101906020018083116107a257829003601f168201915b5050505050905090565b60006107dd6107d6611c0d565b8484611cf4565b6001905092915050565b6000600754905090565b60006d629b8c891b267182b61400000000905090565b600060019054906101000a900460ff168061082d575060008054906101000a900460ff16155b61086c576040517f08c379a0000000000000000000000000000000000000000000000000000000008152600401610863906132e6565b60405180910390fd5b60008060019054906101000a900460ff1615905080156108bc576001600060016101000a81548160ff02191690831515021790555060016000806101000a81548160ff0219169083151502179055505b60006108c6611c0d565b905080600060026101000a81548173ffffffffffffffffffffffffffffffffffffffff021916908373ffffffffffffffffffffffffffffffffffffffff1602179055508073ffffffffffffffffffffffffffffffffffffffff16600073ffffffffffffffffffffffffffffffffffffffff167f8be0079c531659141344cd1fd0a4f28419497f9722a3daafe3b4186f6b6457e060405160405180910390a35080156109865760008060016101000a81548160ff0219169083151502179055505b50565b6000610996848484611ebf565b610a57846109a2611c0d565b610a5285604051806060016040528060288152602001613a6760289139600360008b73ffffffffffffffffffffffffffffffffffffffff1673ffffffffffffffffffffffffffffffffffffffff1681526020019081526020016000206000610a08611c0d565b73ffffffffffffffffffffffffffffffffffffffff1673ffffffffffffffffffffffffffffffffffffffff168152602001908152602001600020546127079092919063ffffffff16565b611cf4565b600190509392505050565b6000600654821115610aa9576040517f08c379a0000000000000000000000000000000000000000000000000000000008152600401610aa090613246565b60405180910390fd5b6000610ab361275c565b9050610ac8818461278790919063ffffffff16565b915050919050565b6000600a60009054906101000a900460ff16905090565b73331626d097cc466f6544257c2dc18f60f638241481565b6000610ba8610b0c611c0d565b84610ba38560036000610b1d611c0d565b73ffffffffffffffffffffffffffffffffffffffff1673ffffffffffffffffffffffffffffffffffffffff16815260200190815260200160002060008973ffffffffffffffffffffffffffffffffffffffff1673ffffffffffffffffffffffffffffffffffffffff16815260200190815260200160002054611cde90919063ffffffff16565b611cf4565b6001905092915050565b60006d629b8c891b267182b61400000000831115610c05576040517f08c379a0000000000000000000000000000000000000000000000000000000008152600401610bfc906132c6565b60405180910390fd5b81610c25576000610c17846006611c15565b505050905080915050610c3c565b6000610c32846006611c15565b5050915050809150505b92915050565b7380df68fa5275d0e1ee83aa4160f0b82033597f5181565b6000600460008373ffffffffffffffffffffffffffffffffffffffff1673ffffffffffffffffffffffffffffffffffffffff16815260200190815260200160002060009054906101000a900460ff1615610cf557600260008373ffffffffffffffffffffffffffffffffffffffff1673ffffffffffffffffffffffffffffffffffffffff168152602001908152602001600020549050610d40565b610d3d600160008473ffffffffffffffffffffffffffffffffffffffff1673ffffffffffffffffffffffffffffffffffffffff16815260200190815260200160002054610a62565b90505b919050565b610d4d611c0d565b73ffffffffffffffffffffffffffffffffffffffff16610d6b611125565b73ffffffffffffffffffffffffffffffffffffffff1614610dc1576040517f08c379a0000000000000000000000000000000000000000000000000000000008152600401610db890613306565b60405180910390fd5b600073ffffffffffffffffffffffffffffffffffffffff16600060029054906101000a900473ffffffffffffffffffffffffffffffffffffffff1673ffffffffffffffffffffffffffffffffffffffff167f8be0079c531659141344cd1fd0a4f28419497f9722a3daafe3b4186f6b6457e060405160405180910390a360008060026101000a81548173ffffffffffffffffffffffffffffffffffffffff021916908373ffffffffffffffffffffffffffffffffffffffff160217905550565b600060019054906101000a900460ff1680610ea7575060008054906101000a900460ff16155b610ee6576040517f08c379a0000000000000000000000000000000000000000000000000000000008152600401610edd906132e6565b60405180910390fd5b60008060019054906101000a900460ff161590508015610f36576001600060016101000a81548160ff02191690831515021790555060016000806101000a81548160ff0219169083151502179055505b610f3e610807565b6d629b8c891b267182b61400000000600019610f5a9190613610565b600019610f6791906134d9565b6006819055506040518060400160405280600b81526020017f457468657265756d4d617800000000000000000000000000000000000000000081525060089080519060200190610fb8929190612d7e565b506040518060400160405280600481526020017f654d61780000000000000000000000000000000000000000000000000000000081525060099080519060200190611004929190612d7e565b506012600a60006101000a81548160ff021916908360ff16021790555060065460016000611030611c0d565b73ffffffffffffffffffffffffffffffffffffffff1673ffffffffffffffffffffffffffffffffffffffff16815260200190815260200160002081905550611076611c0d565b73ffffffffffffffffffffffffffffffffffffffff16600073ffffffffffffffffffffffffffffffffffffffff167fddf252ad1be2c89b69c2b068fc378daa952ba7f163c4a11628f55a4df523b3ef6d629b8c891b267182b614000000006040516110e191906133a6565b60405180910390a3801561110a5760008060016101000a81548160ff0219169083151502179055505b50565b7387ba6c0b3e06d4b9ae4e5c5752d8e94aee13547081565b60008060029054906101000a900473ffffffffffffffffffffffffffffffffffffffff16905090565b73d81d665edeee5762fcbc4802520910ed509da22a81565b60606009805461117590613595565b80601f01602080910402602001604051908101604052809291908181526020018280546111a190613595565b80156111ee5780601f106111c3576101008083540402835291602001916111ee565b820191906000526020600020905b8154815290600101906020018083116111d157829003601f168201915b5050505050905090565b600c6020528060005260406000206000915054906101000a900460ff1681565b60006112db611225611c0d565b846112d685604051806060016040528060258152602001613a8f602591396003600061124f611c0d565b73ffffffffffffffffffffffffffffffffffffffff1673ffffffffffffffffffffffffffffffffffffffff16815260200190815260200160002060008a73ffffffffffffffffffffffffffffffffffffffff1673ffffffffffffffffffffffffffffffffffffffff168152602001908152602001600020546127079092919063ffffffff16565b611cf4565b6001905092915050565b60006112f96112f2611c0d565b8484611ebf565b6001905092915050565b6000600460008373ffffffffffffffffffffffffffffffffffffffff1673ffffffffffffffffffffffffffffffffffffffff16815260200190815260200160002060009054906101000a900460ff169050919050565b735ea06a2be857d35d5e545b2bf54b2d387bb8b4ba81565b6000600360008473ffffffffffffffffffffffffffffffffffffffff1673ffffffffffffffffffffffffffffffffffffffff16815260200190815260200160002060008373ffffffffffffffffffffffffffffffffffffffff1673ffffffffffffffffffffffffffffffffffffffff16815260200190815260200160002054905092915050565b611400611c0d565b73ffffffffffffffffffffffffffffffffffffffff1661141e611125565b73ffffffffffffffffffffffffffffffffffffffff1614611474576040517f08c379a000000000000000000000000000000000000000000000000000000000815260040161146b90613306565b60405180910390fd5b600460008273ffffffffffffffffffffffffffffffffffffffff1673ffffffffffffffffffffffffffffffffffffffff16815260200190815260200160002060009054906101000a900460ff1615611501576040517f08c379a00000000000000000000000000000000000000000000000000000000081526004016114f8906132a6565b60405180910390fd5b6000600160008373ffffffffffffffffffffffffffffffffffffffff1673ffffffffffffffffffffffffffffffffffffffff1681526020019081526020016000205411156115d557611591600160008373ffffffffffffffffffffffffffffffffffffffff1673ffffffffffffffffffffffffffffffffffffffff16815260200190815260200160002054610a62565b600260008373ffffffffffffffffffffffffffffffffffffffff1673ffffffffffffffffffffffffffffffffffffffff168152602001908152602001600020819055505b6001600460008373ffffffffffffffffffffffffffffffffffffffff1673ffffffffffffffffffffffffffffffffffffffff16815260200190815260200160002060006101000a81548160ff0219169083151502179055506005819080600181540180825580915050600190039060005260206000200160009091909190916101000a81548173ffffffffffffffffffffffffffffffffffffffff021916908373ffffffffffffffffffffffffffffffffffffffff16021790555050565b61169b611c0d565b73ffffffffffffffffffffffffffffffffffffffff166116b9611125565b73ffffffffffffffffffffffffffffffffffffffff161461170f576040517f08c379a000000000000000000000000000000000000000000000000000000000815260040161170690613306565b60405180910390fd5b600073ffffffffffffffffffffffffffffffffffffffff168173ffffffffffffffffffffffffffffffffffffffff16141561177f576040517f08c379a000000000000000000000000000000000000000000000000000000000815260040161177690613266565b60405180910390fd5b8073ffffffffffffffffffffffffffffffffffffffff16600060029054906101000a900473ffffffffffffffffffffffffffffffffffffffff1673ffffffffffffffffffffffffffffffffffffffff167f8be0079c531659141344cd1fd0a4f28419497f9722a3daafe3b4186f6b6457e060405160405180910390a380600060026101000a81548173ffffffffffffffffffffffffffffffffffffffff021916908373ffffffffffffffffffffffffffffffffffffffff16021790555050565b611847611c0d565b73ffffffffffffffffffffffffffffffffffffffff16611865611125565b73ffffffffffffffffffffffffffffffffffffffff16146118bb576040517f08c379a00000000000000000000000000000000000000000000000000000000081526004016118b290613306565b60405180910390fd5b600460008273ffffffffffffffffffffffffffffffffffffffff1673ffffffffffffffffffffffffffffffffffffffff16815260200190815260200160002060009054906101000a900460ff16611947576040517f08c379a000000000000000000000000000000000000000000000000000000000815260040161193e906132a6565b60405180910390fd5b60005b600580549050811015611c09578173ffffffffffffffffffffffffffffffffffffffff16600582815481106119a8577f4e487b7100000000000000000000000000000000000000000000000000000000600052603260045260246000fd5b9060005260206000200160009054906101000a900473ffffffffffffffffffffffffffffffffffffffff1673ffffffffffffffffffffffffffffffffffffffff161415611bf65760056001600580549050611a0391906134d9565b81548110611a3a577f4e487b7100000000000000000000000000000000000000000000000000000000600052603260045260246000fd5b9060005260206000200160009054906101000a900473ffffffffffffffffffffffffffffffffffffffff1660058281548110611a9f577f4e487b7100000000000000000000000000000000000000000000000000000000600052603260045260246000fd5b9060005260206000200160006101000a81548173ffffffffffffffffffffffffffffffffffffffff021916908373ffffffffffffffffffffffffffffffffffffffff1602179055506000600260008473ffffffffffffffffffffffffffffffffffffffff1673ffffffffffffffffffffffffffffffffffffffff168152602001908152602001600020819055506000600460008473ffffffffffffffffffffffffffffffffffffffff1673ffffffffffffffffffffffffffffffffffffffff16815260200190815260200160002060006101000a81548160ff0219169083151502179055506005805480611bbc577f4e487b7100000000000000000000000000000000000000000000000000000000600052603160045260246000fd5b6001900381819060005260206000200160006101000a81549073ffffffffffffffffffffffffffffffffffffffff02191690559055611c09565b8080611c01906135c7565b91505061194a565b5050565b600033905090565b6000806000806000611c2561275c565b90506000611c4f6064611c41898b61279d90919063ffffffff16565b61278790919063ffffffff16565b90506000611c66828a611cc890919063ffffffff16565b90506000611c7d848b61279d90919063ffffffff16565b90506000611c94858561279d90919063ffffffff16565b90506000611cab8284611cc890919063ffffffff16565b905082818588995099509950995050505050505092959194509250565b60008183611cd691906134d9565b905092915050565b60008183611cec91906133f8565b905092915050565b600073ffffffffffffffffffffffffffffffffffffffff168373ffffffffffffffffffffffffffffffffffffffff161415611d64576040517f08c379a0000000000000000000000000000000000000000000000000000000008152600401611d5b90613366565b60405180910390fd5b600073ffffffffffffffffffffffffffffffffffffffff168273ffffffffffffffffffffffffffffffffffffffff161415611dd4576040517f08c379a0000000000000000000000000000000000000000000000000000000008152600401611dcb90613286565b60405180910390fd5b80600360008573ffffffffffffffffffffffffffffffffffffffff1673ffffffffffffffffffffffffffffffffffffffff16815260200190815260200160002060008473ffffffffffffffffffffffffffffffffffffffff1673ffffffffffffffffffffffffffffffffffffffff168152602001908152602001600020819055508173ffffffffffffffffffffffffffffffffffffffff168373ffffffffffffffffffffffffffffffffffffffff167f8c5be1e5ebec7d5bd14f71427d1e84f3dd0314c0f7b2291e5b200ac8c7c3b92583604051611eb291906133a6565b60405180910390a3505050565b600073ffffffffffffffffffffffffffffffffffffffff168373ffffffffffffffffffffffffffffffffffffffff161415611f2f576040517f08c379a0000000000000000000000000000000000000000000000000000000008152600401611f2690613346565b60405180910390fd5b600073ffffffffffffffffffffffffffffffffffffffff168273ffffffffffffffffffffffffffffffffffffffff161415611f9f576040517f08c379a0000000000000000000000000000000000000000000000000000000008152600401611f9690613226565b60405180910390fd5b60008111611fe2576040517f08c379a0000000000000000000000000000000000000000000000000000000008152600401611fd990613326565b60405180910390fd5b60006006905060006003905073d81d665edeee5762fcbc4802520910ed509da22a73ffffffffffffffffffffffffffffffffffffffff168573ffffffffffffffffffffffffffffffffffffffff16148061207b575073d81d665edeee5762fcbc4802520910ed509da22a73ffffffffffffffffffffffffffffffffffffffff168473ffffffffffffffffffffffffffffffffffffffff16145b806120c5575073331626d097cc466f6544257c2dc18f60f638241473ffffffffffffffffffffffffffffffffffffffff168573ffffffffffffffffffffffffffffffffffffffff16145b8061210f575073331626d097cc466f6544257c2dc18f60f638241473ffffffffffffffffffffffffffffffffffffffff168473ffffffffffffffffffffffffffffffffffffffff16145b8061215957507387ba6c0b3e06d4b9ae4e5c5752d8e94aee13547073ffffffffffffffffffffffffffffffffffffffff168573ffffffffffffffffffffffffffffffffffffffff16145b806121a357507387ba6c0b3e06d4b9ae4e5c5752d8e94aee13547073ffffffffffffffffffffffffffffffffffffffff168473ffffffffffffffffffffffffffffffffffffffff16145b806121ed5750735ea06a2be857d35d5e545b2bf54b2d387bb8b4ba73ffffffffffffffffffffffffffffffffffffffff168573ffffffffffffffffffffffffffffffffffffffff16145b806122375750735ea06a2be857d35d5e545b2bf54b2d387bb8b4ba73ffffffffffffffffffffffffffffffffffffffff168473ffffffffffffffffffffffffffffffffffffffff16145b8061228157507380df68fa5275d0e1ee83aa4160f0b82033597f5173ffffffffffffffffffffffffffffffffffffffff168573ffffffffffffffffffffffffffffffffffffffff16145b806122cb57507380df68fa5275d0e1ee83aa4160f0b82033597f5173ffffffffffffffffffffffffffffffffffffffff168473ffffffffffffffffffffffffffffffffffffffff16145b156122d95760009150600090505b600081836122e791906133f8565b90506000806000806122f98886611c15565b935093509350935061235384600160008d73ffffffffffffffffffffffffffffffffffffffff1673ffffffffffffffffffffffffffffffffffffffff16815260200190815260200160002054611cc890919063ffffffff16565b600160008c73ffffffffffffffffffffffffffffffffffffffff1673ffffffffffffffffffffffffffffffffffffffff168152602001908152602001600020819055506123e883600160008c73ffffffffffffffffffffffffffffffffffffffff1673ffffffffffffffffffffffffffffffffffffffff16815260200190815260200160002054611cde90919063ffffffff16565b600160008b73ffffffffffffffffffffffffffffffffffffffff1673ffffffffffffffffffffffffffffffffffffffff16815260200190815260200160002081905550600460008b73ffffffffffffffffffffffffffffffffffffffff1673ffffffffffffffffffffffffffffffffffffffff16815260200190815260200160002060009054906101000a900460ff1615612513576124cf88600260008d73ffffffffffffffffffffffffffffffffffffffff1673ffffffffffffffffffffffffffffffffffffffff16815260200190815260200160002054611cc890919063ffffffff16565b600260008c73ffffffffffffffffffffffffffffffffffffffff1673ffffffffffffffffffffffffffffffffffffffff168152602001908152602001600020819055505b600460008a73ffffffffffffffffffffffffffffffffffffffff1673ffffffffffffffffffffffffffffffffffffffff16815260200190815260200160002060009054906101000a900460ff16156125fb576125b782600260008c73ffffffffffffffffffffffffffffffffffffffff1673ffffffffffffffffffffffffffffffffffffffff16815260200190815260200160002054611cde90919063ffffffff16565b600260008b73ffffffffffffffffffffffffffffffffffffffff1673ffffffffffffffffffffffffffffffffffffffff168152602001908152602001600020819055505b600061262360646126158a8c61279d90919063ffffffff16565b61278790919063ffffffff16565b9050600061263a838361279d90919063ffffffff16565b905061264681836127b3565b8a73ffffffffffffffffffffffffffffffffffffffff168c73ffffffffffffffffffffffffffffffffffffffff167fddf252ad1be2c89b69c2b068fc378daa952ba7f163c4a11628f55a4df523b3ef866040516126a391906133a6565b60405180910390a360006126d360646126c58b8e61279d90919063ffffffff16565b61278790919063ffffffff16565b905060006126ea858361279d90919063ffffffff16565b90506126f78e83836127ed565b5050505050505050505050505050565b600083831115829061274f576040517f08c379a00000000000000000000000000000000000000000000000000000000081526004016127469190613204565b60405180910390fd5b5082840390509392505050565b60008060006127696129fb565b91509150612780818361278790919063ffffffff16565b9250505090565b60008183612795919061344e565b905092915050565b600081836127ab919061347f565b905092915050565b6127c882600654611cc890919063ffffffff16565b6006819055506127e381600754611cde90919063ffffffff16565b6007819055505050565b612841816001600061dead73ffffffffffffffffffffffffffffffffffffffff1673ffffffffffffffffffffffffffffffffffffffff16815260200190815260200160002054611cde90919063ffffffff16565b6001600061dead73ffffffffffffffffffffffffffffffffffffffff1673ffffffffffffffffffffffffffffffffffffffff168152602001908152602001600020819055506004600061dead73ffffffffffffffffffffffffffffffffffffffff1673ffffffffffffffffffffffffffffffffffffffff16815260200190815260200160002060009054906101000a900460ff16156129745761292e826002600061dead73ffffffffffffffffffffffffffffffffffffffff1673ffffffffffffffffffffffffffffffffffffffff16815260200190815260200160002054611cde90919063ffffffff16565b6002600061dead73ffffffffffffffffffffffffffffffffffffffff1673ffffffffffffffffffffffffffffffffffffffff168152602001908152602001600020819055505b61dead73ffffffffffffffffffffffffffffffffffffffff168373ffffffffffffffffffffffffffffffffffffffff167fddf252ad1be2c89b69c2b068fc378daa952ba7f163c4a11628f55a4df523b3ef846040516129d391906133a6565b60405180910390a36129f082600b54611cde90919063ffffffff16565b600b81905550505050565b6000806000600654905060006d629b8c891b267182b6140000000090506000600580549050905060005b81811015612d2757836001600060058481548110612a6c577f4e487b7100000000000000000000000000000000000000000000000000000000600052603260045260246000fd5b9060005260206000200160009054906101000a900473ffffffffffffffffffffffffffffffffffffffff1673ffffffffffffffffffffffffffffffffffffffff1673ffffffffffffffffffffffffffffffffffffffff168152602001908152602001600020541180612b805750826002600060058481548110612b18577f4e487b7100000000000000000000000000000000000000000000000000000000600052603260045260246000fd5b9060005260206000200160009054906101000a900473ffffffffffffffffffffffffffffffffffffffff1673ffffffffffffffffffffffffffffffffffffffff1673ffffffffffffffffffffffffffffffffffffffff16815260200190815260200160002054115b15612ba4576006546d629b8c891b267182b614000000009550955050505050612d7a565b612c5a6001600060058481548110612be5577f4e487b7100000000000000000000000000000000000000000000000000000000600052603260045260246000fd5b9060005260206000200160009054906101000a900473ffffffffffffffffffffffffffffffffffffffff1673ffffffffffffffffffffffffffffffffffffffff1673ffffffffffffffffffffffffffffffffffffffff1681526020019081526020016000205485611cc890919063ffffffff16565b9350612d126002600060058481548110612c9d577f4e487b7100000000000000000000000000000000000000000000000000000000600052603260045260246000fd5b9060005260206000200160009054906101000a900473ffffffffffffffffffffffffffffffffffffffff1673ffffffffffffffffffffffffffffffffffffffff1673ffffffffffffffffffffffffffffffffffffffff1681526020019081526020016000205484611cc890919063ffffffff16565b92508080612d1f906135c7565b915050612a25565b50612d4b6d629b8c891b267182b6140000000060065461278790919063ffffffff16565b831015612d70576006546d629b8c891b267182b6140000000094509450505050612d7a565b8282945094505050505b9091565b828054612d8a90613595565b90600052602060002090601f016020900481019282612dac5760008555612df3565b82601f10612dc557805160ff1916838001178555612df3565b82800160010185558215612df3579182015b82811115612df2578251825591602001919060010190612dd7565b5b509050612e009190612e04565b5090565b5b80821115612e1d576000816000905550600101612e05565b5090565b600081359050612e3081613a21565b92915050565b600081359050612e4581613a38565b92915050565b600081359050612e5a81613a4f565b92915050565b600060208284031215612e7257600080fd5b6000612e8084828501612e21565b91505092915050565b60008060408385031215612e9c57600080fd5b6000612eaa85828601612e21565b9250506020612ebb85828601612e21565b9150509250929050565b600080600060608486031215612eda57600080fd5b6000612ee886828701612e21565b9350506020612ef986828701612e21565b9250506040612f0a86828701612e4b565b9150509250925092565b60008060408385031215612f2757600080fd5b6000612f3585828601612e21565b9250506020612f4685828601612e4b565b9150509250929050565b600060208284031215612f6257600080fd5b6000612f7084828501612e4b565b91505092915050565b60008060408385031215612f8c57600080fd5b6000612f9a85828601612e4b565b9250506020612fab85828601612e36565b9150509250929050565b612fbe8161350d565b82525050565b612fcd8161351f565b82525050565b6000612fde826133dc565b612fe881856133e7565b9350612ff8818560208601613562565b613001816136ce565b840191505092915050565b60006130196023836133e7565b9150613024826136df565b604082019050919050565b600061303c602a836133e7565b91506130478261372e565b604082019050919050565b600061305f6026836133e7565b915061306a8261377d565b604082019050919050565b60006130826022836133e7565b915061308d826137cc565b604082019050919050565b60006130a5601b836133e7565b91506130b08261381b565b602082019050919050565b60006130c8601f836133e7565b91506130d382613844565b602082019050919050565b60006130eb602e836133e7565b91506130f68261386d565b604082019050919050565b600061310e6020836133e7565b9150613119826138bc565b602082019050919050565b60006131316029836133e7565b915061313c826138e5565b604082019050919050565b60006131546025836133e7565b915061315f82613934565b604082019050919050565b60006131776024836133e7565b915061318282613983565b604082019050919050565b600061319a602c836133e7565b91506131a5826139d2565b604082019050919050565b6131b98161354b565b82525050565b6131c881613555565b82525050565b60006020820190506131e36000830184612fb5565b92915050565b60006020820190506131fe6000830184612fc4565b92915050565b6000602082019050818103600083015261321e8184612fd3565b905092915050565b6000602082019050818103600083015261323f8161300c565b9050919050565b6000602082019050818103600083015261325f8161302f565b9050919050565b6000602082019050818103600083015261327f81613052565b9050919050565b6000602082019050818103600083015261329f81613075565b9050919050565b600060208201905081810360008301526132bf81613098565b9050919050565b600060208201905081810360008301526132df816130bb565b9050919050565b600060208201905081810360008301526132ff816130de565b9050919050565b6000602082019050818103600083015261331f81613101565b9050919050565b6000602082019050818103600083015261333f81613124565b9050919050565b6000602082019050818103600083015261335f81613147565b9050919050565b6000602082019050818103600083015261337f8161316a565b9050919050565b6000602082019050818103600083015261339f8161318d565b9050919050565b60006020820190506133bb60008301846131b0565b92915050565b60006020820190506133d660008301846131bf565b92915050565b600081519050919050565b600082825260208201905092915050565b60006134038261354b565b915061340e8361354b565b9250827fffffffffffffffffffffffffffffffffffffffffffffffffffffffffffffffff0382111561344357613442613641565b5b828201905092915050565b60006134598261354b565b91506134648361354b565b92508261347457613473613670565b5b828204905092915050565b600061348a8261354b565b91506134958361354b565b9250817fffffffffffffffffffffffffffffffffffffffffffffffffffffffffffffffff04831182151516156134ce576134cd613641565b5b828202905092915050565b60006134e48261354b565b91506134ef8361354b565b92508282101561350257613501613641565b5b828203905092915050565b60006135188261352b565b9050919050565b60008115159050919050565b600073ffffffffffffffffffffffffffffffffffffffff82169050919050565b6000819050919050565b600060ff82169050919050565b60005b83811015613580578082015181840152602081019050613565565b8381111561358f576000848401525b50505050565b600060028204905060018216806135ad57607f821691505b602082108114156135c1576135c061369f565b5b50919050565b60006135d28261354b565b91507fffffffffffffffffffffffffffffffffffffffffffffffffffffffffffffffff82141561360557613604613641565b5b600182019050919050565b600061361b8261354b565b91506136268361354b565b92508261363657613635613670565b5b828206905092915050565b7f4e487b7100000000000000000000000000000000000000000000000000000000600052601160045260246000fd5b7f4e487b7100000000000000000000000000000000000000000000000000000000600052601260045260246000fd5b7f4e487b7100000000000000000000000000000000000000000000000000000000600052602260045260246000fd5b6000601f19601f8301169050919050565b7f45524332303a207472616e7366657220746f20746865207a65726f206164647260008201527f6573730000000000000000000000000000000000000000000000000000000000602082015250565b7f416d6f756e74206d757374206265206c657373207468616e20746f74616c207260008201527f65666c656374696f6e7300000000000000000000000000000000000000000000602082015250565b7f4f776e61626c653a206e6577206f776e657220697320746865207a65726f206160008201527f6464726573730000000000000000000000000000000000000000000000000000602082015250565b7f45524332303a20617070726f766520746f20746865207a65726f20616464726560008201527f7373000000000000000000000000000000000000000000000000000000000000602082015250565b7f4163636f756e7420697320616c7265616479206578636c756465640000000000600082015250565b7f416d6f756e74206d757374206265206c657373207468616e20737570706c7900600082015250565b7f496e697469616c697a61626c653a20636f6e747261637420697320616c72656160008201527f647920696e697469616c697a6564000000000000000000000000000000000000602082015250565b7f4f776e61626c653a2063616c6c6572206973206e6f7420746865206f776e6572600082015250565b7f5472616e7366657220616d6f756e74206d75737420626520677265617465722060008201527f7468616e207a65726f0000000000000000000000000000000000000000000000602082015250565b7f45524332303a207472616e736665722066726f6d20746865207a65726f20616460008201527f6472657373000000000000000000000000000000000000000000000000000000602082015250565b7f45524332303a20617070726f76652066726f6d20746865207a65726f2061646460008201527f7265737300000000000000000000000000000000000000000000000000000000602082015250565b7f4578636c75646564206164647265737365732063616e6e6f742063616c6c207460008201527f6869732066756e6374696f6e0000000000000000000000000000000000000000602082015250565b613a2a8161350d565b8114613a3557600080fd5b50565b613a418161351f565b8114613a4c57600080fd5b50565b613a588161354b565b8114613a6357600080fd5b5056fe45524332303a207472616e7366657220616d6f756e74206578636565647320616c6c6f77616e636545524332303a2064656372656173656420616c6c6f77616e63652062656c6f77207a65726fa26469706673582212201efdc46cc2a2ecb325504648cb5768d06c0a9cce57b02badb3dcbec81d739af564736f6c63430008040033",
  "immutableReferences": {},
  "source": "// SPDX-License-Identifier: MIT\r\npragma solidity ^0.8.0;\r\n\r\nimport \"./REFLECT4.sol\";\r\n\r\ncontract EMaxCoin4 is REFLECT4 {}\r\n",
  "sourcePath": "C:\\Users\\epowl\\EMAX-Contracts\\contracts\\EMaxCoin4.sol",
  "compiler": {
    "name": "solc",
    "version": "0.8.4+commit.c7e474f2.Emscripten.clang"
  },
  "schemaVersion": "3.4.3",
  "updatedAt": "2021-11-15T21:34:07.576Z",
  "networkType": "ethereum",
  "devdoc": {
    "kind": "dev",
    "methods": {
      "allowance(address,address)": {
        "details": "Returns the remaining number of tokens that `spender` will be allowed to spend on behalf of `owner` through {transferFrom}. This is zero by default. This value changes when {approve} or {transferFrom} are called."
      },
      "approve(address,uint256)": {
        "details": "Sets `amount` as the allowance of `spender` over the caller's tokens. Returns a boolean value indicating whether the operation succeeded. IMPORTANT: Beware that changing an allowance with this method brings the risk that someone may use both the old and the new allowance by unfortunate transaction ordering. One possible solution to mitigate this race condition is to first reduce the spender's allowance to 0 and set the desired value afterwards: https://github.com/ethereum/EIPs/issues/20#issuecomment-263524729 Emits an {Approval} event."
      },
      "balanceOf(address)": {
        "details": "Returns the amount of tokens owned by `account`."
      },
      "owner()": {
        "details": "Returns the address of the current owner."
      },
      "ownerInitialize()": {
        "details": "Initializes the contract setting the deployer as the initial owner."
      },
      "renounceOwnership()": {
        "details": "Leaves the contract without owner. It will not be possible to call `onlyOwner` functions anymore. Can only be called by the current owner. NOTE: Renouncing ownership will leave the contract without an owner, thereby removing any functionality that is only available to the owner."
      },
      "totalSupply()": {
        "details": "Returns the amount of tokens in existence."
      },
      "transfer(address,uint256)": {
        "details": "Moves `amount` tokens from the caller's account to `recipient`. Returns a boolean value indicating whether the operation succeeded. Emits a {Transfer} event."
      },
      "transferFrom(address,address,uint256)": {
        "details": "Moves `amount` tokens from `sender` to `recipient` using the allowance mechanism. `amount` is then deducted from the caller's allowance. Returns a boolean value indicating whether the operation succeeded. Emits a {Transfer} event."
      },
      "transferOwnership(address)": {
        "details": "Transfers ownership of the contract to a new account (`newOwner`). Can only be called by the current owner."
      }
    },
    "version": 1
  },
  "userdoc": {
    "kind": "user",
    "methods": {},
    "version": 1
  }
}