{
  "contractName": "REFLECT5",
  "abi": [
    {
      "anonymous": false,
      "inputs": [
        {
          "indexed": true,
          "internalType": "address",
          "name": "owner",
          "type": "address"
        },
        {
          "indexed": true,
          "internalType": "address",
          "name": "spender",
          "type": "address"
        },
        {
          "indexed": false,
          "internalType": "uint256",
          "name": "value",
          "type": "uint256"
        }
      ],
      "name": "Approval",
      "type": "event"
    },
    {
      "anonymous": false,
      "inputs": [
        {
          "indexed": true,
          "internalType": "address",
          "name": "previousOwner",
          "type": "address"
        },
        {
          "indexed": true,
          "internalType": "address",
          "name": "newOwner",
          "type": "address"
        }
      ],
      "name": "OwnershipTransferred",
      "type": "event"
    },
    {
      "anonymous": false,
      "inputs": [
        {
          "indexed": true,
          "internalType": "address",
          "name": "from",
          "type": "address"
        },
        {
          "indexed": true,
          "internalType": "address",
          "name": "to",
          "type": "address"
        },
        {
          "indexed": false,
          "internalType": "uint256",
          "name": "value",
          "type": "uint256"
        }
      ],
      "name": "Transfer",
      "type": "event"
    },
    {
      "inputs": [],
      "name": "EMAXEvents",
      "outputs": [
        {
          "internalType": "address",
          "name": "",
          "type": "address"
        }
      ],
      "stateMutability": "view",
      "type": "function"
    },
    {
      "inputs": [],
      "name": "EMAXExpense",
      "outputs": [
        {
          "internalType": "address",
          "name": "",
          "type": "address"
        }
      ],
      "stateMutability": "view",
      "type": "function"
    },
    {
      "inputs": [],
      "name": "EMAXExpenseOld",
      "outputs": [
        {
          "internalType": "address",
          "name": "",
          "type": "address"
        }
      ],
      "stateMutability": "view",
      "type": "function"
    },
    {
      "inputs": [],
      "name": "EMAXMint",
      "outputs": [
        {
          "internalType": "address",
          "name": "",
          "type": "address"
        }
      ],
      "stateMutability": "view",
      "type": "function"
    },
    {
      "inputs": [],
      "name": "EMAXTreasury",
      "outputs": [
        {
          "internalType": "address",
          "name": "",
          "type": "address"
        }
      ],
      "stateMutability": "view",
      "type": "function"
    },
    {
      "inputs": [],
      "name": "bitforex",
      "outputs": [
        {
          "internalType": "address",
          "name": "",
          "type": "address"
        }
      ],
      "stateMutability": "view",
      "type": "function"
    },
    {
      "inputs": [],
      "name": "owner",
      "outputs": [
        {
          "internalType": "address",
          "name": "",
          "type": "address"
        }
      ],
      "stateMutability": "view",
      "type": "function"
    },
    {
      "inputs": [],
      "name": "ownerInitialize",
      "outputs": [],
      "stateMutability": "nonpayable",
      "type": "function"
    },
    {
      "inputs": [],
      "name": "renounceOwnership",
      "outputs": [],
      "stateMutability": "nonpayable",
      "type": "function"
    },
    {
      "inputs": [
        {
          "internalType": "address",
          "name": "newOwner",
          "type": "address"
        }
      ],
      "name": "transferOwnership",
      "outputs": [],
      "stateMutability": "nonpayable",
      "type": "function"
    },
    {
      "inputs": [
        {
          "internalType": "address",
          "name": "",
          "type": "address"
        }
      ],
      "name": "whitelist",
      "outputs": [
        {
          "internalType": "bool",
          "name": "",
          "type": "bool"
        }
      ],
      "stateMutability": "view",
      "type": "function"
    },
    {
      "inputs": [],
      "name": "initialize",
      "outputs": [],
      "stateMutability": "nonpayable",
      "type": "function"
    },
    {
      "inputs": [],
      "name": "name",
      "outputs": [
        {
          "internalType": "string",
          "name": "",
          "type": "string"
        }
      ],
      "stateMutability": "view",
      "type": "function"
    },
    {
      "inputs": [],
      "name": "symbol",
      "outputs": [
        {
          "internalType": "string",
          "name": "",
          "type": "string"
        }
      ],
      "stateMutability": "view",
      "type": "function"
    },
    {
      "inputs": [],
      "name": "decimals",
      "outputs": [
        {
          "internalType": "uint8",
          "name": "",
          "type": "uint8"
        }
      ],
      "stateMutability": "view",
      "type": "function"
    },
    {
      "inputs": [],
      "name": "totalSupply",
      "outputs": [
        {
          "internalType": "uint256",
          "name": "",
          "type": "uint256"
        }
      ],
      "stateMutability": "pure",
      "type": "function"
    },
    {
      "inputs": [],
      "name": "totalMAX",
      "outputs": [
        {
          "internalType": "uint256",
          "name": "",
          "type": "uint256"
        }
      ],
      "stateMutability": "view",
      "type": "function"
    },
    {
      "inputs": [],
      "name": "ourSupply",
      "outputs": [
        {
          "internalType": "uint256",
          "name": "",
          "type": "uint256"
        }
      ],
      "stateMutability": "view",
      "type": "function"
    },
    {
      "inputs": [
        {
          "internalType": "address",
          "name": "account",
          "type": "address"
        }
      ],
      "name": "balanceOf",
      "outputs": [
        {
          "internalType": "uint256",
          "name": "",
          "type": "uint256"
        }
      ],
      "stateMutability": "view",
      "type": "function"
    },
    {
      "inputs": [
        {
          "internalType": "address",
          "name": "recipient",
          "type": "address"
        },
        {
          "internalType": "uint256",
          "name": "amount",
          "type": "uint256"
        }
      ],
      "name": "transfer",
      "outputs": [
        {
          "internalType": "bool",
          "name": "",
          "type": "bool"
        }
      ],
      "stateMutability": "nonpayable",
      "type": "function"
    },
    {
      "inputs": [
        {
          "internalType": "address",
          "name": "owner",
          "type": "address"
        },
        {
          "internalType": "address",
          "name": "spender",
          "type": "address"
        }
      ],
      "name": "allowance",
      "outputs": [
        {
          "internalType": "uint256",
          "name": "",
          "type": "uint256"
        }
      ],
      "stateMutability": "view",
      "type": "function"
    },
    {
      "inputs": [
        {
          "internalType": "address",
          "name": "spender",
          "type": "address"
        },
        {
          "internalType": "uint256",
          "name": "amount",
          "type": "uint256"
        }
      ],
      "name": "approve",
      "outputs": [
        {
          "internalType": "bool",
          "name": "",
          "type": "bool"
        }
      ],
      "stateMutability": "nonpayable",
      "type": "function"
    },
    {
      "inputs": [
        {
          "internalType": "address",
          "name": "sender",
          "type": "address"
        },
        {
          "internalType": "address",
          "name": "recipient",
          "type": "address"
        },
        {
          "internalType": "uint256",
          "name": "amount",
          "type": "uint256"
        }
      ],
      "name": "transferFrom",
      "outputs": [
        {
          "internalType": "bool",
          "name": "",
          "type": "bool"
        }
      ],
      "stateMutability": "nonpayable",
      "type": "function"
    },
    {
      "inputs": [
        {
          "internalType": "address",
          "name": "spender",
          "type": "address"
        },
        {
          "internalType": "uint256",
          "name": "addedValue",
          "type": "uint256"
        }
      ],
      "name": "increaseAllowance",
      "outputs": [
        {
          "internalType": "bool",
          "name": "",
          "type": "bool"
        }
      ],
      "stateMutability": "nonpayable",
      "type": "function"
    },
    {
      "inputs": [
        {
          "internalType": "address",
          "name": "spender",
          "type": "address"
        },
        {
          "internalType": "uint256",
          "name": "subtractedValue",
          "type": "uint256"
        }
      ],
      "name": "decreaseAllowance",
      "outputs": [
        {
          "internalType": "bool",
          "name": "",
          "type": "bool"
        }
      ],
      "stateMutability": "nonpayable",
      "type": "function"
    },
    {
      "inputs": [
        {
          "internalType": "address",
          "name": "account",
          "type": "address"
        }
      ],
      "name": "isExcluded",
      "outputs": [
        {
          "internalType": "bool",
          "name": "",
          "type": "bool"
        }
      ],
      "stateMutability": "view",
      "type": "function"
    },
    {
      "inputs": [],
      "name": "totalFees",
      "outputs": [
        {
          "internalType": "uint256",
          "name": "",
          "type": "uint256"
        }
      ],
      "stateMutability": "view",
      "type": "function"
    },
    {
      "inputs": [
        {
          "internalType": "uint256",
          "name": "tAmount",
          "type": "uint256"
        }
      ],
      "name": "reflect",
      "outputs": [],
      "stateMutability": "nonpayable",
      "type": "function"
    },
    {
      "inputs": [
        {
          "internalType": "uint256",
          "name": "tAmount",
          "type": "uint256"
        },
        {
          "internalType": "bool",
          "name": "deductTransferFee",
          "type": "bool"
        }
      ],
      "name": "reflectionFromToken",
      "outputs": [
        {
          "internalType": "uint256",
          "name": "",
          "type": "uint256"
        }
      ],
      "stateMutability": "view",
      "type": "function"
    },
    {
      "inputs": [
        {
          "internalType": "uint256",
          "name": "rAmount",
          "type": "uint256"
        }
      ],
      "name": "tokenFromReflection",
      "outputs": [
        {
          "internalType": "uint256",
          "name": "",
          "type": "uint256"
        }
      ],
      "stateMutability": "view",
      "type": "function"
    },
    {
      "inputs": [
        {
          "internalType": "uint256",
          "name": "tAmount",
          "type": "uint256"
        }
      ],
      "name": "getValues",
      "outputs": [
        {
          "internalType": "uint256",
          "name": "",
          "type": "uint256"
        },
        {
          "internalType": "uint256",
          "name": "",
          "type": "uint256"
        },
        {
          "internalType": "uint256",
          "name": "",
          "type": "uint256"
        },
        {
          "internalType": "uint256",
          "name": "",
          "type": "uint256"
        },
        {
          "internalType": "uint256",
          "name": "",
          "type": "uint256"
        }
      ],
      "stateMutability": "view",
      "type": "function"
    },
    {
      "inputs": [],
      "name": "_getRate",
      "outputs": [
        {
          "internalType": "uint256",
          "name": "",
          "type": "uint256"
        }
      ],
      "stateMutability": "view",
      "type": "function"
    },
    {
      "inputs": [],
      "name": "getCurrentSupply",
      "outputs": [
        {
          "internalType": "uint256",
          "name": "",
          "type": "uint256"
        },
        {
          "internalType": "uint256",
          "name": "",
          "type": "uint256"
        }
      ],
      "stateMutability": "view",
      "type": "function"
    },
    {
      "inputs": [
        {
          "internalType": "address",
          "name": "account",
          "type": "address"
        }
      ],
      "name": "excludeAccount",
      "outputs": [],
      "stateMutability": "nonpayable",
      "type": "function"
    },
    {
      "inputs": [
        {
          "internalType": "address",
          "name": "account",
          "type": "address"
        }
      ],
      "name": "includeAccount",
      "outputs": [],
      "stateMutability": "nonpayable",
      "type": "function"
    }
  ],
  "bytecode": "0x608060405234801561001057600080fd5b50613d89806100206000396000f3fe608060405234801561001057600080fd5b50600436106102115760003560e01c80638129fc1c11610125578063a8cf17de116100ad578063dab506ba1161007c578063dab506ba14610627578063dd62ed3e14610645578063f2cc0c1814610675578063f2fde38b14610691578063f84354f1146106ad57610211565b8063a8cf17de14610575578063a9059cbb14610593578063b29e522c146105c3578063cba0e996146105f757610211565b806394e10784116100f457806394e10784146104bb57806395b12b2c146104d957806395d89b41146104f75780639b19251a14610515578063a457c2d71461054557610211565b80638129fc1c146104575780638a389689146104615780638da51beb1461047f5780638da5cb5b1461049d57610211565b80632d838119116101a85780634549b039116101775780634549b039146103b05780634f3e1efc146103e05780635e18d972146103ff57806370a082311461041d578063715018a61461044d57610211565b80632d83811914610314578063313ce567146103445780633513eada14610362578063395093511461038057610211565b806313114a9d116101e457806313114a9d1461029e57806318160ddd146102bc5780631b4e8cc2146102da57806323b872dd146102e457610211565b8063053ab1821461021657806306fdde0314610232578063095ea7b31461025057806309749fa714610280575b600080fd5b610230600480360381019061022b91906130e2565b6106c9565b005b61023a610843565b60405161024791906133b9565b60405180910390f35b61026a600480360381019061026591906130a6565b6108d5565b604051610277919061339e565b60405180910390f35b6102886108f3565b6040516102959190613383565b60405180910390f35b6102a661090b565b6040516102b3919061357b565b60405180910390f35b6102c4610915565b6040516102d1919061357b565b60405180910390f35b6102e261092b565b005b6102fe60048036038101906102f99190613057565b610aad565b60405161030b919061339e565b60405180910390f35b61032e600480360381019061032991906130e2565b610b86565b60405161033b919061357b565b60405180910390f35b61034c610bf4565b6040516103599190613612565b60405180910390f35b61036a610c0b565b6040516103779190613383565b60405180910390f35b61039a600480360381019061039591906130a6565b610c23565b6040516103a7919061339e565b60405180910390f35b6103ca60048036038101906103c5919061310b565b610cd6565b6040516103d7919061357b565b60405180910390f35b6103e8610d64565b6040516103f6929190613596565b60405180910390f35b6104076110e7565b6040516104149190613383565b60405180910390f35b61043760048036038101906104329190612ff2565b6110ff565b604051610444919061357b565b60405180910390f35b6104556111ea565b005b61045f611326565b005b6104696115b2565b6040516104769190613383565b60405180910390f35b6104876115ca565b604051610494919061357b565b60405180910390f35b6104a56115d3565b6040516104b29190613383565b60405180910390f35b6104c36115fc565b6040516104d0919061357b565b60405180910390f35b6104e1611627565b6040516104ee9190613383565b60405180910390f35b6104ff61163f565b60405161050c91906133b9565b60405180910390f35b61052f600480360381019061052a9190612ff2565b6116d1565b60405161053c919061339e565b60405180910390f35b61055f600480360381019061055a91906130a6565b6116f1565b60405161056c919061339e565b60405180910390f35b61057d6117be565b60405161058a919061357b565b60405180910390f35b6105ad60048036038101906105a891906130a6565b6117c8565b6040516105ba919061339e565b60405180910390f35b6105dd60048036038101906105d891906130e2565b6117e6565b6040516105ee9594939291906135bf565b60405180910390f35b610611600480360381019061060c9190612ff2565b61183d565b60405161061e919061339e565b60405180910390f35b61062f611893565b60405161063c9190613383565b60405180910390f35b61065f600480360381019061065a919061301b565b6118ab565b60405161066c919061357b565b60405180910390f35b61068f600480360381019061068a9190612ff2565b611932565b005b6106ab60048036038101906106a69190612ff2565b611b51565b005b6106c760048036038101906106c29190612ff2565b611cfd565b005b60006106d361204f565b9050600460008273ffffffffffffffffffffffffffffffffffffffff1673ffffffffffffffffffffffffffffffffffffffff16815260200190815260200160002060009054906101000a900460ff1615610762576040517f08c379a00000000000000000000000000000000000000000000000000000000081526004016107599061355b565b60405180910390fd5b600061076d836117e6565b5050505090506107c581600160008573ffffffffffffffffffffffffffffffffffffffff1673ffffffffffffffffffffffffffffffffffffffff1681526020019081526020016000205461205790919063ffffffff16565b600160008473ffffffffffffffffffffffffffffffffffffffff1673ffffffffffffffffffffffffffffffffffffffff1681526020019081526020016000208190555061081d8160065461205790919063ffffffff16565b6006819055506108388360075461206d90919063ffffffff16565b600781905550505050565b606060088054610852906137e6565b80601f016020809104026020016040519081016040528092919081815260200182805461087e906137e6565b80156108cb5780601f106108a0576101008083540402835291602001916108cb565b820191906000526020600020905b8154815290600101906020018083116108ae57829003601f168201915b5050505050905090565b60006108e96108e261204f565b8484612083565b6001905092915050565b73263674f945b6903cd421d755337710dd8083fcc181565b6000600754905090565b60006d629b8c891b267182b61400000000905090565b600060019054906101000a900460ff1680610951575060008054906101000a900460ff16155b610990576040517f08c379a00000000000000000000000000000000000000000000000000000000081526004016109879061349b565b60405180910390fd5b60008060019054906101000a900460ff1615905080156109e0576001600060016101000a81548160ff02191690831515021790555060016000806101000a81548160ff0219169083151502179055505b60006109ea61204f565b905080600060026101000a81548173ffffffffffffffffffffffffffffffffffffffff021916908373ffffffffffffffffffffffffffffffffffffffff1602179055508073ffffffffffffffffffffffffffffffffffffffff16600073ffffffffffffffffffffffffffffffffffffffff167f8be0079c531659141344cd1fd0a4f28419497f9722a3daafe3b4186f6b6457e060405160405180910390a3508015610aaa5760008060016101000a81548160ff0219169083151502179055505b50565b6000610aba84848461224e565b610b7b84610ac661204f565b610b7685604051806060016040528060288152602001613d0760289139600360008b73ffffffffffffffffffffffffffffffffffffffff1673ffffffffffffffffffffffffffffffffffffffff1681526020019081526020016000206000610b2c61204f565b73ffffffffffffffffffffffffffffffffffffffff1673ffffffffffffffffffffffffffffffffffffffff16815260200190815260200160002054612ae79092919063ffffffff16565b612083565b600190509392505050565b6000600654821115610bcd576040517f08c379a0000000000000000000000000000000000000000000000000000000008152600401610bc4906133fb565b60405180910390fd5b6000610bd76115fc565b9050610bec8184612b3c90919063ffffffff16565b915050919050565b6000600a60009054906101000a900460ff16905090565b73331626d097cc466f6544257c2dc18f60f638241481565b6000610ccc610c3061204f565b84610cc78560036000610c4161204f565b73ffffffffffffffffffffffffffffffffffffffff1673ffffffffffffffffffffffffffffffffffffffff16815260200190815260200160002060008973ffffffffffffffffffffffffffffffffffffffff1673ffffffffffffffffffffffffffffffffffffffff1681526020019081526020016000205461206d90919063ffffffff16565b612083565b6001905092915050565b60006d629b8c891b267182b61400000000831115610d29576040517f08c379a0000000000000000000000000000000000000000000000000000000008152600401610d209061347b565b60405180910390fd5b81610d48576000610d39846117e6565b50505050905080915050610d5e565b6000610d53846117e6565b505050915050809150505b92915050565b6000806000600654905060006d629b8c891b267182b6140000000090506000600580549050905060005b8181101561109057836001600060058481548110610dd5577f4e487b7100000000000000000000000000000000000000000000000000000000600052603260045260246000fd5b9060005260206000200160009054906101000a900473ffffffffffffffffffffffffffffffffffffffff1673ffffffffffffffffffffffffffffffffffffffff1673ffffffffffffffffffffffffffffffffffffffff168152602001908152602001600020541180610ee95750826002600060058481548110610e81577f4e487b7100000000000000000000000000000000000000000000000000000000600052603260045260246000fd5b9060005260206000200160009054906101000a900473ffffffffffffffffffffffffffffffffffffffff1673ffffffffffffffffffffffffffffffffffffffff1673ffffffffffffffffffffffffffffffffffffffff16815260200190815260200160002054115b15610f0d576006546d629b8c891b267182b6140000000095509550505050506110e3565b610fc36001600060058481548110610f4e577f4e487b7100000000000000000000000000000000000000000000000000000000600052603260045260246000fd5b9060005260206000200160009054906101000a900473ffffffffffffffffffffffffffffffffffffffff1673ffffffffffffffffffffffffffffffffffffffff1673ffffffffffffffffffffffffffffffffffffffff168152602001908152602001600020548561205790919063ffffffff16565b935061107b6002600060058481548110611006577f4e487b7100000000000000000000000000000000000000000000000000000000600052603260045260246000fd5b9060005260206000200160009054906101000a900473ffffffffffffffffffffffffffffffffffffffff1673ffffffffffffffffffffffffffffffffffffffff1673ffffffffffffffffffffffffffffffffffffffff168152602001908152602001600020548461205790919063ffffffff16565b9250808061108890613818565b915050610d8e565b506110b46d629b8c891b267182b61400000000600654612b3c90919063ffffffff16565b8310156110d9576006546d629b8c891b267182b61400000000945094505050506110e3565b8282945094505050505b9091565b7380df68fa5275d0e1ee83aa4160f0b82033597f5181565b6000600460008373ffffffffffffffffffffffffffffffffffffffff1673ffffffffffffffffffffffffffffffffffffffff16815260200190815260200160002060009054906101000a900460ff161561119a57600260008373ffffffffffffffffffffffffffffffffffffffff1673ffffffffffffffffffffffffffffffffffffffff1681526020019081526020016000205490506111e5565b6111e2600160008473ffffffffffffffffffffffffffffffffffffffff1673ffffffffffffffffffffffffffffffffffffffff16815260200190815260200160002054610b86565b90505b919050565b6111f261204f565b73ffffffffffffffffffffffffffffffffffffffff166112106115d3565b73ffffffffffffffffffffffffffffffffffffffff1614611266576040517f08c379a000000000000000000000000000000000000000000000000000000000815260040161125d906134bb565b60405180910390fd5b600073ffffffffffffffffffffffffffffffffffffffff16600060029054906101000a900473ffffffffffffffffffffffffffffffffffffffff1673ffffffffffffffffffffffffffffffffffffffff167f8be0079c531659141344cd1fd0a4f28419497f9722a3daafe3b4186f6b6457e060405160405180910390a360008060026101000a81548173ffffffffffffffffffffffffffffffffffffffff021916908373ffffffffffffffffffffffffffffffffffffffff160217905550565b600060019054906101000a900460ff168061134c575060008054906101000a900460ff16155b61138b576040517f08c379a00000000000000000000000000000000000000000000000000000000081526004016113829061349b565b60405180910390fd5b60008060019054906101000a900460ff1615905080156113db576001600060016101000a81548160ff02191690831515021790555060016000806101000a81548160ff0219169083151502179055505b6113e361092b565b6d629b8c891b267182b614000000006000196113ff9190613861565b60001961140c919061372a565b6006819055506040518060400160405280600b81526020017f457468657265756d4d61780000000000000000000000000000000000000000008152506008908051906020019061145d929190612f10565b506040518060400160405280600481526020017f654d617800000000000000000000000000000000000000000000000000000000815250600990805190602001906114a9929190612f10565b506012600a60006101000a81548160ff021916908360ff160217905550600654600160006114d561204f565b73ffffffffffffffffffffffffffffffffffffffff1673ffffffffffffffffffffffffffffffffffffffff1681526020019081526020016000208190555061151b61204f565b73ffffffffffffffffffffffffffffffffffffffff16600073ffffffffffffffffffffffffffffffffffffffff167fddf252ad1be2c89b69c2b068fc378daa952ba7f163c4a11628f55a4df523b3ef6d629b8c891b267182b61400000000604051611586919061357b565b60405180910390a380156115af5760008060016101000a81548160ff0219169083151502179055505b50565b7387ba6c0b3e06d4b9ae4e5c5752d8e94aee13547081565b60008019905090565b60008060029054906101000a900473ffffffffffffffffffffffffffffffffffffffff16905090565b6000806000611609610d64565b915091506116208183612b3c90919063ffffffff16565b9250505090565b73d81d665edeee5762fcbc4802520910ed509da22a81565b60606009805461164e906137e6565b80601f016020809104026020016040519081016040528092919081815260200182805461167a906137e6565b80156116c75780601f1061169c576101008083540402835291602001916116c7565b820191906000526020600020905b8154815290600101906020018083116116aa57829003601f168201915b5050505050905090565b600c6020528060005260406000206000915054906101000a900460ff1681565b60006117b46116fe61204f565b846117af85604051806060016040528060258152602001613d2f602591396003600061172861204f565b73ffffffffffffffffffffffffffffffffffffffff1673ffffffffffffffffffffffffffffffffffffffff16815260200190815260200160002060008a73ffffffffffffffffffffffffffffffffffffffff1673ffffffffffffffffffffffffffffffffffffffff16815260200190815260200160002054612ae79092919063ffffffff16565b612083565b6001905092915050565b6000600654905090565b60006117dc6117d561204f565b848461224e565b6001905092915050565b6000806000806000806117f76115fc565b905060008061180589612b52565b9150915060008060006118198c8588612ba4565b92509250925082828287879a509a509a509a509a5050505050505091939590929450565b6000600460008373ffffffffffffffffffffffffffffffffffffffff1673ffffffffffffffffffffffffffffffffffffffff16815260200190815260200160002060009054906101000a900460ff169050919050565b735ea06a2be857d35d5e545b2bf54b2d387bb8b4ba81565b6000600360008473ffffffffffffffffffffffffffffffffffffffff1673ffffffffffffffffffffffffffffffffffffffff16815260200190815260200160002060008373ffffffffffffffffffffffffffffffffffffffff1673ffffffffffffffffffffffffffffffffffffffff16815260200190815260200160002054905092915050565b600460008273ffffffffffffffffffffffffffffffffffffffff1673ffffffffffffffffffffffffffffffffffffffff16815260200190815260200160002060009054906101000a900460ff16156119bf576040517f08c379a00000000000000000000000000000000000000000000000000000000081526004016119b69061345b565b60405180910390fd5b6000600160008373ffffffffffffffffffffffffffffffffffffffff1673ffffffffffffffffffffffffffffffffffffffff168152602001908152602001600020541115611a9357611a4f600160008373ffffffffffffffffffffffffffffffffffffffff1673ffffffffffffffffffffffffffffffffffffffff16815260200190815260200160002054610b86565b600260008373ffffffffffffffffffffffffffffffffffffffff1673ffffffffffffffffffffffffffffffffffffffff168152602001908152602001600020819055505b6001600460008373ffffffffffffffffffffffffffffffffffffffff1673ffffffffffffffffffffffffffffffffffffffff16815260200190815260200160002060006101000a81548160ff0219169083151502179055506005819080600181540180825580915050600190039060005260206000200160009091909190916101000a81548173ffffffffffffffffffffffffffffffffffffffff021916908373ffffffffffffffffffffffffffffffffffffffff16021790555050565b611b5961204f565b73ffffffffffffffffffffffffffffffffffffffff16611b776115d3565b73ffffffffffffffffffffffffffffffffffffffff1614611bcd576040517f08c379a0000000000000000000000000000000000000000000000000000000008152600401611bc4906134bb565b60405180910390fd5b600073ffffffffffffffffffffffffffffffffffffffff168173ffffffffffffffffffffffffffffffffffffffff161415611c3d576040517f08c379a0000000000000000000000000000000000000000000000000000000008152600401611c349061341b565b60405180910390fd5b8073ffffffffffffffffffffffffffffffffffffffff16600060029054906101000a900473ffffffffffffffffffffffffffffffffffffffff1673ffffffffffffffffffffffffffffffffffffffff167f8be0079c531659141344cd1fd0a4f28419497f9722a3daafe3b4186f6b6457e060405160405180910390a380600060026101000a81548173ffffffffffffffffffffffffffffffffffffffff021916908373ffffffffffffffffffffffffffffffffffffffff16021790555050565b600460008273ffffffffffffffffffffffffffffffffffffffff1673ffffffffffffffffffffffffffffffffffffffff16815260200190815260200160002060009054906101000a900460ff16611d89576040517f08c379a0000000000000000000000000000000000000000000000000000000008152600401611d809061345b565b60405180910390fd5b60005b60058054905081101561204b578173ffffffffffffffffffffffffffffffffffffffff1660058281548110611dea577f4e487b7100000000000000000000000000000000000000000000000000000000600052603260045260246000fd5b9060005260206000200160009054906101000a900473ffffffffffffffffffffffffffffffffffffffff1673ffffffffffffffffffffffffffffffffffffffff1614156120385760056001600580549050611e45919061372a565b81548110611e7c577f4e487b7100000000000000000000000000000000000000000000000000000000600052603260045260246000fd5b9060005260206000200160009054906101000a900473ffffffffffffffffffffffffffffffffffffffff1660058281548110611ee1577f4e487b7100000000000000000000000000000000000000000000000000000000600052603260045260246000fd5b9060005260206000200160006101000a81548173ffffffffffffffffffffffffffffffffffffffff021916908373ffffffffffffffffffffffffffffffffffffffff1602179055506000600260008473ffffffffffffffffffffffffffffffffffffffff1673ffffffffffffffffffffffffffffffffffffffff168152602001908152602001600020819055506000600460008473ffffffffffffffffffffffffffffffffffffffff1673ffffffffffffffffffffffffffffffffffffffff16815260200190815260200160002060006101000a81548160ff0219169083151502179055506005805480611ffe577f4e487b7100000000000000000000000000000000000000000000000000000000600052603160045260246000fd5b6001900381819060005260206000200160006101000a81549073ffffffffffffffffffffffffffffffffffffffff0219169055905561204b565b808061204390613818565b915050611d8c565b5050565b600033905090565b60008183612065919061372a565b905092915050565b6000818361207b9190613649565b905092915050565b600073ffffffffffffffffffffffffffffffffffffffff168373ffffffffffffffffffffffffffffffffffffffff1614156120f3576040517f08c379a00000000000000000000000000000000000000000000000000000000081526004016120ea9061353b565b60405180910390fd5b600073ffffffffffffffffffffffffffffffffffffffff168273ffffffffffffffffffffffffffffffffffffffff161415612163576040517f08c379a000000000000000000000000000000000000000000000000000000000815260040161215a9061343b565b60405180910390fd5b80600360008573ffffffffffffffffffffffffffffffffffffffff1673ffffffffffffffffffffffffffffffffffffffff16815260200190815260200160002060008473ffffffffffffffffffffffffffffffffffffffff1673ffffffffffffffffffffffffffffffffffffffff168152602001908152602001600020819055508173ffffffffffffffffffffffffffffffffffffffff168373ffffffffffffffffffffffffffffffffffffffff167f8c5be1e5ebec7d5bd14f71427d1e84f3dd0314c0f7b2291e5b200ac8c7c3b92583604051612241919061357b565b60405180910390a3505050565b600073ffffffffffffffffffffffffffffffffffffffff168373ffffffffffffffffffffffffffffffffffffffff1614156122be576040517f08c379a00000000000000000000000000000000000000000000000000000000081526004016122b59061351b565b60405180910390fd5b600073ffffffffffffffffffffffffffffffffffffffff168273ffffffffffffffffffffffffffffffffffffffff16141561232e576040517f08c379a0000000000000000000000000000000000000000000000000000000008152600401612325906133db565b60405180910390fd5b60008111612371576040517f08c379a0000000000000000000000000000000000000000000000000000000008152600401612368906134db565b60405180910390fd5b60006006905060006003905073d81d665edeee5762fcbc4802520910ed509da22a73ffffffffffffffffffffffffffffffffffffffff168573ffffffffffffffffffffffffffffffffffffffff16148061240a575073d81d665edeee5762fcbc4802520910ed509da22a73ffffffffffffffffffffffffffffffffffffffff168473ffffffffffffffffffffffffffffffffffffffff16145b80612454575073331626d097cc466f6544257c2dc18f60f638241473ffffffffffffffffffffffffffffffffffffffff168573ffffffffffffffffffffffffffffffffffffffff16145b8061249e575073331626d097cc466f6544257c2dc18f60f638241473ffffffffffffffffffffffffffffffffffffffff168473ffffffffffffffffffffffffffffffffffffffff16145b806124e857507387ba6c0b3e06d4b9ae4e5c5752d8e94aee13547073ffffffffffffffffffffffffffffffffffffffff168573ffffffffffffffffffffffffffffffffffffffff16145b8061253257507387ba6c0b3e06d4b9ae4e5c5752d8e94aee13547073ffffffffffffffffffffffffffffffffffffffff168473ffffffffffffffffffffffffffffffffffffffff16145b8061257c5750735ea06a2be857d35d5e545b2bf54b2d387bb8b4ba73ffffffffffffffffffffffffffffffffffffffff168573ffffffffffffffffffffffffffffffffffffffff16145b806125c65750735ea06a2be857d35d5e545b2bf54b2d387bb8b4ba73ffffffffffffffffffffffffffffffffffffffff168473ffffffffffffffffffffffffffffffffffffffff16145b8061261057507380df68fa5275d0e1ee83aa4160f0b82033597f5173ffffffffffffffffffffffffffffffffffffffff168573ffffffffffffffffffffffffffffffffffffffff16145b8061265a57507380df68fa5275d0e1ee83aa4160f0b82033597f5173ffffffffffffffffffffffffffffffffffffffff168473ffffffffffffffffffffffffffffffffffffffff16145b806126a4575073263674f945b6903cd421d755337710dd8083fcc173ffffffffffffffffffffffffffffffffffffffff168573ffffffffffffffffffffffffffffffffffffffff16145b806126ee575073263674f945b6903cd421d755337710dd8083fcc173ffffffffffffffffffffffffffffffffffffffff168473ffffffffffffffffffffffffffffffffffffffff16145b156126fc5760009150600090505b600080600080600061270d886117e6565b9450945094509450945060006127216115fc565b905061277586600160008e73ffffffffffffffffffffffffffffffffffffffff1673ffffffffffffffffffffffffffffffffffffffff1681526020019081526020016000205461205790919063ffffffff16565b600160008d73ffffffffffffffffffffffffffffffffffffffff1673ffffffffffffffffffffffffffffffffffffffff1681526020019081526020016000208190555061280a85600160008d73ffffffffffffffffffffffffffffffffffffffff1673ffffffffffffffffffffffffffffffffffffffff1681526020019081526020016000205461206d90919063ffffffff16565b600160008c73ffffffffffffffffffffffffffffffffffffffff1673ffffffffffffffffffffffffffffffffffffffff16815260200190815260200160002081905550600460008c73ffffffffffffffffffffffffffffffffffffffff1673ffffffffffffffffffffffffffffffffffffffff16815260200190815260200160002060009054906101000a900460ff1615612935576128f189600260008e73ffffffffffffffffffffffffffffffffffffffff1673ffffffffffffffffffffffffffffffffffffffff1681526020019081526020016000205461205790919063ffffffff16565b600260008d73ffffffffffffffffffffffffffffffffffffffff1673ffffffffffffffffffffffffffffffffffffffff168152602001908152602001600020819055505b600460008b73ffffffffffffffffffffffffffffffffffffffff1673ffffffffffffffffffffffffffffffffffffffff16815260200190815260200160002060009054906101000a900460ff1615612a1d576129d983600260008d73ffffffffffffffffffffffffffffffffffffffff1673ffffffffffffffffffffffffffffffffffffffff1681526020019081526020016000205461206d90919063ffffffff16565b600260008c73ffffffffffffffffffffffffffffffffffffffff1673ffffffffffffffffffffffffffffffffffffffff168152602001908152602001600020819055505b612a278483612c02565b8973ffffffffffffffffffffffffffffffffffffffff168b73ffffffffffffffffffffffffffffffffffffffff167fddf252ad1be2c89b69c2b068fc378daa952ba7f163c4a11628f55a4df523b3ef85604051612a84919061357b565b60405180910390a36000612ab46064612aa68a8d612c3c90919063ffffffff16565b612b3c90919063ffffffff16565b90506000612acb8383612c3c90919063ffffffff16565b9050612ad88d8383612c52565b50505050505050505050505050565b6000838311158290612b2f576040517f08c379a0000000000000000000000000000000000000000000000000000000008152600401612b2691906133b9565b60405180910390fd5b5082840390509392505050565b60008183612b4a919061369f565b905092915050565b6000806000612b7e6064612b70600687612c3c90919063ffffffff16565b612b3c90919063ffffffff16565b90506000612b95828661205790919063ffffffff16565b90508082935093505050915091565b600080600080612bbd8588612c3c90919063ffffffff16565b90506000612bd48688612c3c90919063ffffffff16565b90506000612beb828461205790919063ffffffff16565b905082818395509550955050505093509350939050565b612c178260065461205790919063ffffffff16565b600681905550612c328160075461206d90919063ffffffff16565b6007819055505050565b60008183612c4a91906136d0565b905092915050565b80600160008573ffffffffffffffffffffffffffffffffffffffff1673ffffffffffffffffffffffffffffffffffffffff168152602001908152602001600020541015612cd4576040517f08c379a0000000000000000000000000000000000000000000000000000000008152600401612ccb906134fb565b60405180910390fd5b612d2681600160008673ffffffffffffffffffffffffffffffffffffffff1673ffffffffffffffffffffffffffffffffffffffff1681526020019081526020016000205461205790919063ffffffff16565b600160008573ffffffffffffffffffffffffffffffffffffffff1673ffffffffffffffffffffffffffffffffffffffff16815260200190815260200160002081905550612dbd816001600061dead73ffffffffffffffffffffffffffffffffffffffff1673ffffffffffffffffffffffffffffffffffffffff1681526020019081526020016000205461206d90919063ffffffff16565b6001600061dead73ffffffffffffffffffffffffffffffffffffffff1673ffffffffffffffffffffffffffffffffffffffff168152602001908152602001600020819055506004600061dead73ffffffffffffffffffffffffffffffffffffffff1673ffffffffffffffffffffffffffffffffffffffff16815260200190815260200160002060009054906101000a900460ff1615612ef057612eaa826002600061dead73ffffffffffffffffffffffffffffffffffffffff1673ffffffffffffffffffffffffffffffffffffffff1681526020019081526020016000205461206d90919063ffffffff16565b6002600061dead73ffffffffffffffffffffffffffffffffffffffff1673ffffffffffffffffffffffffffffffffffffffff168152602001908152602001600020819055505b612f0582600b5461206d90919063ffffffff16565b600b81905550505050565b828054612f1c906137e6565b90600052602060002090601f016020900481019282612f3e5760008555612f85565b82601f10612f5757805160ff1916838001178555612f85565b82800160010185558215612f85579182015b82811115612f84578251825591602001919060010190612f69565b5b509050612f929190612f96565b5090565b5b80821115612faf576000816000905550600101612f97565b5090565b600081359050612fc281613cc1565b92915050565b600081359050612fd781613cd8565b92915050565b600081359050612fec81613cef565b92915050565b60006020828403121561300457600080fd5b600061301284828501612fb3565b91505092915050565b6000806040838503121561302e57600080fd5b600061303c85828601612fb3565b925050602061304d85828601612fb3565b9150509250929050565b60008060006060848603121561306c57600080fd5b600061307a86828701612fb3565b935050602061308b86828701612fb3565b925050604061309c86828701612fdd565b9150509250925092565b600080604083850312156130b957600080fd5b60006130c785828601612fb3565b92505060206130d885828601612fdd565b9150509250929050565b6000602082840312156130f457600080fd5b600061310284828501612fdd565b91505092915050565b6000806040838503121561311e57600080fd5b600061312c85828601612fdd565b925050602061313d85828601612fc8565b9150509250929050565b6131508161375e565b82525050565b61315f81613770565b82525050565b60006131708261362d565b61317a8185613638565b935061318a8185602086016137b3565b6131938161391f565b840191505092915050565b60006131ab602383613638565b91506131b682613930565b604082019050919050565b60006131ce602a83613638565b91506131d98261397f565b604082019050919050565b60006131f1602683613638565b91506131fc826139ce565b604082019050919050565b6000613214602283613638565b915061321f82613a1d565b604082019050919050565b6000613237601b83613638565b915061324282613a6c565b602082019050919050565b600061325a601f83613638565b915061326582613a95565b602082019050919050565b600061327d602e83613638565b915061328882613abe565b604082019050919050565b60006132a0602083613638565b91506132ab82613b0d565b602082019050919050565b60006132c3602983613638565b91506132ce82613b36565b604082019050919050565b60006132e6602383613638565b91506132f182613b85565b604082019050919050565b6000613309602583613638565b915061331482613bd4565b604082019050919050565b600061332c602483613638565b915061333782613c23565b604082019050919050565b600061334f602c83613638565b915061335a82613c72565b604082019050919050565b61336e8161379c565b82525050565b61337d816137a6565b82525050565b60006020820190506133986000830184613147565b92915050565b60006020820190506133b36000830184613156565b92915050565b600060208201905081810360008301526133d38184613165565b905092915050565b600060208201905081810360008301526133f48161319e565b9050919050565b60006020820190508181036000830152613414816131c1565b9050919050565b60006020820190508181036000830152613434816131e4565b9050919050565b6000602082019050818103600083015261345481613207565b9050919050565b600060208201905081810360008301526134748161322a565b9050919050565b600060208201905081810360008301526134948161324d565b9050919050565b600060208201905081810360008301526134b481613270565b9050919050565b600060208201905081810360008301526134d481613293565b9050919050565b600060208201905081810360008301526134f4816132b6565b9050919050565b60006020820190508181036000830152613514816132d9565b9050919050565b60006020820190508181036000830152613534816132fc565b9050919050565b600060208201905081810360008301526135548161331f565b9050919050565b6000602082019050818103600083015261357481613342565b9050919050565b60006020820190506135906000830184613365565b92915050565b60006040820190506135ab6000830185613365565b6135b86020830184613365565b9392505050565b600060a0820190506135d46000830188613365565b6135e16020830187613365565b6135ee6040830186613365565b6135fb6060830185613365565b6136086080830184613365565b9695505050505050565b60006020820190506136276000830184613374565b92915050565b600081519050919050565b600082825260208201905092915050565b60006136548261379c565b915061365f8361379c565b9250827fffffffffffffffffffffffffffffffffffffffffffffffffffffffffffffffff0382111561369457613693613892565b5b828201905092915050565b60006136aa8261379c565b91506136b58361379c565b9250826136c5576136c46138c1565b5b828204905092915050565b60006136db8261379c565b91506136e68361379c565b9250817fffffffffffffffffffffffffffffffffffffffffffffffffffffffffffffffff048311821515161561371f5761371e613892565b5b828202905092915050565b60006137358261379c565b91506137408361379c565b92508282101561375357613752613892565b5b828203905092915050565b60006137698261377c565b9050919050565b60008115159050919050565b600073ffffffffffffffffffffffffffffffffffffffff82169050919050565b6000819050919050565b600060ff82169050919050565b60005b838110156137d15780820151818401526020810190506137b6565b838111156137e0576000848401525b50505050565b600060028204905060018216806137fe57607f821691505b60208210811415613812576138116138f0565b5b50919050565b60006138238261379c565b91507fffffffffffffffffffffffffffffffffffffffffffffffffffffffffffffffff82141561385657613855613892565b5b600182019050919050565b600061386c8261379c565b91506138778361379c565b925082613887576138866138c1565b5b828206905092915050565b7f4e487b7100000000000000000000000000000000000000000000000000000000600052601160045260246000fd5b7f4e487b7100000000000000000000000000000000000000000000000000000000600052601260045260246000fd5b7f4e487b7100000000000000000000000000000000000000000000000000000000600052602260045260246000fd5b6000601f19601f8301169050919050565b7f45524332303a207472616e7366657220746f20746865207a65726f206164647260008201527f6573730000000000000000000000000000000000000000000000000000000000602082015250565b7f416d6f756e74206d757374206265206c657373207468616e20746f74616c207260008201527f65666c656374696f6e7300000000000000000000000000000000000000000000602082015250565b7f4f776e61626c653a206e6577206f776e657220697320746865207a65726f206160008201527f6464726573730000000000000000000000000000000000000000000000000000602082015250565b7f45524332303a20617070726f766520746f20746865207a65726f20616464726560008201527f7373000000000000000000000000000000000000000000000000000000000000602082015250565b7f4163636f756e7420697320616c7265616479206578636c756465640000000000600082015250565b7f416d6f756e74206d757374206265206c657373207468616e20737570706c7900600082015250565b7f496e697469616c697a61626c653a20636f6e747261637420697320616c72656160008201527f647920696e697469616c697a6564000000000000000000000000000000000000602082015250565b7f4f776e61626c653a2063616c6c6572206973206e6f7420746865206f776e6572600082015250565b7f5472616e7366657220616d6f756e74206d75737420626520677265617465722060008201527f7468616e207a65726f0000000000000000000000000000000000000000000000602082015250565b7f45524332303a206275726e20616d6f756e742065786365656473207242616c6160008201527f6e63650000000000000000000000000000000000000000000000000000000000602082015250565b7f45524332303a207472616e736665722066726f6d20746865207a65726f20616460008201527f6472657373000000000000000000000000000000000000000000000000000000602082015250565b7f45524332303a20617070726f76652066726f6d20746865207a65726f2061646460008201527f7265737300000000000000000000000000000000000000000000000000000000602082015250565b7f4578636c75646564206164647265737365732063616e6e6f742063616c6c207460008201527f6869732066756e6374696f6e0000000000000000000000000000000000000000602082015250565b613cca8161375e565b8114613cd557600080fd5b50565b613ce181613770565b8114613cec57600080fd5b50565b613cf88161379c565b8114613d0357600080fd5b5056fe45524332303a207472616e7366657220616d6f756e74206578636565647320616c6c6f77616e636545524332303a2064656372656173656420616c6c6f77616e63652062656c6f77207a65726fa26469706673582212209ae31d001b73f06ff589d4a76f6a4f50fe59e60c06501d68f9274c8c52b9e18a64736f6c63430008040033",
  "immutableReferences": {},
  "source": "// SPDX-License-Identifier: GPL-3.0-only\r\npragma solidity ^0.8.0;\r\n\r\nimport \"@openzeppelin/contracts/utils/Context.sol\";\r\nimport \"@openzeppelin/contracts/token/ERC20/IERC20.sol\";\r\nimport \"@openzeppelin/contracts/utils/math/SafeMath.sol\";\r\nimport \"@openzeppelin/contracts/utils/Address.sol\";\r\nimport \"./ProxyOwnable.sol\";\r\n\r\ncontract REFLECT5 is Context, IERC20, ProxyOwnable {\r\n    using SafeMath for uint256;\r\n    using Address for address;\r\n\r\n    mapping(address => uint256) private _rOwned;\r\n    mapping(address => uint256) private _tOwned;\r\n    mapping(address => mapping(address => uint256)) private _allowances;\r\n\r\n    //blacklist IPs\r\n    mapping(address => bool) private _isExcluded;\r\n    address[] private _excluded;\r\n\r\n    uint256 private constant MAX = ~uint256(0);\r\n    uint256 private constant MAXed = ~uint256(0);\r\n    // initial total supply of tokens\r\n    uint256 private constant _tTotal = 2000000000 * 10**6 * 10**18; // was a constant, but cannot be if tokens are burned.\r\n    uint256 private _rTotal;\r\n    uint256 private _tFeeTotal;\r\n\r\n    string private _name;\r\n    string private _symbol;\r\n    uint8 private _decimals;\r\n    address private constant _burnAddress =\r\n        0x000000000000000000000000000000000000dEaD;\r\n    uint256 private _burnFeeTotal;\r\n\r\n    // All address that need to be whitelisted are described as follows\r\n    // variable name - description\r\n    // value - address\r\n    //address public constant EMAXMint = 0x15874d65e649880c2614e7a480cb7c9a55787ff6;\r\n    address public constant EMAXMint =\r\n        0x263674F945b6903Cd421d755337710DD8083fcC1;\r\n    address public constant bitforex =\r\n        0xd81d665edeEe5762FCbC4802520910ED509dA22a;\r\n    address public constant EMAXExpenseOld =\r\n        0x331626d097cc466f6544257c2Dc18f60f6382414;\r\n    address public constant EMAXExpense =\r\n        0x87Ba6c0B3E06d4B9Ae4E5c5752D8E94AeE135470;\r\n    address public constant EMAXTreasury =\r\n        0x5EA06A2bE857D35D5E545b2bF54b2d387bB8B4bA;\r\n    address public constant EMAXEvents =\r\n        0x80dF68fA5275D0e1EE83aA4160f0b82033597f51;\r\n\r\n    mapping(address => bool) public whitelist;\r\n\r\n    // constructor () public {\r\n    function initialize() public initializer {\r\n        ownerInitialize();\r\n        _rTotal = (MAX - (MAX % _tTotal));\r\n        _name = \"EthereumMax\";\r\n        _symbol = \"eMax\";\r\n        _decimals = 18;\r\n\r\n        _rOwned[_msgSender()] = _rTotal;\r\n        emit Transfer(address(0), _msgSender(), _tTotal);\r\n    }\r\n\r\n    function name() public view returns (string memory) {\r\n        return _name;\r\n    }\r\n\r\n    function symbol() public view returns (string memory) {\r\n        return _symbol;\r\n    }\r\n\r\n    function decimals() public view returns (uint8) {\r\n        return _decimals;\r\n    }\r\n\r\n    function totalSupply() public pure override returns (uint256) {\r\n        return _tTotal;\r\n    }\r\n\r\n    // un-used function\r\n    function totalMAX() public view returns (uint256) {\r\n        return MAXed;\r\n    }\r\n\r\n    // un-used function\r\n    function ourSupply() public view returns (uint256) {\r\n        return _rTotal;\r\n    }\r\n\r\n    function balanceOf(address account) public view override returns (uint256) {\r\n        if (_isExcluded[account]) return _tOwned[account];\r\n        return tokenFromReflection(_rOwned[account]);\r\n    }\r\n\r\n    function transfer(address recipient, uint256 amount)\r\n        public\r\n        override\r\n        returns (bool)\r\n    {\r\n        _transfer(_msgSender(), recipient, amount);\r\n        return true;\r\n    }\r\n\r\n    function allowance(address owner, address spender)\r\n        public\r\n        view\r\n        override\r\n        returns (uint256)\r\n    {\r\n        return _allowances[owner][spender];\r\n    }\r\n\r\n    function approve(address spender, uint256 amount)\r\n        public\r\n        override\r\n        returns (bool)\r\n    {\r\n        _approve(_msgSender(), spender, amount);\r\n        return true;\r\n    }\r\n\r\n    function transferFrom(\r\n        address sender,\r\n        address recipient,\r\n        uint256 amount\r\n    ) public override returns (bool) {\r\n        _transfer(sender, recipient, amount);\r\n        _approve(\r\n            sender,\r\n            _msgSender(),\r\n            _allowances[sender][_msgSender()].sub(\r\n                amount,\r\n                \"ERC20: transfer amount exceeds allowance\"\r\n            )\r\n        );\r\n        return true;\r\n    }\r\n\r\n    function increaseAllowance(address spender, uint256 addedValue)\r\n        public\r\n        virtual\r\n        returns (bool)\r\n    {\r\n        _approve(\r\n            _msgSender(),\r\n            spender,\r\n            _allowances[_msgSender()][spender].add(addedValue)\r\n        );\r\n        return true;\r\n    }\r\n\r\n    function decreaseAllowance(address spender, uint256 subtractedValue)\r\n        public\r\n        virtual\r\n        returns (bool)\r\n    {\r\n        _approve(\r\n            _msgSender(),\r\n            spender,\r\n            _allowances[_msgSender()][spender].sub(\r\n                subtractedValue,\r\n                \"ERC20: decreased allowance below zero\"\r\n            )\r\n        );\r\n        return true;\r\n    }\r\n\r\n    function isExcluded(address account) public view returns (bool) {\r\n        return _isExcluded[account];\r\n    }\r\n\r\n    function totalFees() public view returns (uint256) {\r\n        return _tFeeTotal;\r\n    }\r\n\r\n    function reflect(uint256 tAmount) public {\r\n        address sender = _msgSender();\r\n        require(\r\n            !_isExcluded[sender],\r\n            \"Excluded addresses cannot call this function\"\r\n        );\r\n        (uint256 rAmount, , , , ) = getValues(tAmount);\r\n        _rOwned[sender] = _rOwned[sender].sub(rAmount);\r\n        _rTotal = _rTotal.sub(rAmount);\r\n        _tFeeTotal = _tFeeTotal.add(tAmount);\r\n    }\r\n\r\n    function reflectionFromToken(uint256 tAmount, bool deductTransferFee)\r\n        public\r\n        view\r\n        returns (uint256)\r\n    {\r\n        require(tAmount <= _tTotal, \"Amount must be less than supply\");\r\n        if (!deductTransferFee) {\r\n            (uint256 rAmount, , , , ) = getValues(tAmount);\r\n            return rAmount;\r\n        } else {\r\n            (, uint256 rTransferAmount, , , ) = getValues(tAmount);\r\n            return rTransferAmount;\r\n        }\r\n    }\r\n\r\n    function tokenFromReflection(uint256 rAmount)\r\n        public\r\n        view\r\n        returns (uint256)\r\n    {\r\n        require(\r\n            rAmount <= _rTotal,\r\n            \"Amount must be less than total reflections\"\r\n        );\r\n        uint256 currentRate = _getRate();\r\n        return rAmount.div(currentRate);\r\n    }\r\n\r\n    function _approve(\r\n        address owner,\r\n        address spender,\r\n        uint256 amount\r\n    ) private {\r\n        require(owner != address(0), \"ERC20: approve from the zero address\");\r\n        require(spender != address(0), \"ERC20: approve to the zero address\");\r\n\r\n        _allowances[owner][spender] = amount;\r\n        emit Approval(owner, spender, amount);\r\n    }\r\n\r\n    function _transfer(\r\n        address sender,\r\n        address recipient,\r\n        uint256 amount\r\n    ) private {\r\n        require(sender != address(0), \"ERC20: transfer from the zero address\");\r\n        require(recipient != address(0), \"ERC20: transfer to the zero address\");\r\n        require(amount > 0, \"Transfer amount must be greater than zero\");\r\n\r\n        // transaction fees\r\n        uint256 txFee = 6; // reflection fee\r\n        uint256 burnFee = 3; // burn fee\r\n\r\n        // Whitelisted the deployer\r\n        // more incoming!\r\n        if (\r\n            sender == bitforex ||\r\n            recipient == bitforex ||\r\n            sender == EMAXExpenseOld ||\r\n            recipient == EMAXExpenseOld ||\r\n            sender == EMAXExpense ||\r\n            recipient == EMAXExpense ||\r\n            sender == EMAXTreasury ||\r\n            recipient == EMAXTreasury ||\r\n            sender == EMAXEvents ||\r\n            recipient == EMAXEvents ||\r\n            sender == EMAXMint ||\r\n            recipient == EMAXMint\r\n        ) {\r\n            txFee = 0;\r\n            burnFee = 0;\r\n        }\r\n\r\n        // Now un-used, not sure what original purpose of this was.\r\n        // uint256 totalFeePercentage = txFee + burnFee;\r\n\r\n        (\r\n            uint256 rAmount,\r\n            uint256 rTransferAmount,\r\n            uint256 rFee,\r\n            uint256 tTransferAmount,\r\n            uint256 tFee\r\n        ) = getValues(amount);\r\n\r\n        uint256 currentRate = _getRate();\r\n\r\n        _rOwned[sender] = _rOwned[sender].sub(rAmount);\r\n\r\n        _rOwned[recipient] = _rOwned[recipient].add(rTransferAmount);\r\n\r\n        if (_isExcluded[sender]) {\r\n            _tOwned[sender] = _tOwned[sender].sub(amount);\r\n        }\r\n        if (_isExcluded[recipient]) {\r\n            _tOwned[recipient] = _tOwned[recipient].add(tTransferAmount);\r\n        }\r\n\r\n        // txfee is 6% but not for whitelist\r\n        //uint256 tFee = amount.mul(txFee).div(100);\r\n        // deflation amount for bank ratio\r\n        //uint256 rFee = tFee.mul(currentRate);\r\n        _reflectFee(rFee, tFee);\r\n        emit Transfer(sender, recipient, tTransferAmount);\r\n\r\n        // Burn\r\n        uint256 tBurn = amount.mul(burnFee).div(100);\r\n        uint256 rBurn = tBurn.mul(currentRate);\r\n        _burnTokens(sender, tBurn, rBurn);\r\n    }\r\n\r\n    function _reflectFee(uint256 rFee, uint256 tFee) private {\r\n        _rTotal = _rTotal.sub(rFee);\r\n        _tFeeTotal = _tFeeTotal.add(tFee);\r\n    }\r\n\r\n    // Reflect discrepancies\r\n    // 1. _getTValues --> tfee, tTransferAmount\r\n    // 2. _getRValues --> rAmount, rtransferAmount, rFee\r\n    // 3. uint256 totalFeePercentage removed from params. Not needed. 6% baked in to 'tFee' in _getTValues, which is used to calculate _getRvalues.\r\n    // These functions have been recreated below this function...\r\n    function getValues(uint256 tAmount)\r\n        public\r\n        view\r\n        returns (\r\n            uint256,\r\n            uint256,\r\n            uint256,\r\n            uint256,\r\n            uint256\r\n        )\r\n    {\r\n        uint256 currentRate = _getRate();\r\n\r\n        (uint256 tTransferAmount, uint256 tFee) = _getTValues(tAmount);\r\n        (uint256 rAmount, uint256 rTransferAmount, uint256 rFee) = _getRValues(\r\n            tAmount,\r\n            tFee,\r\n            currentRate\r\n        );\r\n\r\n        //Moved to _getTValues & _getRValues\r\n        //uint256 totalFee = tAmount.mul(totalFeePercentage).div(100);\r\n\r\n        //uint256 tTransferAmount = tAmount.sub(totalFee); // this line subracts fee from the total being sent... I dont believe this is desirable.\r\n\r\n        //uint256 rAmount = tAmount.mul(currentRate);\r\n\r\n        //uint256 rFee = totalFee.mul(currentRate);\r\n        //uint256 rTransferAmount = rAmount.sub(rFee);\r\n        return (rAmount, rTransferAmount, rFee, tTransferAmount, tFee);\r\n    }\r\n\r\n    function _getRate() public view returns (uint256) {\r\n        (uint256 rSupply, uint256 tSupply) = getCurrentSupply();\r\n        return rSupply.div(tSupply);\r\n    }\r\n\r\n    function getCurrentSupply() public view returns (uint256, uint256) {\r\n        uint256 rSupply = _rTotal;\r\n        uint256 tSupply = _tTotal;\r\n        uint256 excludedLength = _excluded.length;\r\n        for (uint256 i = 0; i < excludedLength; i++) {\r\n            if (\r\n                _rOwned[_excluded[i]] > rSupply ||\r\n                _tOwned[_excluded[i]] > tSupply\r\n            ) return (_rTotal, _tTotal);\r\n            rSupply = rSupply.sub(_rOwned[_excluded[i]]);\r\n            tSupply = tSupply.sub(_tOwned[_excluded[i]]);\r\n        }\r\n        if (rSupply < _rTotal.div(_tTotal)) return (_rTotal, _tTotal);\r\n\r\n        return (rSupply, tSupply);\r\n    }\r\n\r\n    //------------------- Owner Only Functions\r\n\r\n    function excludeAccount(address account) external {\r\n        require(!_isExcluded[account], \"Account is already excluded\");\r\n        if (_rOwned[account] > 0) {\r\n            _tOwned[account] = tokenFromReflection(_rOwned[account]);\r\n        }\r\n        _isExcluded[account] = true;\r\n        _excluded.push(account);\r\n    }\r\n\r\n    function includeAccount(address account) external {\r\n        require(_isExcluded[account], \"Account is already excluded\");\r\n        for (uint256 i = 0; i < _excluded.length; i++) {\r\n            if (_excluded[i] == account) {\r\n                _excluded[i] = _excluded[_excluded.length - 1];\r\n                _tOwned[account] = 0;\r\n                _isExcluded[account] = false;\r\n                _excluded.pop();\r\n                break;\r\n            }\r\n        }\r\n    }\r\n\r\n    //------------------- Burn Baby Burn\r\n    // not using the _burn function in IERC20 because that doesnt take into account r & t values.\r\n    function _burnTokens(\r\n        address sender,\r\n        uint256 tBurn,\r\n        uint256 rBurn\r\n    ) internal {\r\n        require(\r\n            _rOwned[sender] >= rBurn,\r\n            \"ERC20: burn amount exceeds rBalance\"\r\n        );\r\n\r\n        _rOwned[sender] = _rOwned[sender].sub(rBurn); // line added burn was only being added to burn address, not subtracted from senders account.\r\n\r\n        _rOwned[_burnAddress] = _rOwned[_burnAddress].add(rBurn);\r\n\r\n        if (_isExcluded[_burnAddress])\r\n            _tOwned[_burnAddress] = _tOwned[_burnAddress].add(tBurn);\r\n\r\n        //emit Transfer(sender, _burnAddress, tBurn);\r\n        // reduce _tTotal\r\n        //_tTotalBurn = _tTotalBurn - tBurn;\r\n        // reduce _rtotal\r\n        //_rTotal = _rTotal - rBurn;\r\n        _burnFeeTotal = _burnFeeTotal.add(tBurn);\r\n    }\r\n\r\n    //------------ get t and r values------------\r\n    // NEW\r\n    function _getTValues(uint256 tAmount)\r\n        private\r\n        pure\r\n        returns (uint256, uint256)\r\n    {\r\n        // reflective protocol is 1% hence the div(100), I added in mul(6)\r\n        // eMax is 6%\r\n        uint256 tFee = tAmount.mul(6).div(100);\r\n        uint256 tTransferAmount = tAmount.sub(tFee);\r\n        return (tTransferAmount, tFee);\r\n    }\r\n\r\n    // NEW\r\n    function _getRValues(\r\n        uint256 tAmount,\r\n        uint256 tFee,\r\n        uint256 currentRate\r\n    )\r\n        private\r\n        pure\r\n        returns (\r\n            uint256,\r\n            uint256,\r\n            uint256\r\n        )\r\n    {\r\n        uint256 rAmount = tAmount.mul(currentRate);\r\n        uint256 rFee = tFee.mul(currentRate);\r\n        uint256 rTransferAmount = rAmount.sub(rFee);\r\n        return (rAmount, rTransferAmount, rFee);\r\n    }\r\n}\r\n",
  "sourcePath": "C:\\Users\\epowl\\EMAX-Contracts\\contracts\\REFLECT5.sol",
  "compiler": {
    "name": "solc",
    "version": "0.8.4+commit.c7e474f2.Emscripten.clang"
  },
  "schemaVersion": "3.4.3",
  "updatedAt": "2021-11-12T18:12:07.235Z",
  "devdoc": {
    "kind": "dev",
    "methods": {
      "allowance(address,address)": {
        "details": "Returns the remaining number of tokens that `spender` will be allowed to spend on behalf of `owner` through {transferFrom}. This is zero by default. This value changes when {approve} or {transferFrom} are called."
      },
      "approve(address,uint256)": {
        "details": "Sets `amount` as the allowance of `spender` over the caller's tokens. Returns a boolean value indicating whether the operation succeeded. IMPORTANT: Beware that changing an allowance with this method brings the risk that someone may use both the old and the new allowance by unfortunate transaction ordering. One possible solution to mitigate this race condition is to first reduce the spender's allowance to 0 and set the desired value afterwards: https://github.com/ethereum/EIPs/issues/20#issuecomment-263524729 Emits an {Approval} event."
      },
      "balanceOf(address)": {
        "details": "Returns the amount of tokens owned by `account`."
      },
      "owner()": {
        "details": "Returns the address of the current owner."
      },
      "ownerInitialize()": {
        "details": "Initializes the contract setting the deployer as the initial owner."
      },
      "renounceOwnership()": {
        "details": "Leaves the contract without owner. It will not be possible to call `onlyOwner` functions anymore. Can only be called by the current owner. NOTE: Renouncing ownership will leave the contract without an owner, thereby removing any functionality that is only available to the owner."
      },
      "totalSupply()": {
        "details": "Returns the amount of tokens in existence."
      },
      "transfer(address,uint256)": {
        "details": "Moves `amount` tokens from the caller's account to `recipient`. Returns a boolean value indicating whether the operation succeeded. Emits a {Transfer} event."
      },
      "transferFrom(address,address,uint256)": {
        "details": "Moves `amount` tokens from `sender` to `recipient` using the allowance mechanism. `amount` is then deducted from the caller's allowance. Returns a boolean value indicating whether the operation succeeded. Emits a {Transfer} event."
      },
      "transferOwnership(address)": {
        "details": "Transfers ownership of the contract to a new account (`newOwner`). Can only be called by the current owner."
      }
    },
    "version": 1
  },
  "userdoc": {
    "kind": "user",
    "methods": {},
    "version": 1
  }
}