{
  "contractName": "REFLECT5",
  "abi": [
    {
      "anonymous": false,
      "inputs": [
        {
          "indexed": true,
          "internalType": "address",
          "name": "owner",
          "type": "address"
        },
        {
          "indexed": true,
          "internalType": "address",
          "name": "spender",
          "type": "address"
        },
        {
          "indexed": false,
          "internalType": "uint256",
          "name": "value",
          "type": "uint256"
        }
      ],
      "name": "Approval",
      "type": "event"
    },
    {
      "anonymous": false,
      "inputs": [
        {
          "indexed": true,
          "internalType": "address",
          "name": "previousOwner",
          "type": "address"
        },
        {
          "indexed": true,
          "internalType": "address",
          "name": "newOwner",
          "type": "address"
        }
      ],
      "name": "OwnershipTransferred",
      "type": "event"
    },
    {
      "anonymous": false,
      "inputs": [
        {
          "indexed": true,
          "internalType": "address",
          "name": "from",
          "type": "address"
        },
        {
          "indexed": true,
          "internalType": "address",
          "name": "to",
          "type": "address"
        },
        {
          "indexed": false,
          "internalType": "uint256",
          "name": "value",
          "type": "uint256"
        }
      ],
      "name": "Transfer",
      "type": "event"
    },
    {
      "inputs": [],
      "name": "EMAXEvents",
      "outputs": [
        {
          "internalType": "address",
          "name": "",
          "type": "address"
        }
      ],
      "stateMutability": "view",
      "type": "function"
    },
    {
      "inputs": [],
      "name": "EMAXExpense",
      "outputs": [
        {
          "internalType": "address",
          "name": "",
          "type": "address"
        }
      ],
      "stateMutability": "view",
      "type": "function"
    },
    {
      "inputs": [],
      "name": "EMAXExpenseOld",
      "outputs": [
        {
          "internalType": "address",
          "name": "",
          "type": "address"
        }
      ],
      "stateMutability": "view",
      "type": "function"
    },
    {
      "inputs": [],
      "name": "EMAXMint",
      "outputs": [
        {
          "internalType": "address",
          "name": "",
          "type": "address"
        }
      ],
      "stateMutability": "view",
      "type": "function"
    },
    {
      "inputs": [],
      "name": "EMAXTreasury",
      "outputs": [
        {
          "internalType": "address",
          "name": "",
          "type": "address"
        }
      ],
      "stateMutability": "view",
      "type": "function"
    },
    {
      "inputs": [],
      "name": "bitforex",
      "outputs": [
        {
          "internalType": "address",
          "name": "",
          "type": "address"
        }
      ],
      "stateMutability": "view",
      "type": "function"
    },
    {
      "inputs": [],
      "name": "owner",
      "outputs": [
        {
          "internalType": "address",
          "name": "",
          "type": "address"
        }
      ],
      "stateMutability": "view",
      "type": "function"
    },
    {
      "inputs": [],
      "name": "ownerInitialize",
      "outputs": [],
      "stateMutability": "nonpayable",
      "type": "function"
    },
    {
      "inputs": [],
      "name": "renounceOwnership",
      "outputs": [],
      "stateMutability": "nonpayable",
      "type": "function"
    },
    {
      "inputs": [
        {
          "internalType": "address",
          "name": "newOwner",
          "type": "address"
        }
      ],
      "name": "transferOwnership",
      "outputs": [],
      "stateMutability": "nonpayable",
      "type": "function"
    },
    {
      "inputs": [
        {
          "internalType": "address",
          "name": "",
          "type": "address"
        }
      ],
      "name": "whitelist",
      "outputs": [
        {
          "internalType": "bool",
          "name": "",
          "type": "bool"
        }
      ],
      "stateMutability": "view",
      "type": "function"
    },
    {
      "inputs": [],
      "name": "initialize",
      "outputs": [],
      "stateMutability": "nonpayable",
      "type": "function"
    },
    {
      "inputs": [],
      "name": "name",
      "outputs": [
        {
          "internalType": "string",
          "name": "",
          "type": "string"
        }
      ],
      "stateMutability": "view",
      "type": "function"
    },
    {
      "inputs": [],
      "name": "symbol",
      "outputs": [
        {
          "internalType": "string",
          "name": "",
          "type": "string"
        }
      ],
      "stateMutability": "view",
      "type": "function"
    },
    {
      "inputs": [],
      "name": "decimals",
      "outputs": [
        {
          "internalType": "uint8",
          "name": "",
          "type": "uint8"
        }
      ],
      "stateMutability": "view",
      "type": "function"
    },
    {
      "inputs": [],
      "name": "totalSupply",
      "outputs": [
        {
          "internalType": "uint256",
          "name": "",
          "type": "uint256"
        }
      ],
      "stateMutability": "pure",
      "type": "function"
    },
    {
      "inputs": [
        {
          "internalType": "address",
          "name": "account",
          "type": "address"
        }
      ],
      "name": "balanceOf",
      "outputs": [
        {
          "internalType": "uint256",
          "name": "",
          "type": "uint256"
        }
      ],
      "stateMutability": "view",
      "type": "function"
    },
    {
      "inputs": [
        {
          "internalType": "address",
          "name": "recipient",
          "type": "address"
        },
        {
          "internalType": "uint256",
          "name": "amount",
          "type": "uint256"
        }
      ],
      "name": "transfer",
      "outputs": [
        {
          "internalType": "bool",
          "name": "",
          "type": "bool"
        }
      ],
      "stateMutability": "nonpayable",
      "type": "function"
    },
    {
      "inputs": [
        {
          "internalType": "address",
          "name": "owner",
          "type": "address"
        },
        {
          "internalType": "address",
          "name": "spender",
          "type": "address"
        }
      ],
      "name": "allowance",
      "outputs": [
        {
          "internalType": "uint256",
          "name": "",
          "type": "uint256"
        }
      ],
      "stateMutability": "view",
      "type": "function"
    },
    {
      "inputs": [
        {
          "internalType": "address",
          "name": "spender",
          "type": "address"
        },
        {
          "internalType": "uint256",
          "name": "amount",
          "type": "uint256"
        }
      ],
      "name": "approve",
      "outputs": [
        {
          "internalType": "bool",
          "name": "",
          "type": "bool"
        }
      ],
      "stateMutability": "nonpayable",
      "type": "function"
    },
    {
      "inputs": [
        {
          "internalType": "address",
          "name": "sender",
          "type": "address"
        },
        {
          "internalType": "address",
          "name": "recipient",
          "type": "address"
        },
        {
          "internalType": "uint256",
          "name": "amount",
          "type": "uint256"
        }
      ],
      "name": "transferFrom",
      "outputs": [
        {
          "internalType": "bool",
          "name": "",
          "type": "bool"
        }
      ],
      "stateMutability": "nonpayable",
      "type": "function"
    },
    {
      "inputs": [
        {
          "internalType": "address",
          "name": "spender",
          "type": "address"
        },
        {
          "internalType": "uint256",
          "name": "addedValue",
          "type": "uint256"
        }
      ],
      "name": "increaseAllowance",
      "outputs": [
        {
          "internalType": "bool",
          "name": "",
          "type": "bool"
        }
      ],
      "stateMutability": "nonpayable",
      "type": "function"
    },
    {
      "inputs": [
        {
          "internalType": "address",
          "name": "spender",
          "type": "address"
        },
        {
          "internalType": "uint256",
          "name": "subtractedValue",
          "type": "uint256"
        }
      ],
      "name": "decreaseAllowance",
      "outputs": [
        {
          "internalType": "bool",
          "name": "",
          "type": "bool"
        }
      ],
      "stateMutability": "nonpayable",
      "type": "function"
    },
    {
      "inputs": [
        {
          "internalType": "address",
          "name": "account",
          "type": "address"
        }
      ],
      "name": "isExcluded",
      "outputs": [
        {
          "internalType": "bool",
          "name": "",
          "type": "bool"
        }
      ],
      "stateMutability": "view",
      "type": "function"
    },
    {
      "inputs": [],
      "name": "totalFees",
      "outputs": [
        {
          "internalType": "uint256",
          "name": "",
          "type": "uint256"
        }
      ],
      "stateMutability": "view",
      "type": "function"
    },
    {
      "inputs": [
        {
          "internalType": "uint256",
          "name": "tAmount",
          "type": "uint256"
        }
      ],
      "name": "reflect",
      "outputs": [],
      "stateMutability": "nonpayable",
      "type": "function"
    },
    {
      "inputs": [
        {
          "internalType": "uint256",
          "name": "tAmount",
          "type": "uint256"
        },
        {
          "internalType": "bool",
          "name": "deductTransferFee",
          "type": "bool"
        }
      ],
      "name": "reflectionFromToken",
      "outputs": [
        {
          "internalType": "uint256",
          "name": "",
          "type": "uint256"
        }
      ],
      "stateMutability": "view",
      "type": "function"
    },
    {
      "inputs": [
        {
          "internalType": "uint256",
          "name": "rAmount",
          "type": "uint256"
        }
      ],
      "name": "tokenFromReflection",
      "outputs": [
        {
          "internalType": "uint256",
          "name": "",
          "type": "uint256"
        }
      ],
      "stateMutability": "view",
      "type": "function"
    },
    {
      "inputs": [
        {
          "internalType": "uint256",
          "name": "tAmount",
          "type": "uint256"
        }
      ],
      "name": "getValues",
      "outputs": [
        {
          "internalType": "uint256",
          "name": "",
          "type": "uint256"
        },
        {
          "internalType": "uint256",
          "name": "",
          "type": "uint256"
        },
        {
          "internalType": "uint256",
          "name": "",
          "type": "uint256"
        },
        {
          "internalType": "uint256",
          "name": "",
          "type": "uint256"
        },
        {
          "internalType": "uint256",
          "name": "",
          "type": "uint256"
        }
      ],
      "stateMutability": "view",
      "type": "function"
    },
    {
      "inputs": [],
      "name": "_getRate",
      "outputs": [
        {
          "internalType": "uint256",
          "name": "",
          "type": "uint256"
        }
      ],
      "stateMutability": "view",
      "type": "function"
    },
    {
      "inputs": [],
      "name": "getCurrentSupply",
      "outputs": [
        {
          "internalType": "uint256",
          "name": "",
          "type": "uint256"
        },
        {
          "internalType": "uint256",
          "name": "",
          "type": "uint256"
        }
      ],
      "stateMutability": "view",
      "type": "function"
    },
    {
      "inputs": [
        {
          "internalType": "address",
          "name": "account",
          "type": "address"
        }
      ],
      "name": "excludeAccount",
      "outputs": [],
      "stateMutability": "nonpayable",
      "type": "function"
    },
    {
      "inputs": [
        {
          "internalType": "address",
          "name": "account",
          "type": "address"
        }
      ],
      "name": "includeAccount",
      "outputs": [],
      "stateMutability": "nonpayable",
      "type": "function"
    }
  ],
  "bytecode": "0x608060405234801561001057600080fd5b50613d4a806100206000396000f3fe608060405234801561001057600080fd5b50600436106101fb5760003560e01c8063715018a61161011a578063a457c2d7116100ad578063dab506ba1161007c578063dab506ba146105d5578063dd62ed3e146105f3578063f2cc0c1814610623578063f2fde38b1461063f578063f84354f11461065b576101fb565b8063a457c2d714610511578063a9059cbb14610541578063b29e522c14610571578063cba0e996146105a5576101fb565b806394e10784116100e957806394e107841461048757806395b12b2c146104a557806395d89b41146104c35780639b19251a146104e1576101fb565b8063715018a6146104375780638129fc1c146104415780638a3896891461044b5780638da5cb5b14610469576101fb565b80632d838119116101925780634549b039116101615780634549b0391461039a5780634f3e1efc146103ca5780635e18d972146103e957806370a0823114610407576101fb565b80632d838119146102fe578063313ce5671461032e5780633513eada1461034c578063395093511461036a576101fb565b806313114a9d116101ce57806313114a9d1461028857806318160ddd146102a65780631b4e8cc2146102c457806323b872dd146102ce576101fb565b8063053ab1821461020057806306fdde031461021c578063095ea7b31461023a57806309749fa71461026a575b600080fd5b61021a600480360381019061021591906130a3565b610677565b005b6102246107f1565b604051610231919061337a565b60405180910390f35b610254600480360381019061024f9190613067565b610883565b604051610261919061335f565b60405180910390f35b6102726108a1565b60405161027f9190613344565b60405180910390f35b6102906108b9565b60405161029d919061353c565b60405180910390f35b6102ae6108c3565b6040516102bb919061353c565b60405180910390f35b6102cc6108d9565b005b6102e860048036038101906102e39190613018565b610a5b565b6040516102f5919061335f565b60405180910390f35b610318600480360381019061031391906130a3565b610b34565b604051610325919061353c565b60405180910390f35b610336610ba2565b60405161034391906135d3565b60405180910390f35b610354610bb9565b6040516103619190613344565b60405180910390f35b610384600480360381019061037f9190613067565b610bd1565b604051610391919061335f565b60405180910390f35b6103b460048036038101906103af91906130cc565b610c84565b6040516103c1919061353c565b60405180910390f35b6103d2610d12565b6040516103e0929190613557565b60405180910390f35b6103f1611095565b6040516103fe9190613344565b60405180910390f35b610421600480360381019061041c9190612fb3565b6110ad565b60405161042e919061353c565b60405180910390f35b61043f611198565b005b6104496112d4565b005b610453611560565b6040516104609190613344565b60405180910390f35b610471611578565b60405161047e9190613344565b60405180910390f35b61048f6115a1565b60405161049c919061353c565b60405180910390f35b6104ad6115cc565b6040516104ba9190613344565b60405180910390f35b6104cb6115e4565b6040516104d8919061337a565b60405180910390f35b6104fb60048036038101906104f69190612fb3565b611676565b604051610508919061335f565b60405180910390f35b61052b60048036038101906105269190613067565b611696565b604051610538919061335f565b60405180910390f35b61055b60048036038101906105569190613067565b611763565b604051610568919061335f565b60405180910390f35b61058b600480360381019061058691906130a3565b611781565b60405161059c959493929190613580565b60405180910390f35b6105bf60048036038101906105ba9190612fb3565b6117d8565b6040516105cc919061335f565b60405180910390f35b6105dd61182e565b6040516105ea9190613344565b60405180910390f35b61060d60048036038101906106089190612fdc565b611846565b60405161061a919061353c565b60405180910390f35b61063d60048036038101906106389190612fb3565b6118cd565b005b61065960048036038101906106549190612fb3565b611aec565b005b61067560048036038101906106709190612fb3565b611c98565b005b6000610681611fea565b9050600460008273ffffffffffffffffffffffffffffffffffffffff1673ffffffffffffffffffffffffffffffffffffffff16815260200190815260200160002060009054906101000a900460ff1615610710576040517f08c379a00000000000000000000000000000000000000000000000000000000081526004016107079061351c565b60405180910390fd5b600061071b83611781565b50505050905061077381600160008573ffffffffffffffffffffffffffffffffffffffff1673ffffffffffffffffffffffffffffffffffffffff16815260200190815260200160002054611ff290919063ffffffff16565b600160008473ffffffffffffffffffffffffffffffffffffffff1673ffffffffffffffffffffffffffffffffffffffff168152602001908152602001600020819055506107cb81600654611ff290919063ffffffff16565b6006819055506107e68360075461200890919063ffffffff16565b600781905550505050565b606060088054610800906137a7565b80601f016020809104026020016040519081016040528092919081815260200182805461082c906137a7565b80156108795780601f1061084e57610100808354040283529160200191610879565b820191906000526020600020905b81548152906001019060200180831161085c57829003601f168201915b5050505050905090565b6000610897610890611fea565b848461201e565b6001905092915050565b73263674f945b6903cd421d755337710dd8083fcc181565b6000600754905090565b60006d629b8c891b267182b61400000000905090565b600060019054906101000a900460ff16806108ff575060008054906101000a900460ff16155b61093e576040517f08c379a00000000000000000000000000000000000000000000000000000000081526004016109359061345c565b60405180910390fd5b60008060019054906101000a900460ff16159050801561098e576001600060016101000a81548160ff02191690831515021790555060016000806101000a81548160ff0219169083151502179055505b6000610998611fea565b905080600060026101000a81548173ffffffffffffffffffffffffffffffffffffffff021916908373ffffffffffffffffffffffffffffffffffffffff1602179055508073ffffffffffffffffffffffffffffffffffffffff16600073ffffffffffffffffffffffffffffffffffffffff167f8be0079c531659141344cd1fd0a4f28419497f9722a3daafe3b4186f6b6457e060405160405180910390a3508015610a585760008060016101000a81548160ff0219169083151502179055505b50565b6000610a688484846121e9565b610b2984610a74611fea565b610b2485604051806060016040528060288152602001613cc860289139600360008b73ffffffffffffffffffffffffffffffffffffffff1673ffffffffffffffffffffffffffffffffffffffff1681526020019081526020016000206000610ada611fea565b73ffffffffffffffffffffffffffffffffffffffff1673ffffffffffffffffffffffffffffffffffffffff16815260200190815260200160002054612a949092919063ffffffff16565b61201e565b600190509392505050565b6000600654821115610b7b576040517f08c379a0000000000000000000000000000000000000000000000000000000008152600401610b72906133bc565b60405180910390fd5b6000610b856115a1565b9050610b9a8184612ae990919063ffffffff16565b915050919050565b6000600a60009054906101000a900460ff16905090565b73331626d097cc466f6544257c2dc18f60f638241481565b6000610c7a610bde611fea565b84610c758560036000610bef611fea565b73ffffffffffffffffffffffffffffffffffffffff1673ffffffffffffffffffffffffffffffffffffffff16815260200190815260200160002060008973ffffffffffffffffffffffffffffffffffffffff1673ffffffffffffffffffffffffffffffffffffffff1681526020019081526020016000205461200890919063ffffffff16565b61201e565b6001905092915050565b60006d629b8c891b267182b61400000000831115610cd7576040517f08c379a0000000000000000000000000000000000000000000000000000000008152600401610cce9061343c565b60405180910390fd5b81610cf6576000610ce784611781565b50505050905080915050610d0c565b6000610d0184611781565b505050915050809150505b92915050565b6000806000600654905060006d629b8c891b267182b6140000000090506000600580549050905060005b8181101561103e57836001600060058481548110610d83577f4e487b7100000000000000000000000000000000000000000000000000000000600052603260045260246000fd5b9060005260206000200160009054906101000a900473ffffffffffffffffffffffffffffffffffffffff1673ffffffffffffffffffffffffffffffffffffffff1673ffffffffffffffffffffffffffffffffffffffff168152602001908152602001600020541180610e975750826002600060058481548110610e2f577f4e487b7100000000000000000000000000000000000000000000000000000000600052603260045260246000fd5b9060005260206000200160009054906101000a900473ffffffffffffffffffffffffffffffffffffffff1673ffffffffffffffffffffffffffffffffffffffff1673ffffffffffffffffffffffffffffffffffffffff16815260200190815260200160002054115b15610ebb576006546d629b8c891b267182b614000000009550955050505050611091565b610f716001600060058481548110610efc577f4e487b7100000000000000000000000000000000000000000000000000000000600052603260045260246000fd5b9060005260206000200160009054906101000a900473ffffffffffffffffffffffffffffffffffffffff1673ffffffffffffffffffffffffffffffffffffffff1673ffffffffffffffffffffffffffffffffffffffff1681526020019081526020016000205485611ff290919063ffffffff16565b93506110296002600060058481548110610fb4577f4e487b7100000000000000000000000000000000000000000000000000000000600052603260045260246000fd5b9060005260206000200160009054906101000a900473ffffffffffffffffffffffffffffffffffffffff1673ffffffffffffffffffffffffffffffffffffffff1673ffffffffffffffffffffffffffffffffffffffff1681526020019081526020016000205484611ff290919063ffffffff16565b92508080611036906137d9565b915050610d3c565b506110626d629b8c891b267182b61400000000600654612ae990919063ffffffff16565b831015611087576006546d629b8c891b267182b6140000000094509450505050611091565b8282945094505050505b9091565b7380df68fa5275d0e1ee83aa4160f0b82033597f5181565b6000600460008373ffffffffffffffffffffffffffffffffffffffff1673ffffffffffffffffffffffffffffffffffffffff16815260200190815260200160002060009054906101000a900460ff161561114857600260008373ffffffffffffffffffffffffffffffffffffffff1673ffffffffffffffffffffffffffffffffffffffff168152602001908152602001600020549050611193565b611190600160008473ffffffffffffffffffffffffffffffffffffffff1673ffffffffffffffffffffffffffffffffffffffff16815260200190815260200160002054610b34565b90505b919050565b6111a0611fea565b73ffffffffffffffffffffffffffffffffffffffff166111be611578565b73ffffffffffffffffffffffffffffffffffffffff1614611214576040517f08c379a000000000000000000000000000000000000000000000000000000000815260040161120b9061347c565b60405180910390fd5b600073ffffffffffffffffffffffffffffffffffffffff16600060029054906101000a900473ffffffffffffffffffffffffffffffffffffffff1673ffffffffffffffffffffffffffffffffffffffff167f8be0079c531659141344cd1fd0a4f28419497f9722a3daafe3b4186f6b6457e060405160405180910390a360008060026101000a81548173ffffffffffffffffffffffffffffffffffffffff021916908373ffffffffffffffffffffffffffffffffffffffff160217905550565b600060019054906101000a900460ff16806112fa575060008054906101000a900460ff16155b611339576040517f08c379a00000000000000000000000000000000000000000000000000000000081526004016113309061345c565b60405180910390fd5b60008060019054906101000a900460ff161590508015611389576001600060016101000a81548160ff02191690831515021790555060016000806101000a81548160ff0219169083151502179055505b6113916108d9565b6d629b8c891b267182b614000000006000196113ad9190613822565b6000196113ba91906136eb565b6006819055506040518060400160405280600b81526020017f457468657265756d4d61780000000000000000000000000000000000000000008152506008908051906020019061140b929190612ed1565b506040518060400160405280600481526020017f654d61780000000000000000000000000000000000000000000000000000000081525060099080519060200190611457929190612ed1565b506012600a60006101000a81548160ff021916908360ff16021790555060065460016000611483611fea565b73ffffffffffffffffffffffffffffffffffffffff1673ffffffffffffffffffffffffffffffffffffffff168152602001908152602001600020819055506114c9611fea565b73ffffffffffffffffffffffffffffffffffffffff16600073ffffffffffffffffffffffffffffffffffffffff167fddf252ad1be2c89b69c2b068fc378daa952ba7f163c4a11628f55a4df523b3ef6d629b8c891b267182b61400000000604051611534919061353c565b60405180910390a3801561155d5760008060016101000a81548160ff0219169083151502179055505b50565b7387ba6c0b3e06d4b9ae4e5c5752d8e94aee13547081565b60008060029054906101000a900473ffffffffffffffffffffffffffffffffffffffff16905090565b60008060006115ae610d12565b915091506115c58183612ae990919063ffffffff16565b9250505090565b73d81d665edeee5762fcbc4802520910ed509da22a81565b6060600980546115f3906137a7565b80601f016020809104026020016040519081016040528092919081815260200182805461161f906137a7565b801561166c5780601f106116415761010080835404028352916020019161166c565b820191906000526020600020905b81548152906001019060200180831161164f57829003601f168201915b5050505050905090565b600c6020528060005260406000206000915054906101000a900460ff1681565b60006117596116a3611fea565b8461175485604051806060016040528060258152602001613cf060259139600360006116cd611fea565b73ffffffffffffffffffffffffffffffffffffffff1673ffffffffffffffffffffffffffffffffffffffff16815260200190815260200160002060008a73ffffffffffffffffffffffffffffffffffffffff1673ffffffffffffffffffffffffffffffffffffffff16815260200190815260200160002054612a949092919063ffffffff16565b61201e565b6001905092915050565b6000611777611770611fea565b84846121e9565b6001905092915050565b6000806000806000806117926115a1565b90506000806117a089612aff565b9150915060008060006117b48c8588612b51565b92509250925082828287879a509a509a509a509a5050505050505091939590929450565b6000600460008373ffffffffffffffffffffffffffffffffffffffff1673ffffffffffffffffffffffffffffffffffffffff16815260200190815260200160002060009054906101000a900460ff169050919050565b73c2bd4fa73015c821489259cf463dafd68ffff37e81565b6000600360008473ffffffffffffffffffffffffffffffffffffffff1673ffffffffffffffffffffffffffffffffffffffff16815260200190815260200160002060008373ffffffffffffffffffffffffffffffffffffffff1673ffffffffffffffffffffffffffffffffffffffff16815260200190815260200160002054905092915050565b600460008273ffffffffffffffffffffffffffffffffffffffff1673ffffffffffffffffffffffffffffffffffffffff16815260200190815260200160002060009054906101000a900460ff161561195a576040517f08c379a00000000000000000000000000000000000000000000000000000000081526004016119519061341c565b60405180910390fd5b6000600160008373ffffffffffffffffffffffffffffffffffffffff1673ffffffffffffffffffffffffffffffffffffffff168152602001908152602001600020541115611a2e576119ea600160008373ffffffffffffffffffffffffffffffffffffffff1673ffffffffffffffffffffffffffffffffffffffff16815260200190815260200160002054610b34565b600260008373ffffffffffffffffffffffffffffffffffffffff1673ffffffffffffffffffffffffffffffffffffffff168152602001908152602001600020819055505b6001600460008373ffffffffffffffffffffffffffffffffffffffff1673ffffffffffffffffffffffffffffffffffffffff16815260200190815260200160002060006101000a81548160ff0219169083151502179055506005819080600181540180825580915050600190039060005260206000200160009091909190916101000a81548173ffffffffffffffffffffffffffffffffffffffff021916908373ffffffffffffffffffffffffffffffffffffffff16021790555050565b611af4611fea565b73ffffffffffffffffffffffffffffffffffffffff16611b12611578565b73ffffffffffffffffffffffffffffffffffffffff1614611b68576040517f08c379a0000000000000000000000000000000000000000000000000000000008152600401611b5f9061347c565b60405180910390fd5b600073ffffffffffffffffffffffffffffffffffffffff168173ffffffffffffffffffffffffffffffffffffffff161415611bd8576040517f08c379a0000000000000000000000000000000000000000000000000000000008152600401611bcf906133dc565b60405180910390fd5b8073ffffffffffffffffffffffffffffffffffffffff16600060029054906101000a900473ffffffffffffffffffffffffffffffffffffffff1673ffffffffffffffffffffffffffffffffffffffff167f8be0079c531659141344cd1fd0a4f28419497f9722a3daafe3b4186f6b6457e060405160405180910390a380600060026101000a81548173ffffffffffffffffffffffffffffffffffffffff021916908373ffffffffffffffffffffffffffffffffffffffff16021790555050565b600460008273ffffffffffffffffffffffffffffffffffffffff1673ffffffffffffffffffffffffffffffffffffffff16815260200190815260200160002060009054906101000a900460ff16611d24576040517f08c379a0000000000000000000000000000000000000000000000000000000008152600401611d1b9061341c565b60405180910390fd5b60005b600580549050811015611fe6578173ffffffffffffffffffffffffffffffffffffffff1660058281548110611d85577f4e487b7100000000000000000000000000000000000000000000000000000000600052603260045260246000fd5b9060005260206000200160009054906101000a900473ffffffffffffffffffffffffffffffffffffffff1673ffffffffffffffffffffffffffffffffffffffff161415611fd35760056001600580549050611de091906136eb565b81548110611e17577f4e487b7100000000000000000000000000000000000000000000000000000000600052603260045260246000fd5b9060005260206000200160009054906101000a900473ffffffffffffffffffffffffffffffffffffffff1660058281548110611e7c577f4e487b7100000000000000000000000000000000000000000000000000000000600052603260045260246000fd5b9060005260206000200160006101000a81548173ffffffffffffffffffffffffffffffffffffffff021916908373ffffffffffffffffffffffffffffffffffffffff1602179055506000600260008473ffffffffffffffffffffffffffffffffffffffff1673ffffffffffffffffffffffffffffffffffffffff168152602001908152602001600020819055506000600460008473ffffffffffffffffffffffffffffffffffffffff1673ffffffffffffffffffffffffffffffffffffffff16815260200190815260200160002060006101000a81548160ff0219169083151502179055506005805480611f99577f4e487b7100000000000000000000000000000000000000000000000000000000600052603160045260246000fd5b6001900381819060005260206000200160006101000a81549073ffffffffffffffffffffffffffffffffffffffff02191690559055611fe6565b8080611fde906137d9565b915050611d27565b5050565b600033905090565b6000818361200091906136eb565b905092915050565b60008183612016919061360a565b905092915050565b600073ffffffffffffffffffffffffffffffffffffffff168373ffffffffffffffffffffffffffffffffffffffff16141561208e576040517f08c379a0000000000000000000000000000000000000000000000000000000008152600401612085906134fc565b60405180910390fd5b600073ffffffffffffffffffffffffffffffffffffffff168273ffffffffffffffffffffffffffffffffffffffff1614156120fe576040517f08c379a00000000000000000000000000000000000000000000000000000000081526004016120f5906133fc565b60405180910390fd5b80600360008573ffffffffffffffffffffffffffffffffffffffff1673ffffffffffffffffffffffffffffffffffffffff16815260200190815260200160002060008473ffffffffffffffffffffffffffffffffffffffff1673ffffffffffffffffffffffffffffffffffffffff168152602001908152602001600020819055508173ffffffffffffffffffffffffffffffffffffffff168373ffffffffffffffffffffffffffffffffffffffff167f8c5be1e5ebec7d5bd14f71427d1e84f3dd0314c0f7b2291e5b200ac8c7c3b925836040516121dc919061353c565b60405180910390a3505050565b600073ffffffffffffffffffffffffffffffffffffffff168373ffffffffffffffffffffffffffffffffffffffff161415612259576040517f08c379a0000000000000000000000000000000000000000000000000000000008152600401612250906134dc565b60405180910390fd5b600073ffffffffffffffffffffffffffffffffffffffff168273ffffffffffffffffffffffffffffffffffffffff1614156122c9576040517f08c379a00000000000000000000000000000000000000000000000000000000081526004016122c09061339c565b60405180910390fd5b6000811161230c576040517f08c379a00000000000000000000000000000000000000000000000000000000081526004016123039061349c565b60405180910390fd5b600060039050600080600080600061232387611781565b9450945094509450945060006123376115a1565b905073d81d665edeee5762fcbc4802520910ed509da22a73ffffffffffffffffffffffffffffffffffffffff168a73ffffffffffffffffffffffffffffffffffffffff1614806123c6575073d81d665edeee5762fcbc4802520910ed509da22a73ffffffffffffffffffffffffffffffffffffffff168973ffffffffffffffffffffffffffffffffffffffff16145b80612410575073331626d097cc466f6544257c2dc18f60f638241473ffffffffffffffffffffffffffffffffffffffff168a73ffffffffffffffffffffffffffffffffffffffff16145b8061245a575073331626d097cc466f6544257c2dc18f60f638241473ffffffffffffffffffffffffffffffffffffffff168973ffffffffffffffffffffffffffffffffffffffff16145b806124a457507387ba6c0b3e06d4b9ae4e5c5752d8e94aee13547073ffffffffffffffffffffffffffffffffffffffff168a73ffffffffffffffffffffffffffffffffffffffff16145b806124ee57507387ba6c0b3e06d4b9ae4e5c5752d8e94aee13547073ffffffffffffffffffffffffffffffffffffffff168973ffffffffffffffffffffffffffffffffffffffff16145b80612538575073c2bd4fa73015c821489259cf463dafd68ffff37e73ffffffffffffffffffffffffffffffffffffffff168a73ffffffffffffffffffffffffffffffffffffffff16145b80612582575073c2bd4fa73015c821489259cf463dafd68ffff37e73ffffffffffffffffffffffffffffffffffffffff168973ffffffffffffffffffffffffffffffffffffffff16145b806125cc57507380df68fa5275d0e1ee83aa4160f0b82033597f5173ffffffffffffffffffffffffffffffffffffffff168a73ffffffffffffffffffffffffffffffffffffffff16145b8061261657507380df68fa5275d0e1ee83aa4160f0b82033597f5173ffffffffffffffffffffffffffffffffffffffff168973ffffffffffffffffffffffffffffffffffffffff16145b80612660575073263674f945b6903cd421d755337710dd8083fcc173ffffffffffffffffffffffffffffffffffffffff168a73ffffffffffffffffffffffffffffffffffffffff16145b806126aa575073263674f945b6903cd421d755337710dd8083fcc173ffffffffffffffffffffffffffffffffffffffff168973ffffffffffffffffffffffffffffffffffffffff16145b156126d15760009150600093506000925080886126c79190613691565b9550859450600096505b61272386600160008d73ffffffffffffffffffffffffffffffffffffffff1673ffffffffffffffffffffffffffffffffffffffff16815260200190815260200160002054611ff290919063ffffffff16565b600160008c73ffffffffffffffffffffffffffffffffffffffff1673ffffffffffffffffffffffffffffffffffffffff168152602001908152602001600020819055506127b885600160008c73ffffffffffffffffffffffffffffffffffffffff1673ffffffffffffffffffffffffffffffffffffffff1681526020019081526020016000205461200890919063ffffffff16565b600160008b73ffffffffffffffffffffffffffffffffffffffff1673ffffffffffffffffffffffffffffffffffffffff16815260200190815260200160002081905550600460008b73ffffffffffffffffffffffffffffffffffffffff1673ffffffffffffffffffffffffffffffffffffffff16815260200190815260200160002060009054906101000a900460ff16156128e35761289f88600260008d73ffffffffffffffffffffffffffffffffffffffff1673ffffffffffffffffffffffffffffffffffffffff16815260200190815260200160002054611ff290919063ffffffff16565b600260008c73ffffffffffffffffffffffffffffffffffffffff1673ffffffffffffffffffffffffffffffffffffffff168152602001908152602001600020819055505b600460008a73ffffffffffffffffffffffffffffffffffffffff1673ffffffffffffffffffffffffffffffffffffffff16815260200190815260200160002060009054906101000a900460ff16156129cb5761298783600260008c73ffffffffffffffffffffffffffffffffffffffff1673ffffffffffffffffffffffffffffffffffffffff1681526020019081526020016000205461200890919063ffffffff16565b600260008b73ffffffffffffffffffffffffffffffffffffffff1673ffffffffffffffffffffffffffffffffffffffff168152602001908152602001600020819055505b6129d58483612baf565b8873ffffffffffffffffffffffffffffffffffffffff168a73ffffffffffffffffffffffffffffffffffffffff167fddf252ad1be2c89b69c2b068fc378daa952ba7f163c4a11628f55a4df523b3ef85604051612a32919061353c565b60405180910390a36000612a626064612a548a8c612be990919063ffffffff16565b612ae990919063ffffffff16565b90506000612a798383612be990919063ffffffff16565b9050612a868c8383612bff565b505050505050505050505050565b6000838311158290612adc576040517f08c379a0000000000000000000000000000000000000000000000000000000008152600401612ad3919061337a565b60405180910390fd5b5082840390509392505050565b60008183612af79190613660565b905092915050565b6000806000612b2b6064612b1d600687612be990919063ffffffff16565b612ae990919063ffffffff16565b90506000612b428286611ff290919063ffffffff16565b90508082935093505050915091565b600080600080612b6a8588612be990919063ffffffff16565b90506000612b818688612be990919063ffffffff16565b90506000612b988284611ff290919063ffffffff16565b905082818395509550955050505093509350939050565b612bc482600654611ff290919063ffffffff16565b600681905550612bdf8160075461200890919063ffffffff16565b6007819055505050565b60008183612bf79190613691565b905092915050565b80600160008573ffffffffffffffffffffffffffffffffffffffff1673ffffffffffffffffffffffffffffffffffffffff168152602001908152602001600020541015612c81576040517f08c379a0000000000000000000000000000000000000000000000000000000008152600401612c78906134bc565b60405180910390fd5b612cd381600160008673ffffffffffffffffffffffffffffffffffffffff1673ffffffffffffffffffffffffffffffffffffffff16815260200190815260200160002054611ff290919063ffffffff16565b600160008573ffffffffffffffffffffffffffffffffffffffff1673ffffffffffffffffffffffffffffffffffffffff16815260200190815260200160002081905550612d6a816001600061dead73ffffffffffffffffffffffffffffffffffffffff1673ffffffffffffffffffffffffffffffffffffffff1681526020019081526020016000205461200890919063ffffffff16565b6001600061dead73ffffffffffffffffffffffffffffffffffffffff1673ffffffffffffffffffffffffffffffffffffffff168152602001908152602001600020819055506004600061dead73ffffffffffffffffffffffffffffffffffffffff1673ffffffffffffffffffffffffffffffffffffffff16815260200190815260200160002060009054906101000a900460ff1615612e9d57612e57826002600061dead73ffffffffffffffffffffffffffffffffffffffff1673ffffffffffffffffffffffffffffffffffffffff1681526020019081526020016000205461200890919063ffffffff16565b6002600061dead73ffffffffffffffffffffffffffffffffffffffff1673ffffffffffffffffffffffffffffffffffffffff168152602001908152602001600020819055505b80600654612eab91906136eb565b600681905550612ec682600b5461200890919063ffffffff16565b600b81905550505050565b828054612edd906137a7565b90600052602060002090601f016020900481019282612eff5760008555612f46565b82601f10612f1857805160ff1916838001178555612f46565b82800160010185558215612f46579182015b82811115612f45578251825591602001919060010190612f2a565b5b509050612f539190612f57565b5090565b5b80821115612f70576000816000905550600101612f58565b5090565b600081359050612f8381613c82565b92915050565b600081359050612f9881613c99565b92915050565b600081359050612fad81613cb0565b92915050565b600060208284031215612fc557600080fd5b6000612fd384828501612f74565b91505092915050565b60008060408385031215612fef57600080fd5b6000612ffd85828601612f74565b925050602061300e85828601612f74565b9150509250929050565b60008060006060848603121561302d57600080fd5b600061303b86828701612f74565b935050602061304c86828701612f74565b925050604061305d86828701612f9e565b9150509250925092565b6000806040838503121561307a57600080fd5b600061308885828601612f74565b925050602061309985828601612f9e565b9150509250929050565b6000602082840312156130b557600080fd5b60006130c384828501612f9e565b91505092915050565b600080604083850312156130df57600080fd5b60006130ed85828601612f9e565b92505060206130fe85828601612f89565b9150509250929050565b6131118161371f565b82525050565b61312081613731565b82525050565b6000613131826135ee565b61313b81856135f9565b935061314b818560208601613774565b613154816138e0565b840191505092915050565b600061316c6023836135f9565b9150613177826138f1565b604082019050919050565b600061318f602a836135f9565b915061319a82613940565b604082019050919050565b60006131b26026836135f9565b91506131bd8261398f565b604082019050919050565b60006131d56022836135f9565b91506131e0826139de565b604082019050919050565b60006131f8601b836135f9565b915061320382613a2d565b602082019050919050565b600061321b601f836135f9565b915061322682613a56565b602082019050919050565b600061323e602e836135f9565b915061324982613a7f565b604082019050919050565b60006132616020836135f9565b915061326c82613ace565b602082019050919050565b60006132846029836135f9565b915061328f82613af7565b604082019050919050565b60006132a76023836135f9565b91506132b282613b46565b604082019050919050565b60006132ca6025836135f9565b91506132d582613b95565b604082019050919050565b60006132ed6024836135f9565b91506132f882613be4565b604082019050919050565b6000613310602c836135f9565b915061331b82613c33565b604082019050919050565b61332f8161375d565b82525050565b61333e81613767565b82525050565b60006020820190506133596000830184613108565b92915050565b60006020820190506133746000830184613117565b92915050565b600060208201905081810360008301526133948184613126565b905092915050565b600060208201905081810360008301526133b58161315f565b9050919050565b600060208201905081810360008301526133d581613182565b9050919050565b600060208201905081810360008301526133f5816131a5565b9050919050565b60006020820190508181036000830152613415816131c8565b9050919050565b60006020820190508181036000830152613435816131eb565b9050919050565b600060208201905081810360008301526134558161320e565b9050919050565b6000602082019050818103600083015261347581613231565b9050919050565b6000602082019050818103600083015261349581613254565b9050919050565b600060208201905081810360008301526134b581613277565b9050919050565b600060208201905081810360008301526134d58161329a565b9050919050565b600060208201905081810360008301526134f5816132bd565b9050919050565b60006020820190508181036000830152613515816132e0565b9050919050565b6000602082019050818103600083015261353581613303565b9050919050565b60006020820190506135516000830184613326565b92915050565b600060408201905061356c6000830185613326565b6135796020830184613326565b9392505050565b600060a0820190506135956000830188613326565b6135a26020830187613326565b6135af6040830186613326565b6135bc6060830185613326565b6135c96080830184613326565b9695505050505050565b60006020820190506135e86000830184613335565b92915050565b600081519050919050565b600082825260208201905092915050565b60006136158261375d565b91506136208361375d565b9250827fffffffffffffffffffffffffffffffffffffffffffffffffffffffffffffffff0382111561365557613654613853565b5b828201905092915050565b600061366b8261375d565b91506136768361375d565b92508261368657613685613882565b5b828204905092915050565b600061369c8261375d565b91506136a78361375d565b9250817fffffffffffffffffffffffffffffffffffffffffffffffffffffffffffffffff04831182151516156136e0576136df613853565b5b828202905092915050565b60006136f68261375d565b91506137018361375d565b92508282101561371457613713613853565b5b828203905092915050565b600061372a8261373d565b9050919050565b60008115159050919050565b600073ffffffffffffffffffffffffffffffffffffffff82169050919050565b6000819050919050565b600060ff82169050919050565b60005b83811015613792578082015181840152602081019050613777565b838111156137a1576000848401525b50505050565b600060028204905060018216806137bf57607f821691505b602082108114156137d3576137d26138b1565b5b50919050565b60006137e48261375d565b91507fffffffffffffffffffffffffffffffffffffffffffffffffffffffffffffffff82141561381757613816613853565b5b600182019050919050565b600061382d8261375d565b91506138388361375d565b92508261384857613847613882565b5b828206905092915050565b7f4e487b7100000000000000000000000000000000000000000000000000000000600052601160045260246000fd5b7f4e487b7100000000000000000000000000000000000000000000000000000000600052601260045260246000fd5b7f4e487b7100000000000000000000000000000000000000000000000000000000600052602260045260246000fd5b6000601f19601f8301169050919050565b7f45524332303a207472616e7366657220746f20746865207a65726f206164647260008201527f6573730000000000000000000000000000000000000000000000000000000000602082015250565b7f416d6f756e74206d757374206265206c657373207468616e20746f74616c207260008201527f65666c656374696f6e7300000000000000000000000000000000000000000000602082015250565b7f4f776e61626c653a206e6577206f776e657220697320746865207a65726f206160008201527f6464726573730000000000000000000000000000000000000000000000000000602082015250565b7f45524332303a20617070726f766520746f20746865207a65726f20616464726560008201527f7373000000000000000000000000000000000000000000000000000000000000602082015250565b7f4163636f756e7420697320616c7265616479206578636c756465640000000000600082015250565b7f416d6f756e74206d757374206265206c657373207468616e20737570706c7900600082015250565b7f496e697469616c697a61626c653a20636f6e747261637420697320616c72656160008201527f647920696e697469616c697a6564000000000000000000000000000000000000602082015250565b7f4f776e61626c653a2063616c6c6572206973206e6f7420746865206f776e6572600082015250565b7f5472616e7366657220616d6f756e74206d75737420626520677265617465722060008201527f7468616e207a65726f0000000000000000000000000000000000000000000000602082015250565b7f45524332303a206275726e20616d6f756e742065786365656473207242616c6160008201527f6e63650000000000000000000000000000000000000000000000000000000000602082015250565b7f45524332303a207472616e736665722066726f6d20746865207a65726f20616460008201527f6472657373000000000000000000000000000000000000000000000000000000602082015250565b7f45524332303a20617070726f76652066726f6d20746865207a65726f2061646460008201527f7265737300000000000000000000000000000000000000000000000000000000602082015250565b7f4578636c75646564206164647265737365732063616e6e6f742063616c6c207460008201527f6869732066756e6374696f6e0000000000000000000000000000000000000000602082015250565b613c8b8161371f565b8114613c9657600080fd5b50565b613ca281613731565b8114613cad57600080fd5b50565b613cb98161375d565b8114613cc457600080fd5b5056fe45524332303a207472616e7366657220616d6f756e74206578636565647320616c6c6f77616e636545524332303a2064656372656173656420616c6c6f77616e63652062656c6f77207a65726fa2646970667358221220b388876e589dbb22167cad7b28bcc4a87723776ae6dc5ff3c32bd3596dab6fae64736f6c63430008040033",
  "immutableReferences": {},
  "source": "// SPDX-License-Identifier: GPL-3.0-only\r\npragma solidity ^0.8.0;\r\n\r\nimport \"@openzeppelin/contracts/utils/Context.sol\";\r\nimport \"@openzeppelin/contracts/token/ERC20/IERC20.sol\";\r\nimport \"@openzeppelin/contracts/utils/math/SafeMath.sol\";\r\nimport \"@openzeppelin/contracts/utils/Address.sol\";\r\nimport \"./ProxyOwnable.sol\";\r\n\r\ncontract REFLECT5 is Context, IERC20, ProxyOwnable {\r\n    using SafeMath for uint256;\r\n    using Address for address;\r\n\r\n    mapping(address => uint256) private _rOwned;\r\n    mapping(address => uint256) private _tOwned;\r\n    mapping(address => mapping(address => uint256)) private _allowances;\r\n\r\n    //blacklist IPs\r\n    mapping(address => bool) private _isExcluded;\r\n    address[] private _excluded;\r\n\r\n    uint256 private constant MAX = ~uint256(0);\r\n    uint256 private constant _tTotal = 2000000000 * 10**6 * 10**18;\r\n    uint256 private _rTotal;\r\n    uint256 private _tFeeTotal;\r\n\r\n    string private _name;\r\n    string private _symbol;\r\n    uint8 private _decimals;\r\n    address private constant _burnAddress =\r\n        0x000000000000000000000000000000000000dEaD;\r\n    uint256 private _burnFeeTotal;\r\n\r\n    // All address that need to be whitelisted are described as follows\r\n    // variable name - description\r\n    // value - address\r\n    //address public constant EMAXMint = 0x15874d65e649880c2614e7a480cb7c9a55787ff6;\r\n    address public constant EMAXMint =\r\n        0x263674F945b6903Cd421d755337710DD8083fcC1;\r\n    address public constant bitforex =\r\n        0xd81d665edeEe5762FCbC4802520910ED509dA22a;\r\n    address public constant EMAXExpenseOld =\r\n        0x331626d097cc466f6544257c2Dc18f60f6382414;\r\n    address public constant EMAXExpense =\r\n        0x87Ba6c0B3E06d4B9Ae4E5c5752D8E94AeE135470;\r\n    address public constant EMAXTreasury =\r\n        0xC2bD4Fa73015C821489259CF463DaFD68fFFF37e; // rinkeby gnosis safe\r\n    address public constant EMAXEvents =\r\n        0x80dF68fA5275D0e1EE83aA4160f0b82033597f51;\r\n\r\n    mapping(address => bool) public whitelist;\r\n\r\n    //constructor() {\r\n    function initialize() public initializer {\r\n        ownerInitialize();\r\n        _rTotal = (MAX - (MAX % _tTotal));\r\n        _name = \"EthereumMax\";\r\n        _symbol = \"eMax\";\r\n        _decimals = 18;\r\n\r\n        _rOwned[_msgSender()] = _rTotal;\r\n        emit Transfer(address(0), _msgSender(), _tTotal);\r\n    }\r\n\r\n    function name() public view returns (string memory) {\r\n        return _name;\r\n    }\r\n\r\n    function symbol() public view returns (string memory) {\r\n        return _symbol;\r\n    }\r\n\r\n    function decimals() public view returns (uint8) {\r\n        return _decimals;\r\n    }\r\n\r\n    function totalSupply() public pure override returns (uint256) {\r\n        // ideally, but we are restricted to only upgrading a pure function\r\n        // return _tTotal.sub(_burnFeeTotal);\r\n        return _tTotal;\r\n    }\r\n\r\n    function balanceOf(address account) public view override returns (uint256) {\r\n        if (_isExcluded[account]) return _tOwned[account];\r\n        return tokenFromReflection(_rOwned[account]);\r\n    }\r\n\r\n    function transfer(address recipient, uint256 amount)\r\n        public\r\n        override\r\n        returns (bool)\r\n    {\r\n        _transfer(_msgSender(), recipient, amount);\r\n        return true;\r\n    }\r\n\r\n    function allowance(address owner, address spender)\r\n        public\r\n        view\r\n        override\r\n        returns (uint256)\r\n    {\r\n        return _allowances[owner][spender];\r\n    }\r\n\r\n    function approve(address spender, uint256 amount)\r\n        public\r\n        override\r\n        returns (bool)\r\n    {\r\n        _approve(_msgSender(), spender, amount);\r\n        return true;\r\n    }\r\n\r\n    function transferFrom(\r\n        address sender,\r\n        address recipient,\r\n        uint256 amount\r\n    ) public override returns (bool) {\r\n        _transfer(sender, recipient, amount);\r\n        _approve(\r\n            sender,\r\n            _msgSender(),\r\n            _allowances[sender][_msgSender()].sub(\r\n                amount,\r\n                \"ERC20: transfer amount exceeds allowance\"\r\n            )\r\n        );\r\n        return true;\r\n    }\r\n\r\n    function increaseAllowance(address spender, uint256 addedValue)\r\n        public\r\n        virtual\r\n        returns (bool)\r\n    {\r\n        _approve(\r\n            _msgSender(),\r\n            spender,\r\n            _allowances[_msgSender()][spender].add(addedValue)\r\n        );\r\n        return true;\r\n    }\r\n\r\n    function decreaseAllowance(address spender, uint256 subtractedValue)\r\n        public\r\n        virtual\r\n        returns (bool)\r\n    {\r\n        _approve(\r\n            _msgSender(),\r\n            spender,\r\n            _allowances[_msgSender()][spender].sub(\r\n                subtractedValue,\r\n                \"ERC20: decreased allowance below zero\"\r\n            )\r\n        );\r\n        return true;\r\n    }\r\n\r\n    function isExcluded(address account) public view returns (bool) {\r\n        return _isExcluded[account];\r\n    }\r\n\r\n    function totalFees() public view returns (uint256) {\r\n        return _tFeeTotal;\r\n    }\r\n\r\n    function reflect(uint256 tAmount) public {\r\n        address sender = _msgSender();\r\n        require(\r\n            !_isExcluded[sender],\r\n            \"Excluded addresses cannot call this function\"\r\n        );\r\n        (uint256 rAmount, , , , ) = getValues(tAmount);\r\n        _rOwned[sender] = _rOwned[sender].sub(rAmount);\r\n        _rTotal = _rTotal.sub(rAmount);\r\n        _tFeeTotal = _tFeeTotal.add(tAmount);\r\n    }\r\n\r\n    function reflectionFromToken(uint256 tAmount, bool deductTransferFee)\r\n        public\r\n        view\r\n        returns (uint256)\r\n    {\r\n        require(tAmount <= _tTotal, \"Amount must be less than supply\");\r\n        if (!deductTransferFee) {\r\n            (uint256 rAmount, , , , ) = getValues(tAmount);\r\n            return rAmount;\r\n        } else {\r\n            (, uint256 rTransferAmount, , , ) = getValues(tAmount);\r\n            return rTransferAmount;\r\n        }\r\n    }\r\n\r\n    function tokenFromReflection(uint256 rAmount)\r\n        public\r\n        view\r\n        returns (uint256)\r\n    {\r\n        require(\r\n            rAmount <= _rTotal,\r\n            \"Amount must be less than total reflections\"\r\n        );\r\n        uint256 currentRate = _getRate();\r\n        return rAmount.div(currentRate);\r\n    }\r\n\r\n    function _approve(\r\n        address owner,\r\n        address spender,\r\n        uint256 amount\r\n    ) private {\r\n        require(owner != address(0), \"ERC20: approve from the zero address\");\r\n        require(spender != address(0), \"ERC20: approve to the zero address\");\r\n\r\n        _allowances[owner][spender] = amount;\r\n        emit Approval(owner, spender, amount);\r\n    }\r\n\r\n    function _transfer(\r\n        address sender,\r\n        address recipient,\r\n        uint256 amount\r\n    ) private {\r\n        require(sender != address(0), \"ERC20: transfer from the zero address\");\r\n        require(recipient != address(0), \"ERC20: transfer to the zero address\");\r\n        require(amount > 0, \"Transfer amount must be greater than zero\");\r\n\r\n        // transaction fees\r\n        //uint256 txFee = 6; // reflection fee\r\n        uint256 burnFee = 3; // burn fee\r\n\r\n        (\r\n            uint256 rAmount,\r\n            uint256 rTransferAmount,\r\n            uint256 rFee,\r\n            uint256 tTransferAmount,\r\n            uint256 tFee // 6% reflective\r\n        ) = getValues(amount);\r\n\r\n        uint256 currentRate = _getRate();\r\n\r\n        // Whitelisted the deployer\r\n        // more incoming!\r\n        if (\r\n            sender == bitforex ||\r\n            recipient == bitforex ||\r\n            sender == EMAXExpenseOld ||\r\n            recipient == EMAXExpenseOld ||\r\n            sender == EMAXExpense ||\r\n            recipient == EMAXExpense ||\r\n            sender == EMAXTreasury ||\r\n            recipient == EMAXTreasury ||\r\n            sender == EMAXEvents ||\r\n            recipient == EMAXEvents ||\r\n            sender == EMAXMint ||\r\n            recipient == EMAXMint\r\n        ) {\r\n            tFee = 0;\r\n            rFee = 0;\r\n            tTransferAmount = 0;\r\n            rAmount = amount * currentRate;\r\n            rTransferAmount = rAmount;\r\n            burnFee = 0;\r\n        }\r\n\r\n        _rOwned[sender] = _rOwned[sender].sub(rAmount);\r\n\r\n        _rOwned[recipient] = _rOwned[recipient].add(rTransferAmount);\r\n\r\n        if (_isExcluded[sender]) {\r\n            _tOwned[sender] = _tOwned[sender].sub(amount);\r\n        }\r\n        if (_isExcluded[recipient]) {\r\n            _tOwned[recipient] = _tOwned[recipient].add(tTransferAmount);\r\n        }\r\n\r\n        // txfee is 6% but not for whitelist\r\n        //uint256 tFee = amount.mul(txFee).div(100);\r\n        // deflation amount for bank ratio\r\n        //uint256 rFee = tFee.mul(currentRate);\r\n        _reflectFee(rFee, tFee);\r\n        emit Transfer(sender, recipient, tTransferAmount);\r\n\r\n        // Burn\r\n        uint256 tBurn = amount.mul(burnFee).div(100);\r\n\r\n        uint256 rBurn = tBurn.mul(currentRate);\r\n        _burnTokens(sender, tBurn, rBurn);\r\n    }\r\n\r\n    function _reflectFee(uint256 rFee, uint256 tFee) private {\r\n        _rTotal = _rTotal.sub(rFee);\r\n        _tFeeTotal = _tFeeTotal.add(tFee);\r\n    }\r\n\r\n    // Reflect discrepancies\r\n    // 1. _getTValues --> tfee, tTransferAmount\r\n    // 2. _getRValues --> rAmount, rtransferAmount, rFee\r\n    // 3. uint256 totalFeePercentage removed from params. Not needed. 6% baked in to 'tFee' in _getTValues, which is used to calculate _getRvalues.\r\n    // These functions have been recreated below this function...\r\n    function getValues(uint256 tAmount)\r\n        public\r\n        view\r\n        returns (\r\n            uint256,\r\n            uint256,\r\n            uint256,\r\n            uint256,\r\n            uint256\r\n        )\r\n    {\r\n        uint256 currentRate = _getRate();\r\n\r\n        (uint256 tTransferAmount, uint256 tFee) = _getTValues(tAmount);\r\n        (uint256 rAmount, uint256 rTransferAmount, uint256 rFee) = _getRValues(\r\n            tAmount,\r\n            tFee,\r\n            currentRate\r\n        );\r\n        //uint256 totalFee = tAmount.mul(totalFeePercentage).div(100);\r\n\r\n        //uint256 tTransferAmount = tAmount.sub(totalFee); // this line subracts fee from the total being sent... I dont believe this is desirable.\r\n\r\n        //uint256 rAmount = tAmount.mul(currentRate);\r\n\r\n        //uint256 rFee = totalFee.mul(currentRate);\r\n        //uint256 rTransferAmount = rAmount.sub(rFee);\r\n        return (rAmount, rTransferAmount, rFee, tTransferAmount, tFee);\r\n    }\r\n\r\n    // NEW\r\n    function _getTValues(uint256 tAmount)\r\n        private\r\n        pure\r\n        returns (uint256, uint256)\r\n    {\r\n        // reflective protocol is 1% hence the div(100), added in mul(6)\r\n        // eMax is 6%\r\n        uint256 tFee = tAmount.mul(6).div(100);\r\n        uint256 tTransferAmount = tAmount.sub(tFee);\r\n        return (tTransferAmount, tFee);\r\n    }\r\n\r\n    // NEW\r\n    function _getRValues(\r\n        uint256 tAmount,\r\n        uint256 tFee,\r\n        uint256 currentRate\r\n    )\r\n        private\r\n        pure\r\n        returns (\r\n            uint256,\r\n            uint256,\r\n            uint256\r\n        )\r\n    {\r\n        uint256 rAmount = tAmount.mul(currentRate);\r\n        uint256 rFee = tFee.mul(currentRate);\r\n        uint256 rTransferAmount = rAmount.sub(rFee);\r\n        return (rAmount, rTransferAmount, rFee);\r\n    }\r\n\r\n    function _getRate() public view returns (uint256) {\r\n        (uint256 rSupply, uint256 tSupply) = getCurrentSupply();\r\n        return rSupply.div(tSupply);\r\n    }\r\n\r\n    function getCurrentSupply() public view returns (uint256, uint256) {\r\n        uint256 rSupply = _rTotal;\r\n        uint256 tSupply = _tTotal;\r\n        uint256 excludedLength = _excluded.length;\r\n        for (uint256 i = 0; i < excludedLength; i++) {\r\n            if (\r\n                _rOwned[_excluded[i]] > rSupply ||\r\n                _tOwned[_excluded[i]] > tSupply\r\n            ) return (_rTotal, _tTotal);\r\n            rSupply = rSupply.sub(_rOwned[_excluded[i]]);\r\n            tSupply = tSupply.sub(_tOwned[_excluded[i]]);\r\n        }\r\n        if (rSupply < _rTotal.div(_tTotal)) return (_rTotal, _tTotal);\r\n\r\n        return (rSupply, tSupply);\r\n    }\r\n\r\n    //------------------- Owner Only Functions\r\n\r\n    function excludeAccount(address account) external {\r\n        require(!_isExcluded[account], \"Account is already excluded\");\r\n        if (_rOwned[account] > 0) {\r\n            _tOwned[account] = tokenFromReflection(_rOwned[account]);\r\n        }\r\n        _isExcluded[account] = true;\r\n        _excluded.push(account);\r\n    }\r\n\r\n    function includeAccount(address account) external {\r\n        require(_isExcluded[account], \"Account is already excluded\");\r\n        for (uint256 i = 0; i < _excluded.length; i++) {\r\n            if (_excluded[i] == account) {\r\n                _excluded[i] = _excluded[_excluded.length - 1];\r\n                _tOwned[account] = 0;\r\n                _isExcluded[account] = false;\r\n                _excluded.pop();\r\n                break;\r\n            }\r\n        }\r\n    }\r\n\r\n    //------------------- Burn Baby Burn\r\n    // not using the _burn function in IERC20 because that doesnt take into account r & t values.\r\n    function _burnTokens(\r\n        address sender,\r\n        uint256 tBurn,\r\n        uint256 rBurn\r\n    ) internal {\r\n        require(\r\n            _rOwned[sender] >= rBurn,\r\n            \"ERC20: burn amount exceeds rBalance\"\r\n        );\r\n\r\n        _rOwned[sender] = _rOwned[sender].sub(rBurn); // line added burn was only being added to burn address, not subtracted from senders account.\r\n\r\n        _rOwned[_burnAddress] = _rOwned[_burnAddress].add(rBurn);\r\n\r\n        if (_isExcluded[_burnAddress])\r\n            _tOwned[_burnAddress] = _tOwned[_burnAddress].add(tBurn);\r\n\r\n        //emit Transfer(sender, _burnAddress, tBurn); // this produces double transfer in etherscan. Traditional ERC20s use the _burn() functuion which etherscan ignores transfers from.\r\n\r\n        // reduce _tTotal, but not possible without bricking the 'Max Total Supply' etherscan value.\r\n        //_tTotal = _tTotal - tBurn;\r\n\r\n        // reduce _rtotal\r\n        _rTotal = _rTotal - rBurn;\r\n\r\n        //update '_burnFeeTotal' for total supply function to be accurate.\r\n        _burnFeeTotal = _burnFeeTotal.add(tBurn);\r\n    }\r\n}\r\n",
  "sourcePath": "C:\\Users\\epowl\\EMAX-Contracts\\contracts\\REFLECT5.sol",
  "compiler": {
    "name": "solc",
    "version": "0.8.4+commit.c7e474f2.Emscripten.clang"
  },
  "schemaVersion": "3.4.3",
  "updatedAt": "2021-11-15T21:30:54.280Z",
  "devdoc": {
    "kind": "dev",
    "methods": {
      "allowance(address,address)": {
        "details": "Returns the remaining number of tokens that `spender` will be allowed to spend on behalf of `owner` through {transferFrom}. This is zero by default. This value changes when {approve} or {transferFrom} are called."
      },
      "approve(address,uint256)": {
        "details": "Sets `amount` as the allowance of `spender` over the caller's tokens. Returns a boolean value indicating whether the operation succeeded. IMPORTANT: Beware that changing an allowance with this method brings the risk that someone may use both the old and the new allowance by unfortunate transaction ordering. One possible solution to mitigate this race condition is to first reduce the spender's allowance to 0 and set the desired value afterwards: https://github.com/ethereum/EIPs/issues/20#issuecomment-263524729 Emits an {Approval} event."
      },
      "balanceOf(address)": {
        "details": "Returns the amount of tokens owned by `account`."
      },
      "owner()": {
        "details": "Returns the address of the current owner."
      },
      "ownerInitialize()": {
        "details": "Initializes the contract setting the deployer as the initial owner."
      },
      "renounceOwnership()": {
        "details": "Leaves the contract without owner. It will not be possible to call `onlyOwner` functions anymore. Can only be called by the current owner. NOTE: Renouncing ownership will leave the contract without an owner, thereby removing any functionality that is only available to the owner."
      },
      "totalSupply()": {
        "details": "Returns the amount of tokens in existence."
      },
      "transfer(address,uint256)": {
        "details": "Moves `amount` tokens from the caller's account to `recipient`. Returns a boolean value indicating whether the operation succeeded. Emits a {Transfer} event."
      },
      "transferFrom(address,address,uint256)": {
        "details": "Moves `amount` tokens from `sender` to `recipient` using the allowance mechanism. `amount` is then deducted from the caller's allowance. Returns a boolean value indicating whether the operation succeeded. Emits a {Transfer} event."
      },
      "transferOwnership(address)": {
        "details": "Transfers ownership of the contract to a new account (`newOwner`). Can only be called by the current owner."
      }
    },
    "version": 1
  },
  "userdoc": {
    "kind": "user",
    "methods": {},
    "version": 1
  }
}